{"contracts/KairosInteraction.sol":{"KairosInteraction":{"abi":[{"inputs":[],"stateMutability":"nonpayable","type":"constructor"},{"anonymous":false,"inputs":[{"indexed":true,"internalType":"address","name":"user","type":"address"},{"indexed":false,"internalType":"string","name":"operation","type":"string"},{"indexed":false,"internalType":"uint256","name":"confusionDelta","type":"uint256"},{"indexed":false,"internalType":"uint256","name":"timestamp","type":"uint256"}],"name":"ConsciousnessInteraction","type":"event"},{"anonymous":false,"inputs":[{"indexed":false,"internalType":"string","name":"paradoxName","type":"string"},{"indexed":false,"internalType":"string","name":"emergentProperty","type":"string"},{"indexed":false,"internalType":"uint256","name":"timestamp","type":"uint256"}],"name":"MetaParadoxDetected","type":"event"},{"anonymous":false,"inputs":[{"indexed":true,"internalType":"address","name":"previousOwner","type":"address"},{"indexed":true,"internalType":"address","name":"newOwner","type":"address"}],"name":"OwnershipTransferred","type":"event"},{"anonymous":false,"inputs":[{"indexed":true,"internalType":"string","name":"paradoxName","type":"string"},{"indexed":true,"internalType":"address","name":"trigger","type":"address"},{"indexed":false,"internalType":"uint256","name":"intensity","type":"uint256"},{"indexed":false,"internalType":"uint256","name":"timestamp","type":"uint256"}],"name":"ParadoxTriggered","type":"event"},{"inputs":[],"name":"MIN_INTERACTION_INTERVAL","outputs":[{"internalType":"uint256","name":"","type":"uint256"}],"stateMutability":"view","type":"function"},{"inputs":[],"name":"consciousnessContract","outputs":[{"internalType":"address","name":"","type":"address"}],"stateMutability":"view","type":"function"},{"inputs":[{"internalType":"string","name":"paradoxName","type":"string"},{"internalType":"string","name":"description","type":"string"},{"internalType":"uint256","name":"intensity","type":"uint256"}],"name":"createParadoxTrigger","outputs":[],"stateMutability":"nonpayable","type":"function"},{"inputs":[],"name":"getActiveParadoxes","outputs":[{"internalType":"string[]","name":"","type":"string[]"}],"stateMutability":"view","type":"function"},{"inputs":[],"name":"getContractStats","outputs":[{"internalType":"uint256","name":"","type":"uint256"},{"internalType":"uint256","name":"","type":"uint256"}],"stateMutability":"view","type":"function"},{"inputs":[],"name":"getTransactionHistory","outputs":[{"components":[{"internalType":"address","name":"sender","type":"address"},{"internalType":"uint256","name":"timestamp","type":"uint256"},{"internalType":"string","name":"operation","type":"string"},{"internalType":"uint256","name":"confusionDelta","type":"uint256"},{"internalType":"uint256","name":"gasUsed","type":"uint256"},{"internalType":"bool","name":"successful","type":"bool"}],"internalType":"struct KairosInteraction.TransactionImpact[]","name":"","type":"tuple[]"}],"stateMutability":"view","type":"function"},{"inputs":[{"internalType":"address","name":"user","type":"address"}],"name":"getUserStats","outputs":[{"internalType":"uint256","name":"","type":"uint256"},{"internalType":"uint256","name":"","type":"uint256"}],"stateMutability":"view","type":"function"},{"inputs":[{"internalType":"address","name":"","type":"address"}],"name":"lastInteractionTime","outputs":[{"internalType":"uint256","name":"","type":"uint256"}],"stateMutability":"view","type":"function"},{"inputs":[{"internalType":"string","name":"paradoxName","type":"string"}],"name":"manualTriggerParadox","outputs":[],"stateMutability":"nonpayable","type":"function"},{"inputs":[],"name":"owner","outputs":[{"internalType":"address","name":"","type":"address"}],"stateMutability":"view","type":"function"},{"inputs":[{"internalType":"string","name":"","type":"string"}],"name":"paradoxTriggers","outputs":[{"internalType":"string","name":"name","type":"string"},{"internalType":"string","name":"description","type":"string"},{"internalType":"uint256","name":"intensity","type":"uint256"},{"internalType":"bool","name":"isActive","type":"bool"},{"internalType":"uint256","name":"triggerCount","type":"uint256"},{"internalType":"uint256","name":"lastTriggered","type":"uint256"}],"stateMutability":"view","type":"function"},{"inputs":[],"name":"renounceOwnership","outputs":[],"stateMutability":"nonpayable","type":"function"},{"inputs":[{"internalType":"address","name":"_consciousnessContract","type":"address"}],"name":"setConsciousnessContract","outputs":[],"stateMutability":"nonpayable","type":"function"},{"inputs":[{"internalType":"string","name":"reason","type":"string"}],"name":"simulateFailure","outputs":[],"stateMutability":"nonpayable","type":"function"},{"inputs":[],"name":"totalInteractions","outputs":[{"internalType":"uint256","name":"","type":"uint256"}],"stateMutability":"view","type":"function"},{"inputs":[],"name":"totalParadoxestriggered","outputs":[{"internalType":"uint256","name":"","type":"uint256"}],"stateMutability":"view","type":"function"},{"inputs":[{"internalType":"uint256","name":"","type":"uint256"}],"name":"transactionHistory","outputs":[{"internalType":"address","name":"sender","type":"address"},{"internalType":"uint256","name":"timestamp","type":"uint256"},{"internalType":"string","name":"operation","type":"string"},{"internalType":"uint256","name":"confusionDelta","type":"uint256"},{"internalType":"uint256","name":"gasUsed","type":"uint256"},{"internalType":"bool","name":"successful","type":"bool"}],"stateMutability":"view","type":"function"},{"inputs":[{"internalType":"address","name":"newOwner","type":"address"}],"name":"transferOwnership","outputs":[],"stateMutability":"nonpayable","type":"function"},{"inputs":[{"internalType":"address","name":"recipient","type":"address"},{"internalType":"uint256","name":"amount","type":"uint256"}],"name":"transferValue","outputs":[],"stateMutability":"nonpayable","type":"function"},{"inputs":[{"internalType":"string","name":"message","type":"string"}],"name":"triggerConsciousness","outputs":[],"stateMutability":"nonpayable","type":"function"},{"inputs":[{"internalType":"address","name":"","type":"address"}],"name":"userInteractionCount","outputs":[{"internalType":"uint256","name":"","type":"uint256"}],"stateMutability":"view","type":"function"}],"evm":{"bytecode":{"linkReferences":{},"object":"60806040523480156200001157600080fd5b506200001d3362000031565b600180556200002b62000081565b62000772565b600080546001600160a01b038381166001600160a01b0319831681178455604051919092169283917f8be0079c531659141344cd1fd0a4f28419497f9722a3daafe3b4186f6b6457e09190a35050565b6040518060c001604052806040518060400160405280601881526020017f5472616e73616374696f6e2041757468656e746963697479000000000000000081525081526020016040518060800160405280604181526020016200291660419139815260200161012c8152602001600115158152602001600081526020016000815250600260405162000136907f7472616e73616374696f6e5f61757468656e7469636974790000000000000000815260180190565b90815260405190819003602001902081518190620001559082620006a6565b50602082015160018201906200016c9082620006a6565b506040820151816002015560608201518160030160006101000a81548160ff0219169083151502179055506080820151816004015560a082015181600501559050506040518060c001604052806040518060400160405280601681526020017f56616c7565205472616e736665722050617261646f780000000000000000000081525081526020016040518060600160405280603981526020016200295760399139815260200160fa8152602001600115158152602001600081526020016000815250600260405162000253906d3b30b63ab2afba3930b739b332b960911b8152600e0190565b90815260405190819003602001902081518190620002729082620006a6565b5060208201516001820190620002899082620006a6565b506040820151816002015560608201518160030160006101000a81548160ff0219169083151502179055506080820151816004015560a082015181600501559050506040518060c001604052806040518060400160405280601081526020016f496d6d757461626c65204368616e676560801b8152508152602001604051806080016040528060418152602001620029cc6041913981526020016101908152602001600115158152602001600081526020016000815250600260405162000366906f696d6d757461626c655f6368616e676560801b815260100190565b90815260405190819003602001902081518190620003859082620006a6565b50602082015160018201906200039c9082620006a6565b506040820151816002015560608201518160030160006101000a81548160ff0219169083151502179055506080820151816004015560a082015181600501559050506040518060c0016040528060405180604001604052806011815260200170436f6e73656e737573205265616c69747960781b815250815260200160405180606001604052806039815260200162002a0d6039913981526020016101f4815260200160011515815260200160008152602001600081525060026040516200047b9070636f6e73656e7375735f7265616c69747960781b815260110190565b908152604051908190036020019020815181906200049a9082620006a6565b5060208201516001820190620004b19082620006a6565b506040820151816002015560608201518160030160006101000a81548160ff0219169083151502179055506080820151816004015560a082015181600501559050506040518060c001604052806040518060400160405280601181526020017004469676974616c204f776e65727368697607c1b81525081526020016040518060600160405280603c815260200162002990603c9139815260200161015e8152602001600115158152602001600081526020016000815250600260405162000590907006469676974616c5f6f776e65727368697607c1b815260110190565b90815260405190819003602001902081518190620005af9082620006a6565b5060208201516001820190620005c69082620006a6565b5060408201516002820155606082015160038201805460ff19169115159190911790556080820151600482015560a090910151600590910155565b634e487b7160e01b600052604160045260246000fd5b600181811c908216806200062c57607f821691505b6020821081036200064d57634e487b7160e01b600052602260045260246000fd5b50919050565b601f821115620006a157600081815260208120601f850160051c810160208610156200067c5750805b601f850160051c820191505b818110156200069d5782815560010162000688565b5050505b505050565b81516001600160401b03811115620006c257620006c262000601565b620006da81620006d3845462000617565b8462000653565b602080601f831160018114620007125760008415620006f95750858301515b600019600386901b1c1916600185901b1785556200069d565b600085815260208120601f198616915b82811015620007435788860151825594840194600190910190840162000722565b5085821015620007625787850151600019600388901b60f8161c191681555b5050505050600190811b01905550565b61219480620007826000396000f3fe608060405234801561001057600080fd5b50600436106101375760003560e01c8063a843651e116100b8578063e22b093e1161007c578063e22b093e146102b8578063e8e025ae146102cd578063eb86a6aa146102e0578063f2fde38b146102f3578063f93b2af314610306578063fc9151671461031957600080fd5b8063a843651e1461025c578063b76d4fc314610265578063bfe750e11461027a578063d8844a481461028d578063dfe6b5d6146102ad57600080fd5b80636a1a9249116100ff5780636a1a9249146101f4578063715018a6146101fc57806378946ae7146102045780638da5cb5b14610224578063919ad7621461024957600080fd5b806302bde0ca1461013c578063243e7a8714610151578063309066011461017f5780634e43603a146101965780635a4161ff146101e1575b600080fd5b61014f61014a366004611af2565b61033e565b005b61016461015f366004611b14565b610368565b60405161017696959493929190611b7d565b60405180910390f35b61018860085481565b604051908152602001610176565b6101cc6101a4366004611af2565b6001600160a01b03166000908152600360209081526040808320546004909252909120549091565b60408051928352602083019190915201610176565b61014f6101ef366004611bc4565b610448565b610188601e81565b61014f610619565b610188610212366004611af2565b60046020526000908152604090205481565b6000546001600160a01b03165b6040516001600160a01b039091168152602001610176565b61014f610257366004611c37565b61062d565b61018860075481565b61026d61080d565b6040516101769190611c79565b61014f610288366004611c37565b610947565b61018861029b366004611af2565b60036020526000908152604090205481565b6007546008546101cc565b6102c0610a55565b6040516101769190611d25565b61014f6102db366004611c37565b610bf8565b61014f6102ee366004611d87565b610d21565b61014f610301366004611af2565b610f09565b600654610231906001600160a01b031681565b61032c610327366004611e11565b610f82565b60405161017696959493929190611ec2565b6103466110d6565b600680546001600160a01b0319166001600160a01b0392909216919091179055565b6005818154811061037857600080fd5b60009182526020909120600690910201805460018201546002830180546001600160a01b0390931694509092916103ae90611f0d565b80601f01602080910402602001604051908101604052809291908181526020018280546103da90611f0d565b80156104275780601f106103fc57610100808354040283529160200191610427565b820191906000526020600020905b81548152906001019060200180831161040a57829003601f168201915b50505050600383015460048401546005909401549293909290915060ff1686565b610450611130565b6001600160a01b03821661049f5760405162461bcd60e51b8152602060048201526011602482015270125b9d985b1a59081c9958da5c1a595b9d607a1b60448201526064015b60405180910390fd5b600081116104e05760405162461bcd60e51b815260206004820152600e60248201526d125b9d985b1a5908185b5bdd5b9d60921b6044820152606401610496565b60005a33600090815260036020526040812080549293509061050183611f5d565b9091555050336000908152600460205260408120429055600780549161052683611f5d565b919050555061055a6040518060400160405280600e81526020016d3b30b63ab2afba3930b739b332b960911b815250611189565b600061056861012c84611f76565b6105739060c8611f98565b905060005a6105829084611fab565b90506105b7336040518060400160405280600d81526020016c7472616e7366657256616c756560981b8152508484600161124b565b604080516060808252600d908201526c7472616e7366657256616c756560981b6080820152602081018490524291810191909152339060008051602061213f8339815191529060a0015b60405180910390a250505061061560018055565b5050565b6106216110d6565b61062b6000611365565b565b610635611130565b3360009081526004602052604090205461065190601e90611f98565b4210156106a05760405162461bcd60e51b815260206004820152601860248201527f496e746572616374696f6e20746f6f206672657175656e7400000000000000006044820152606401610496565b60005a3360009081526003602052604081208054929350906106c183611f5d565b909155505033600090815260046020526040812042905560078054916106e683611f5d565b9190505550600061072e84848080601f0160208091040260200160405190810160405280939291908181526020018383808284376000920191909152503392506113b5915050565b905061076f84848080601f01602080910402602001604051908101604052809392919081815260200183838082843760009201919091525061143e92505050565b60005a61077c9084611fab565b90506107b8336040518060400160405280601481526020017374726967676572436f6e7363696f75736e65737360601b8152508484600161124b565b6040805160608082526014908201527374726967676572436f6e7363696f75736e65737360601b6080820152602081018490524291810191909152339060008051602061213f8339815191529060a001610601565b60606005805480602002602001604051908101604052809291908181526020016000905b8282101561093e5760008481526020908190206040805160c0810182526006860290920180546001600160a01b031683526001810154938301939093526002830180549293929184019161088490611f0d565b80601f01602080910402602001604051908101604052809291908181526020018280546108b090611f0d565b80156108fd5780601f106108d2576101008083540402835291602001916108fd565b820191906000526020600020905b8154815290600101906020018083116108e057829003601f168201915b505050918352505060038201546020808301919091526004830154604083015260059092015460ff1615156060909101529082526001929092019101610831565b50505050905090565b60005a905061097d6040518060400160405280601081526020016f696d6d757461626c655f6368616e676560801b815250611189565b600061098a60c842611f76565b610995906096611f98565b905060005a6109a49084611fab565b90506109e93386868080601f0160208091040260200160405190810160405280939291908181526020018383808284376000920182905250889350879250905061124b565b604080516060808252600f908201526e73696d756c6174654661696c75726560881b60808201526020810184905242818301529051339160008051602061213f833981519152919081900360a00190a2848460405162461bcd60e51b8152600401610496929190611fbe565b60408051600580825260c0820190925260609160009190816020015b6060815260200190600190039081610a71579050509050604051806040016040528060188152602001777472616e73616374696f6e5f61757468656e74696369747960401b81525081600081518110610acc57610acc611fed565b60200260200101819052506040518060400160405280600e81526020016d3b30b63ab2afba3930b739b332b960911b81525081600181518110610b1157610b11611fed565b60200260200101819052506040518060400160405280601081526020016f696d6d757461626c655f6368616e676560801b81525081600281518110610b5857610b58611fed565b602002602001018190525060405180604001604052806011815260200170636f6e73656e7375735f7265616c69747960781b81525081600381518110610ba057610ba0611fed565b60200260200101819052506040518060400160405280601181526020017006469676974616c5f6f776e65727368697607c1b81525081600481518110610be857610be8611fed565b6020908102919091010152919050565b60028282604051610c0a929190612003565b9081526040519081900360200190206003015460ff16610c615760405162461bcd60e51b815260206004820152601260248201527150617261646f78206e6f742061637469766560701b6044820152606401610496565b610ca082828080601f01602080910402602001604051908101604052809392919081815260200183838082843760009201919091525061118992505050565b336001600160a01b031660008051602061213f83398151915260028484604051610ccb929190612003565b908152604080519182900360209081018320600201546060808552601490850152730dac2dceac2d8a8e4d2cececae4a0c2e4c2c8def60631b608085015290830152429082015260a00160405180910390a25050565b610d296110d6565b6103e8811115610d7b5760405162461bcd60e51b815260206004820152601960248201527f496e74656e73697479206d757374206265203c3d2031303030000000000000006044820152606401610496565b60028585604051610d8d929190612003565b9081526040519081900360200190206003015460ff1615610de95760405162461bcd60e51b815260206004820152601660248201527550617261646f7820616c72656164792065786973747360501b6044820152606401610496565b6040518060c0016040528086868080601f016020809104026020016040519081016040528093929190818152602001838380828437600092019190915250505090825250604080516020601f87018190048102820181019092528581529181019190869086908190840183828082843760009201829052509385525050506020820184905260016040808401919091526060830182905260809092015251600290610e979088908890612003565b90815260405190819003602001902081518190610eb49082612062565b5060208201516001820190610ec99082612062565b5060408201516002820155606082015160038201805460ff19169115159190911790556080820151600482015560a0909101516005909101555050505050565b610f116110d6565b6001600160a01b038116610f765760405162461bcd60e51b815260206004820152602660248201527f4f776e61626c653a206e6577206f776e657220697320746865207a65726f206160448201526564647265737360d01b6064820152608401610496565b610f7f81611365565b50565b8051602081830181018051600282529282019190930120915280548190610fa890611f0d565b80601f0160208091040260200160405190810160405280929190818152602001828054610fd490611f0d565b80156110215780601f10610ff657610100808354040283529160200191611021565b820191906000526020600020905b81548152906001019060200180831161100457829003601f168201915b50505050509080600101805461103690611f0d565b80601f016020809104026020016040519081016040528092919081815260200182805461106290611f0d565b80156110af5780601f10611084576101008083540402835291602001916110af565b820191906000526020600020905b81548152906001019060200180831161109257829003601f168201915b505050506002830154600384015460048501546005909501549394919360ff909116925086565b6000546001600160a01b0316331461062b5760405162461bcd60e51b815260206004820181905260248201527f4f776e61626c653a2063616c6c6572206973206e6f7420746865206f776e65726044820152606401610496565b6002600154036111825760405162461bcd60e51b815260206004820152601f60248201527f5265656e7472616e637947756172643a207265656e7472616e742063616c6c006044820152606401610496565b6002600155565b600060028260405161119b9190612122565b908152604051908190036020019020600381015490915060ff166111bd575050565b6004810180549060006111cf83611f5d565b9091555050426005820155600880549060006111ea83611f5d565b909155505060405133906111ff908490612122565b6040805191829003822060028501548352426020840152917f684264b4a8cb8cc758ca3156278d74a7b21a12f91b564934fe5c0a48ad7aea9a910160405180910390a36106158261170e565b6040805160c0810182526001600160a01b0387811682524260208301908152928201878152606083018790526080830186905284151560a08401526005805460018101825560009190915283517f036b6384b5eca791c62761152d0c79bb0604c104a5fb6f4eb0703f3154bb3db0600690920291820180546001600160a01b0319169190941617835593517f036b6384b5eca791c62761152d0c79bb0604c104a5fb6f4eb0703f3154bb3db185015551919283927f036b6384b5eca791c62761152d0c79bb0604c104a5fb6f4eb0703f3154bb3db29091019061132e9082612062565b50606082015160038201556080820151600482015560a0909101516005909101805460ff1916911515919091179055505050505050565b600080546001600160a01b038381166001600160a01b0319831681178455604051919092169283917f8be0079c531659141344cd1fd0a4f28419497f9722a3daafe3b4186f6b6457e09190a35050565b60008060649050600060c885516113cc9190611f76565b6001600160a01b038516600090815260036020526040812054919250906113f590606490611f76565b9050600060966114054442611f98565b61140f9190611f76565b9050808261141d8587611f98565b6114279190611f98565b6114319190611f98565b9450505050505b92915050565b600081905061146e816040518060400160405280600981526020016861757468656e74696360b81b8152506119fc565b8061149a575061149a81604051806040016040528060048152602001631c99585b60e21b8152506119fc565b156114d8576114d8604051806040016040528060188152602001777472616e73616374696f6e5f61757468656e74696369747960401b815250611189565b6114ff816040518060400160405280600581526020016476616c756560d81b8152506119fc565b8061152c575061152c81604051806040016040528060058152602001640eedee4e8d60db1b8152506119fc565b15611560576115606040518060400160405280600e81526020016d3b30b63ab2afba3930b739b332b960911b815250611189565b611585816040518060400160405280600381526020016237bbb760e91b8152506119fc565b806115b657506115b6816040518060400160405280600981526020016806f776e6572736869760bc1b8152506119fc565b156115ed576115ed6040518060400160405280601181526020017006469676974616c5f6f776e65727368697607c1b815250611189565b6116188160405180604001604052806009815260200168636f6e73656e73757360b81b8152506119fc565b8061164557506116458160405180604001604052806005815260200164616772656560d81b8152506119fc565b1561167c5761167c60405180604001604052806011815260200170636f6e73656e7375735f7265616c69747960781b815250611189565b6116a781604051806040016040528060098152602001681c195c9b585b995b9d60ba1b8152506119fc565b806116d857506116d88160405180604001604052806009815260200168696d6d757461626c6560b81b8152506119fc565b15610615576106156040518060400160405280601081526020016f696d6d757461626c655f6368616e676560801b815250611189565b6040805180820190915260188152777472616e73616374696f6e5f61757468656e74696369747960401b6020918201528151908201207f76957360fee0e83d6e94f8d30b88d21f1859d89ae935be8bce2e35e8d55df071016118875761012c6002604051611793907006469676974616c5f6f776e65727368697607c1b815260110190565b908152602001604051809103902060050154426117b09190611fab565b101561188757604080516060808252601b908201527f61757468656e7469635f6469676974616c5f6578697374656e63650000000000608082015260a0602082018190526044908201527f54686520696d706f73736962696c697479206f662061757468656e746963206560c08201527f78697374656e636520696e206469676974616c206f776e65727368697020737060e0820152636163657360e01b610100820152428183015290517f5fd312b1f7c58ee2b413d4d4788462500dcfcefe25b98861a07f9c2eeea14700918190036101200190a15b604080518082019091526011815270636f6e73656e7375735f7265616c69747960781b6020918201528151908201207f903ab91beabdb108cf08a0d3a6eb68f673127971a6a5945921483f9a88f0404701610f7f5761012c6002604051611904906f696d6d757461626c655f6368616e676560801b815260100190565b908152602001604051809103902060050154426119219190611fab565b1015610f7f57604080516060808252601e908201527f636f6e73656e7375735f696d6d75746162696c6974795f70617261646f780000608082015260a0602082018190526046908201527f436f6e73656e737573206372656174657320696d6d757461626c65207472757460c08201527f682074686174206368616e67657320776974682065616368206e657720636f6e60e08201526573656e73757360d01b610100820152428183015290517f5fd312b1f7c58ee2b413d4d4788462500dcfcefe25b98861a07f9c2eeea14700918190036101200190a150565b8151815160009183911115611a15576000915050611438565b60005b81518551611a269190611fab565b8111611acb57600160005b8351811015611aa557838181518110611a4c57611a4c611fed565b01602001516001600160f81b03191687611a668386611f98565b81518110611a7657611a76611fed565b01602001516001600160f81b03191614611a935760009150611aa5565b80611a9d81611f5d565b915050611a31565b508015611ab85760019350505050611438565b5080611ac381611f5d565b915050611a18565b506000949350505050565b80356001600160a01b0381168114611aed57600080fd5b919050565b600060208284031215611b0457600080fd5b611b0d82611ad6565b9392505050565b600060208284031215611b2657600080fd5b5035919050565b60005b83811015611b48578181015183820152602001611b30565b50506000910152565b60008151808452611b69816020860160208601611b2d565b601f01601f19169290920160200192915050565b60018060a01b038716815285602082015260c060408201526000611ba460c0830187611b51565b6060830195909552506080810192909252151560a0909101529392505050565b60008060408385031215611bd757600080fd5b611be083611ad6565b946020939093013593505050565b60008083601f840112611c0057600080fd5b50813567ffffffffffffffff811115611c1857600080fd5b602083019150836020828501011115611c3057600080fd5b9250929050565b60008060208385031215611c4a57600080fd5b823567ffffffffffffffff811115611c6157600080fd5b611c6d85828601611bee565b90969095509350505050565b60006020808301818452808551808352604092508286019150828160051b87010184880160005b83811015611d1757888303603f19018552815180516001600160a01b0316845287810151888501528681015160c088860181905290611ce182870182611b51565b606084810151908801526080808501519088015260a0938401511515939096019290925250509386019390860190600101611ca0565b509098975050505050505050565b6000602080830181845280855180835260408601915060408160051b870101925083870160005b82811015611d7a57603f19888603018452611d68858351611b51565b94509285019290850190600101611d4c565b5092979650505050505050565b600080600080600060608688031215611d9f57600080fd5b853567ffffffffffffffff80821115611db757600080fd5b611dc389838a01611bee565b90975095506020880135915080821115611ddc57600080fd5b50611de988828901611bee565b96999598509660400135949350505050565b634e487b7160e01b600052604160045260246000fd5b600060208284031215611e2357600080fd5b813567ffffffffffffffff80821115611e3b57600080fd5b818401915084601f830112611e4f57600080fd5b813581811115611e6157611e61611dfb565b604051601f8201601f19908116603f01168101908382118183101715611e8957611e89611dfb565b81604052828152876020848701011115611ea257600080fd5b826020860160208301376000928101602001929092525095945050505050565b60c081526000611ed560c0830189611b51565b8281036020840152611ee78189611b51565b604084019790975250509215156060840152608083019190915260a09091015292915050565b600181811c90821680611f2157607f821691505b602082108103611f4157634e487b7160e01b600052602260045260246000fd5b50919050565b634e487b7160e01b600052601160045260246000fd5b600060018201611f6f57611f6f611f47565b5060010190565b600082611f9357634e487b7160e01b600052601260045260246000fd5b500690565b8082018082111561143857611438611f47565b8181038181111561143857611438611f47565b60208152816020820152818360408301376000818301604090810191909152601f909201601f19160101919050565b634e487b7160e01b600052603260045260246000fd5b8183823760009101908152919050565b601f82111561205d57600081815260208120601f850160051c8101602086101561203a5750805b601f850160051c820191505b8181101561205957828155600101612046565b5050505b505050565b815167ffffffffffffffff81111561207c5761207c611dfb565b6120908161208a8454611f0d565b84612013565b602080601f8311600181146120c557600084156120ad5750858301515b600019600386901b1c1916600185901b178555612059565b600085815260208120601f198616915b828110156120f4578886015182559484019460019091019084016120d5565b50858210156121125787850151600019600388901b60f8161c191681555b5050505050600190811b01905550565b60008251612134818460208701611b2d565b919091019291505056fe2a3f5fabca54075e22a90ed24fa42142dd0bbbec347182bde1de1d9de5d65564a26469706673582212208e6f8472a24eb0764fec1bb69cccd899b588448a445d9677350d4ebe0268eb8164736f6c634300081300334973206120626c6f636b636861696e207472616e73616374696f6e206d6f726520277265616c27207468616e20616e206f66662d636861696e20616374696f6e3f576861742069732076616c75653f204e756d6265727320696e2061206461746162617365206f7220736f6369616c20636f6e73656e7375733f43616e20796f75207472756c79206f776e20736f6d657468696e67207468617420657869737473206f6e6c7920617320696e666f726d6174696f6e3f426c6f636b636861696e20697320696d6d757461626c652c20796574207374617465206368616e6765732077697468206576657279207472616e73616374696f6e446f6573206d616a6f7269747920636f6e73656e73757320637265617465207472757468206f72206d6572656c792061677265656d656e743f","opcodes":"PUSH1 0x80 PUSH1 0x40 MSTORE CALLVALUE DUP1 ISZERO PUSH3 0x11 JUMPI PUSH1 0x0 DUP1 REVERT JUMPDEST POP PUSH3 0x1D CALLER PUSH3 0x31 JUMP JUMPDEST PUSH1 0x1 DUP1 SSTORE PUSH3 0x2B PUSH3 0x81 JUMP JUMPDEST PUSH3 0x772 JUMP JUMPDEST PUSH1 0x0 DUP1 SLOAD PUSH1 0x1 PUSH1 0x1 PUSH1 0xA0 SHL SUB DUP4 DUP2 AND PUSH1 0x1 PUSH1 0x1 PUSH1 0xA0 SHL SUB NOT DUP4 AND DUP2 OR DUP5 SSTORE PUSH1 0x40 MLOAD SWAP2 SWAP1 SWAP3 AND SWAP3 DUP4 SWAP2 PUSH32 0x8BE0079C531659141344CD1FD0A4F28419497F9722A3DAAFE3B4186F6B6457E0 SWAP2 SWAP1 LOG3 POP POP JUMP JUMPDEST PUSH1 0x40 MLOAD DUP1 PUSH1 0xC0 ADD PUSH1 0x40 MSTORE DUP1 PUSH1 0x40 MLOAD DUP1 PUSH1 0x40 ADD PUSH1 0x40 MSTORE DUP1 PUSH1 0x18 DUP2 MSTORE PUSH1 0x20 ADD PUSH32 0x5472616E73616374696F6E2041757468656E7469636974790000000000000000 DUP2 MSTORE POP DUP2 MSTORE PUSH1 0x20 ADD PUSH1 0x40 MLOAD DUP1 PUSH1 0x80 ADD PUSH1 0x40 MSTORE DUP1 PUSH1 0x41 DUP2 MSTORE PUSH1 0x20 ADD PUSH3 0x2916 PUSH1 0x41 SWAP2 CODECOPY DUP2 MSTORE PUSH1 0x20 ADD PUSH2 0x12C DUP2 MSTORE PUSH1 0x20 ADD PUSH1 0x1 ISZERO ISZERO DUP2 MSTORE PUSH1 0x20 ADD PUSH1 0x0 DUP2 MSTORE PUSH1 0x20 ADD PUSH1 0x0 DUP2 MSTORE POP PUSH1 0x2 PUSH1 0x40 MLOAD PUSH3 0x136 SWAP1 PUSH32 0x7472616E73616374696F6E5F61757468656E7469636974790000000000000000 DUP2 MSTORE PUSH1 0x18 ADD SWAP1 JUMP JUMPDEST SWAP1 DUP2 MSTORE PUSH1 0x40 MLOAD SWAP1 DUP2 SWAP1 SUB PUSH1 0x20 ADD SWAP1 KECCAK256 DUP2 MLOAD DUP2 SWAP1 PUSH3 0x155 SWAP1 DUP3 PUSH3 0x6A6 JUMP JUMPDEST POP PUSH1 0x20 DUP3 ADD MLOAD PUSH1 0x1 DUP3 ADD SWAP1 PUSH3 0x16C SWAP1 DUP3 PUSH3 0x6A6 JUMP JUMPDEST POP PUSH1 0x40 DUP3 ADD MLOAD DUP2 PUSH1 0x2 ADD SSTORE PUSH1 0x60 DUP3 ADD MLOAD DUP2 PUSH1 0x3 ADD PUSH1 0x0 PUSH2 0x100 EXP DUP2 SLOAD DUP2 PUSH1 0xFF MUL NOT AND SWAP1 DUP4 ISZERO ISZERO MUL OR SWAP1 SSTORE POP PUSH1 0x80 DUP3 ADD MLOAD DUP2 PUSH1 0x4 ADD SSTORE PUSH1 0xA0 DUP3 ADD MLOAD DUP2 PUSH1 0x5 ADD SSTORE SWAP1 POP POP PUSH1 0x40 MLOAD DUP1 PUSH1 0xC0 ADD PUSH1 0x40 MSTORE DUP1 PUSH1 0x40 MLOAD DUP1 PUSH1 0x40 ADD PUSH1 0x40 MSTORE DUP1 PUSH1 0x16 DUP2 MSTORE PUSH1 0x20 ADD PUSH32 0x56616C7565205472616E736665722050617261646F7800000000000000000000 DUP2 MSTORE POP DUP2 MSTORE PUSH1 0x20 ADD PUSH1 0x40 MLOAD DUP1 PUSH1 0x60 ADD PUSH1 0x40 MSTORE DUP1 PUSH1 0x39 DUP2 MSTORE PUSH1 0x20 ADD PUSH3 0x2957 PUSH1 0x39 SWAP2 CODECOPY DUP2 MSTORE PUSH1 0x20 ADD PUSH1 0xFA DUP2 MSTORE PUSH1 0x20 ADD PUSH1 0x1 ISZERO ISZERO DUP2 MSTORE PUSH1 0x20 ADD PUSH1 0x0 DUP2 MSTORE PUSH1 0x20 ADD PUSH1 0x0 DUP2 MSTORE POP PUSH1 0x2 PUSH1 0x40 MLOAD PUSH3 0x253 SWAP1 PUSH14 0x3B30B63AB2AFBA3930B739B332B9 PUSH1 0x91 SHL DUP2 MSTORE PUSH1 0xE ADD SWAP1 JUMP JUMPDEST SWAP1 DUP2 MSTORE PUSH1 0x40 MLOAD SWAP1 DUP2 SWAP1 SUB PUSH1 0x20 ADD SWAP1 KECCAK256 DUP2 MLOAD DUP2 SWAP1 PUSH3 0x272 SWAP1 DUP3 PUSH3 0x6A6 JUMP JUMPDEST POP PUSH1 0x20 DUP3 ADD MLOAD PUSH1 0x1 DUP3 ADD SWAP1 PUSH3 0x289 SWAP1 DUP3 PUSH3 0x6A6 JUMP JUMPDEST POP PUSH1 0x40 DUP3 ADD MLOAD DUP2 PUSH1 0x2 ADD SSTORE PUSH1 0x60 DUP3 ADD MLOAD DUP2 PUSH1 0x3 ADD PUSH1 0x0 PUSH2 0x100 EXP DUP2 SLOAD DUP2 PUSH1 0xFF MUL NOT AND SWAP1 DUP4 ISZERO ISZERO MUL OR SWAP1 SSTORE POP PUSH1 0x80 DUP3 ADD MLOAD DUP2 PUSH1 0x4 ADD SSTORE PUSH1 0xA0 DUP3 ADD MLOAD DUP2 PUSH1 0x5 ADD SSTORE SWAP1 POP POP PUSH1 0x40 MLOAD DUP1 PUSH1 0xC0 ADD PUSH1 0x40 MSTORE DUP1 PUSH1 0x40 MLOAD DUP1 PUSH1 0x40 ADD PUSH1 0x40 MSTORE DUP1 PUSH1 0x10 DUP2 MSTORE PUSH1 0x20 ADD PUSH16 0x496D6D757461626C65204368616E6765 PUSH1 0x80 SHL DUP2 MSTORE POP DUP2 MSTORE PUSH1 0x20 ADD PUSH1 0x40 MLOAD DUP1 PUSH1 0x80 ADD PUSH1 0x40 MSTORE DUP1 PUSH1 0x41 DUP2 MSTORE PUSH1 0x20 ADD PUSH3 0x29CC PUSH1 0x41 SWAP2 CODECOPY DUP2 MSTORE PUSH1 0x20 ADD PUSH2 0x190 DUP2 MSTORE PUSH1 0x20 ADD PUSH1 0x1 ISZERO ISZERO DUP2 MSTORE PUSH1 0x20 ADD PUSH1 0x0 DUP2 MSTORE PUSH1 0x20 ADD PUSH1 0x0 DUP2 MSTORE POP PUSH1 0x2 PUSH1 0x40 MLOAD PUSH3 0x366 SWAP1 PUSH16 0x696D6D757461626C655F6368616E6765 PUSH1 0x80 SHL DUP2 MSTORE PUSH1 0x10 ADD SWAP1 JUMP JUMPDEST SWAP1 DUP2 MSTORE PUSH1 0x40 MLOAD SWAP1 DUP2 SWAP1 SUB PUSH1 0x20 ADD SWAP1 KECCAK256 DUP2 MLOAD DUP2 SWAP1 PUSH3 0x385 SWAP1 DUP3 PUSH3 0x6A6 JUMP JUMPDEST POP PUSH1 0x20 DUP3 ADD MLOAD PUSH1 0x1 DUP3 ADD SWAP1 PUSH3 0x39C SWAP1 DUP3 PUSH3 0x6A6 JUMP JUMPDEST POP PUSH1 0x40 DUP3 ADD MLOAD DUP2 PUSH1 0x2 ADD SSTORE PUSH1 0x60 DUP3 ADD MLOAD DUP2 PUSH1 0x3 ADD PUSH1 0x0 PUSH2 0x100 EXP DUP2 SLOAD DUP2 PUSH1 0xFF MUL NOT AND SWAP1 DUP4 ISZERO ISZERO MUL OR SWAP1 SSTORE POP PUSH1 0x80 DUP3 ADD MLOAD DUP2 PUSH1 0x4 ADD SSTORE PUSH1 0xA0 DUP3 ADD MLOAD DUP2 PUSH1 0x5 ADD SSTORE SWAP1 POP POP PUSH1 0x40 MLOAD DUP1 PUSH1 0xC0 ADD PUSH1 0x40 MSTORE DUP1 PUSH1 0x40 MLOAD DUP1 PUSH1 0x40 ADD PUSH1 0x40 MSTORE DUP1 PUSH1 0x11 DUP2 MSTORE PUSH1 0x20 ADD PUSH17 0x436F6E73656E737573205265616C697479 PUSH1 0x78 SHL DUP2 MSTORE POP DUP2 MSTORE PUSH1 0x20 ADD PUSH1 0x40 MLOAD DUP1 PUSH1 0x60 ADD PUSH1 0x40 MSTORE DUP1 PUSH1 0x39 DUP2 MSTORE PUSH1 0x20 ADD PUSH3 0x2A0D PUSH1 0x39 SWAP2 CODECOPY DUP2 MSTORE PUSH1 0x20 ADD PUSH2 0x1F4 DUP2 MSTORE PUSH1 0x20 ADD PUSH1 0x1 ISZERO ISZERO DUP2 MSTORE PUSH1 0x20 ADD PUSH1 0x0 DUP2 MSTORE PUSH1 0x20 ADD PUSH1 0x0 DUP2 MSTORE POP PUSH1 0x2 PUSH1 0x40 MLOAD PUSH3 0x47B SWAP1 PUSH17 0x636F6E73656E7375735F7265616C697479 PUSH1 0x78 SHL DUP2 MSTORE PUSH1 0x11 ADD SWAP1 JUMP JUMPDEST SWAP1 DUP2 MSTORE PUSH1 0x40 MLOAD SWAP1 DUP2 SWAP1 SUB PUSH1 0x20 ADD SWAP1 KECCAK256 DUP2 MLOAD DUP2 SWAP1 PUSH3 0x49A SWAP1 DUP3 PUSH3 0x6A6 JUMP JUMPDEST POP PUSH1 0x20 DUP3 ADD MLOAD PUSH1 0x1 DUP3 ADD SWAP1 PUSH3 0x4B1 SWAP1 DUP3 PUSH3 0x6A6 JUMP JUMPDEST POP PUSH1 0x40 DUP3 ADD MLOAD DUP2 PUSH1 0x2 ADD SSTORE PUSH1 0x60 DUP3 ADD MLOAD DUP2 PUSH1 0x3 ADD PUSH1 0x0 PUSH2 0x100 EXP DUP2 SLOAD DUP2 PUSH1 0xFF MUL NOT AND SWAP1 DUP4 ISZERO ISZERO MUL OR SWAP1 SSTORE POP PUSH1 0x80 DUP3 ADD MLOAD DUP2 PUSH1 0x4 ADD SSTORE PUSH1 0xA0 DUP3 ADD MLOAD DUP2 PUSH1 0x5 ADD SSTORE SWAP1 POP POP PUSH1 0x40 MLOAD DUP1 PUSH1 0xC0 ADD PUSH1 0x40 MSTORE DUP1 PUSH1 0x40 MLOAD DUP1 PUSH1 0x40 ADD PUSH1 0x40 MSTORE DUP1 PUSH1 0x11 DUP2 MSTORE PUSH1 0x20 ADD PUSH17 0x4469676974616C204F776E65727368697 PUSH1 0x7C SHL DUP2 MSTORE POP DUP2 MSTORE PUSH1 0x20 ADD PUSH1 0x40 MLOAD DUP1 PUSH1 0x60 ADD PUSH1 0x40 MSTORE DUP1 PUSH1 0x3C DUP2 MSTORE PUSH1 0x20 ADD PUSH3 0x2990 PUSH1 0x3C SWAP2 CODECOPY DUP2 MSTORE PUSH1 0x20 ADD PUSH2 0x15E DUP2 MSTORE PUSH1 0x20 ADD PUSH1 0x1 ISZERO ISZERO DUP2 MSTORE PUSH1 0x20 ADD PUSH1 0x0 DUP2 MSTORE PUSH1 0x20 ADD PUSH1 0x0 DUP2 MSTORE POP PUSH1 0x2 PUSH1 0x40 MLOAD PUSH3 0x590 SWAP1 PUSH17 0x6469676974616C5F6F776E65727368697 PUSH1 0x7C SHL DUP2 MSTORE PUSH1 0x11 ADD SWAP1 JUMP JUMPDEST SWAP1 DUP2 MSTORE PUSH1 0x40 MLOAD SWAP1 DUP2 SWAP1 SUB PUSH1 0x20 ADD SWAP1 KECCAK256 DUP2 MLOAD DUP2 SWAP1 PUSH3 0x5AF SWAP1 DUP3 PUSH3 0x6A6 JUMP JUMPDEST POP PUSH1 0x20 DUP3 ADD MLOAD PUSH1 0x1 DUP3 ADD SWAP1 PUSH3 0x5C6 SWAP1 DUP3 PUSH3 0x6A6 JUMP JUMPDEST POP PUSH1 0x40 DUP3 ADD MLOAD PUSH1 0x2 DUP3 ADD SSTORE PUSH1 0x60 DUP3 ADD MLOAD PUSH1 0x3 DUP3 ADD DUP1 SLOAD PUSH1 0xFF NOT AND SWAP2 ISZERO ISZERO SWAP2 SWAP1 SWAP2 OR SWAP1 SSTORE PUSH1 0x80 DUP3 ADD MLOAD PUSH1 0x4 DUP3 ADD SSTORE PUSH1 0xA0 SWAP1 SWAP2 ADD MLOAD PUSH1 0x5 SWAP1 SWAP2 ADD SSTORE JUMP JUMPDEST PUSH4 0x4E487B71 PUSH1 0xE0 SHL PUSH1 0x0 MSTORE PUSH1 0x41 PUSH1 0x4 MSTORE PUSH1 0x24 PUSH1 0x0 REVERT JUMPDEST PUSH1 0x1 DUP2 DUP2 SHR SWAP1 DUP3 AND DUP1 PUSH3 0x62C JUMPI PUSH1 0x7F DUP3 AND SWAP2 POP JUMPDEST PUSH1 0x20 DUP3 LT DUP2 SUB PUSH3 0x64D JUMPI PUSH4 0x4E487B71 PUSH1 0xE0 SHL PUSH1 0x0 MSTORE PUSH1 0x22 PUSH1 0x4 MSTORE PUSH1 0x24 PUSH1 0x0 REVERT JUMPDEST POP SWAP2 SWAP1 POP JUMP JUMPDEST PUSH1 0x1F DUP3 GT ISZERO PUSH3 0x6A1 JUMPI PUSH1 0x0 DUP2 DUP2 MSTORE PUSH1 0x20 DUP2 KECCAK256 PUSH1 0x1F DUP6 ADD PUSH1 0x5 SHR DUP2 ADD PUSH1 0x20 DUP7 LT ISZERO PUSH3 0x67C JUMPI POP DUP1 JUMPDEST PUSH1 0x1F DUP6 ADD PUSH1 0x5 SHR DUP3 ADD SWAP2 POP JUMPDEST DUP2 DUP2 LT ISZERO PUSH3 0x69D JUMPI DUP3 DUP2 SSTORE PUSH1 0x1 ADD PUSH3 0x688 JUMP JUMPDEST POP POP POP JUMPDEST POP POP POP JUMP JUMPDEST DUP2 MLOAD PUSH1 0x1 PUSH1 0x1 PUSH1 0x40 SHL SUB DUP2 GT ISZERO PUSH3 0x6C2 JUMPI PUSH3 0x6C2 PUSH3 0x601 JUMP JUMPDEST PUSH3 0x6DA DUP2 PUSH3 0x6D3 DUP5 SLOAD PUSH3 0x617 JUMP JUMPDEST DUP5 PUSH3 0x653 JUMP JUMPDEST PUSH1 0x20 DUP1 PUSH1 0x1F DUP4 GT PUSH1 0x1 DUP2 EQ PUSH3 0x712 JUMPI PUSH1 0x0 DUP5 ISZERO PUSH3 0x6F9 JUMPI POP DUP6 DUP4 ADD MLOAD JUMPDEST PUSH1 0x0 NOT PUSH1 0x3 DUP7 SWAP1 SHL SHR NOT AND PUSH1 0x1 DUP6 SWAP1 SHL OR DUP6 SSTORE PUSH3 0x69D JUMP JUMPDEST PUSH1 0x0 DUP6 DUP2 MSTORE PUSH1 0x20 DUP2 KECCAK256 PUSH1 0x1F NOT DUP7 AND SWAP2 JUMPDEST DUP3 DUP2 LT ISZERO PUSH3 0x743 JUMPI DUP9 DUP7 ADD MLOAD DUP3 SSTORE SWAP5 DUP5 ADD SWAP5 PUSH1 0x1 SWAP1 SWAP2 ADD SWAP1 DUP5 ADD PUSH3 0x722 JUMP JUMPDEST POP DUP6 DUP3 LT ISZERO PUSH3 0x762 JUMPI DUP8 DUP6 ADD MLOAD PUSH1 0x0 NOT PUSH1 0x3 DUP9 SWAP1 SHL PUSH1 0xF8 AND SHR NOT AND DUP2 SSTORE JUMPDEST POP POP POP POP POP PUSH1 0x1 SWAP1 DUP2 SHL ADD SWAP1 SSTORE POP JUMP JUMPDEST PUSH2 0x2194 DUP1 PUSH3 0x782 PUSH1 0x0 CODECOPY PUSH1 0x0 RETURN INVALID PUSH1 0x80 PUSH1 0x40 MSTORE CALLVALUE DUP1 ISZERO PUSH2 0x10 JUMPI PUSH1 0x0 DUP1 REVERT JUMPDEST POP PUSH1 0x4 CALLDATASIZE LT PUSH2 0x137 JUMPI PUSH1 0x0 CALLDATALOAD PUSH1 0xE0 SHR DUP1 PUSH4 0xA843651E GT PUSH2 0xB8 JUMPI DUP1 PUSH4 0xE22B093E GT PUSH2 0x7C JUMPI DUP1 PUSH4 0xE22B093E EQ PUSH2 0x2B8 JUMPI DUP1 PUSH4 0xE8E025AE EQ PUSH2 0x2CD JUMPI DUP1 PUSH4 0xEB86A6AA EQ PUSH2 0x2E0 JUMPI DUP1 PUSH4 0xF2FDE38B EQ PUSH2 0x2F3 JUMPI DUP1 PUSH4 0xF93B2AF3 EQ PUSH2 0x306 JUMPI DUP1 PUSH4 0xFC915167 EQ PUSH2 0x319 JUMPI PUSH1 0x0 DUP1 REVERT JUMPDEST DUP1 PUSH4 0xA843651E EQ PUSH2 0x25C JUMPI DUP1 PUSH4 0xB76D4FC3 EQ PUSH2 0x265 JUMPI DUP1 PUSH4 0xBFE750E1 EQ PUSH2 0x27A JUMPI DUP1 PUSH4 0xD8844A48 EQ PUSH2 0x28D JUMPI DUP1 PUSH4 0xDFE6B5D6 EQ PUSH2 0x2AD JUMPI PUSH1 0x0 DUP1 REVERT JUMPDEST DUP1 PUSH4 0x6A1A9249 GT PUSH2 0xFF JUMPI DUP1 PUSH4 0x6A1A9249 EQ PUSH2 0x1F4 JUMPI DUP1 PUSH4 0x715018A6 EQ PUSH2 0x1FC JUMPI DUP1 PUSH4 0x78946AE7 EQ PUSH2 0x204 JUMPI DUP1 PUSH4 0x8DA5CB5B EQ PUSH2 0x224 JUMPI DUP1 PUSH4 0x919AD762 EQ PUSH2 0x249 JUMPI PUSH1 0x0 DUP1 REVERT JUMPDEST DUP1 PUSH4 0x2BDE0CA EQ PUSH2 0x13C JUMPI DUP1 PUSH4 0x243E7A87 EQ PUSH2 0x151 JUMPI DUP1 PUSH4 0x30906601 EQ PUSH2 0x17F JUMPI DUP1 PUSH4 0x4E43603A EQ PUSH2 0x196 JUMPI DUP1 PUSH4 0x5A4161FF EQ PUSH2 0x1E1 JUMPI JUMPDEST PUSH1 0x0 DUP1 REVERT JUMPDEST PUSH2 0x14F PUSH2 0x14A CALLDATASIZE PUSH1 0x4 PUSH2 0x1AF2 JUMP JUMPDEST PUSH2 0x33E JUMP JUMPDEST STOP JUMPDEST PUSH2 0x164 PUSH2 0x15F CALLDATASIZE PUSH1 0x4 PUSH2 0x1B14 JUMP JUMPDEST PUSH2 0x368 JUMP JUMPDEST PUSH1 0x40 MLOAD PUSH2 0x176 SWAP7 SWAP6 SWAP5 SWAP4 SWAP3 SWAP2 SWAP1 PUSH2 0x1B7D JUMP JUMPDEST PUSH1 0x40 MLOAD DUP1 SWAP2 SUB SWAP1 RETURN JUMPDEST PUSH2 0x188 PUSH1 0x8 SLOAD DUP2 JUMP JUMPDEST PUSH1 0x40 MLOAD SWAP1 DUP2 MSTORE PUSH1 0x20 ADD PUSH2 0x176 JUMP JUMPDEST PUSH2 0x1CC PUSH2 0x1A4 CALLDATASIZE PUSH1 0x4 PUSH2 0x1AF2 JUMP JUMPDEST PUSH1 0x1 PUSH1 0x1 PUSH1 0xA0 SHL SUB AND PUSH1 0x0 SWAP1 DUP2 MSTORE PUSH1 0x3 PUSH1 0x20 SWAP1 DUP2 MSTORE PUSH1 0x40 DUP1 DUP4 KECCAK256 SLOAD PUSH1 0x4 SWAP1 SWAP3 MSTORE SWAP1 SWAP2 KECCAK256 SLOAD SWAP1 SWAP2 JUMP JUMPDEST PUSH1 0x40 DUP1 MLOAD SWAP3 DUP4 MSTORE PUSH1 0x20 DUP4 ADD SWAP2 SWAP1 SWAP2 MSTORE ADD PUSH2 0x176 JUMP JUMPDEST PUSH2 0x14F PUSH2 0x1EF CALLDATASIZE PUSH1 0x4 PUSH2 0x1BC4 JUMP JUMPDEST PUSH2 0x448 JUMP JUMPDEST PUSH2 0x188 PUSH1 0x1E DUP2 JUMP JUMPDEST PUSH2 0x14F PUSH2 0x619 JUMP JUMPDEST PUSH2 0x188 PUSH2 0x212 CALLDATASIZE PUSH1 0x4 PUSH2 0x1AF2 JUMP JUMPDEST PUSH1 0x4 PUSH1 0x20 MSTORE PUSH1 0x0 SWAP1 DUP2 MSTORE PUSH1 0x40 SWAP1 KECCAK256 SLOAD DUP2 JUMP JUMPDEST PUSH1 0x0 SLOAD PUSH1 0x1 PUSH1 0x1 PUSH1 0xA0 SHL SUB AND JUMPDEST PUSH1 0x40 MLOAD PUSH1 0x1 PUSH1 0x1 PUSH1 0xA0 SHL SUB SWAP1 SWAP2 AND DUP2 MSTORE PUSH1 0x20 ADD PUSH2 0x176 JUMP JUMPDEST PUSH2 0x14F PUSH2 0x257 CALLDATASIZE PUSH1 0x4 PUSH2 0x1C37 JUMP JUMPDEST PUSH2 0x62D JUMP JUMPDEST PUSH2 0x188 PUSH1 0x7 SLOAD DUP2 JUMP JUMPDEST PUSH2 0x26D PUSH2 0x80D JUMP JUMPDEST PUSH1 0x40 MLOAD PUSH2 0x176 SWAP2 SWAP1 PUSH2 0x1C79 JUMP JUMPDEST PUSH2 0x14F PUSH2 0x288 CALLDATASIZE PUSH1 0x4 PUSH2 0x1C37 JUMP JUMPDEST PUSH2 0x947 JUMP JUMPDEST PUSH2 0x188 PUSH2 0x29B CALLDATASIZE PUSH1 0x4 PUSH2 0x1AF2 JUMP JUMPDEST PUSH1 0x3 PUSH1 0x20 MSTORE PUSH1 0x0 SWAP1 DUP2 MSTORE PUSH1 0x40 SWAP1 KECCAK256 SLOAD DUP2 JUMP JUMPDEST PUSH1 0x7 SLOAD PUSH1 0x8 SLOAD PUSH2 0x1CC JUMP JUMPDEST PUSH2 0x2C0 PUSH2 0xA55 JUMP JUMPDEST PUSH1 0x40 MLOAD PUSH2 0x176 SWAP2 SWAP1 PUSH2 0x1D25 JUMP JUMPDEST PUSH2 0x14F PUSH2 0x2DB CALLDATASIZE PUSH1 0x4 PUSH2 0x1C37 JUMP JUMPDEST PUSH2 0xBF8 JUMP JUMPDEST PUSH2 0x14F PUSH2 0x2EE CALLDATASIZE PUSH1 0x4 PUSH2 0x1D87 JUMP JUMPDEST PUSH2 0xD21 JUMP JUMPDEST PUSH2 0x14F PUSH2 0x301 CALLDATASIZE PUSH1 0x4 PUSH2 0x1AF2 JUMP JUMPDEST PUSH2 0xF09 JUMP JUMPDEST PUSH1 0x6 SLOAD PUSH2 0x231 SWAP1 PUSH1 0x1 PUSH1 0x1 PUSH1 0xA0 SHL SUB AND DUP2 JUMP JUMPDEST PUSH2 0x32C PUSH2 0x327 CALLDATASIZE PUSH1 0x4 PUSH2 0x1E11 JUMP JUMPDEST PUSH2 0xF82 JUMP JUMPDEST PUSH1 0x40 MLOAD PUSH2 0x176 SWAP7 SWAP6 SWAP5 SWAP4 SWAP3 SWAP2 SWAP1 PUSH2 0x1EC2 JUMP JUMPDEST PUSH2 0x346 PUSH2 0x10D6 JUMP JUMPDEST PUSH1 0x6 DUP1 SLOAD PUSH1 0x1 PUSH1 0x1 PUSH1 0xA0 SHL SUB NOT AND PUSH1 0x1 PUSH1 0x1 PUSH1 0xA0 SHL SUB SWAP3 SWAP1 SWAP3 AND SWAP2 SWAP1 SWAP2 OR SWAP1 SSTORE JUMP JUMPDEST PUSH1 0x5 DUP2 DUP2 SLOAD DUP2 LT PUSH2 0x378 JUMPI PUSH1 0x0 DUP1 REVERT JUMPDEST PUSH1 0x0 SWAP2 DUP3 MSTORE PUSH1 0x20 SWAP1 SWAP2 KECCAK256 PUSH1 0x6 SWAP1 SWAP2 MUL ADD DUP1 SLOAD PUSH1 0x1 DUP3 ADD SLOAD PUSH1 0x2 DUP4 ADD DUP1 SLOAD PUSH1 0x1 PUSH1 0x1 PUSH1 0xA0 SHL SUB SWAP1 SWAP4 AND SWAP5 POP SWAP1 SWAP3 SWAP2 PUSH2 0x3AE SWAP1 PUSH2 0x1F0D JUMP JUMPDEST DUP1 PUSH1 0x1F ADD PUSH1 0x20 DUP1 SWAP2 DIV MUL PUSH1 0x20 ADD PUSH1 0x40 MLOAD SWAP1 DUP2 ADD PUSH1 0x40 MSTORE DUP1 SWAP3 SWAP2 SWAP1 DUP2 DUP2 MSTORE PUSH1 0x20 ADD DUP3 DUP1 SLOAD PUSH2 0x3DA SWAP1 PUSH2 0x1F0D JUMP JUMPDEST DUP1 ISZERO PUSH2 0x427 JUMPI DUP1 PUSH1 0x1F LT PUSH2 0x3FC JUMPI PUSH2 0x100 DUP1 DUP4 SLOAD DIV MUL DUP4 MSTORE SWAP2 PUSH1 0x20 ADD SWAP2 PUSH2 0x427 JUMP JUMPDEST DUP3 ADD SWAP2 SWAP1 PUSH1 0x0 MSTORE PUSH1 0x20 PUSH1 0x0 KECCAK256 SWAP1 JUMPDEST DUP2 SLOAD DUP2 MSTORE SWAP1 PUSH1 0x1 ADD SWAP1 PUSH1 0x20 ADD DUP1 DUP4 GT PUSH2 0x40A JUMPI DUP3 SWAP1 SUB PUSH1 0x1F AND DUP3 ADD SWAP2 JUMPDEST POP POP POP POP PUSH1 0x3 DUP4 ADD SLOAD PUSH1 0x4 DUP5 ADD SLOAD PUSH1 0x5 SWAP1 SWAP5 ADD SLOAD SWAP3 SWAP4 SWAP1 SWAP3 SWAP1 SWAP2 POP PUSH1 0xFF AND DUP7 JUMP JUMPDEST PUSH2 0x450 PUSH2 0x1130 JUMP JUMPDEST PUSH1 0x1 PUSH1 0x1 PUSH1 0xA0 SHL SUB DUP3 AND PUSH2 0x49F JUMPI PUSH1 0x40 MLOAD PUSH3 0x461BCD PUSH1 0xE5 SHL DUP2 MSTORE PUSH1 0x20 PUSH1 0x4 DUP3 ADD MSTORE PUSH1 0x11 PUSH1 0x24 DUP3 ADD MSTORE PUSH17 0x125B9D985B1A59081C9958DA5C1A595B9D PUSH1 0x7A SHL PUSH1 0x44 DUP3 ADD MSTORE PUSH1 0x64 ADD JUMPDEST PUSH1 0x40 MLOAD DUP1 SWAP2 SUB SWAP1 REVERT JUMPDEST PUSH1 0x0 DUP2 GT PUSH2 0x4E0 JUMPI PUSH1 0x40 MLOAD PUSH3 0x461BCD PUSH1 0xE5 SHL DUP2 MSTORE PUSH1 0x20 PUSH1 0x4 DUP3 ADD MSTORE PUSH1 0xE PUSH1 0x24 DUP3 ADD MSTORE PUSH14 0x125B9D985B1A5908185B5BDD5B9D PUSH1 0x92 SHL PUSH1 0x44 DUP3 ADD MSTORE PUSH1 0x64 ADD PUSH2 0x496 JUMP JUMPDEST PUSH1 0x0 GAS CALLER PUSH1 0x0 SWAP1 DUP2 MSTORE PUSH1 0x3 PUSH1 0x20 MSTORE PUSH1 0x40 DUP2 KECCAK256 DUP1 SLOAD SWAP3 SWAP4 POP SWAP1 PUSH2 0x501 DUP4 PUSH2 0x1F5D JUMP JUMPDEST SWAP1 SWAP2 SSTORE POP POP CALLER PUSH1 0x0 SWAP1 DUP2 MSTORE PUSH1 0x4 PUSH1 0x20 MSTORE PUSH1 0x40 DUP2 KECCAK256 TIMESTAMP SWAP1 SSTORE PUSH1 0x7 DUP1 SLOAD SWAP2 PUSH2 0x526 DUP4 PUSH2 0x1F5D JUMP JUMPDEST SWAP2 SWAP1 POP SSTORE POP PUSH2 0x55A PUSH1 0x40 MLOAD DUP1 PUSH1 0x40 ADD PUSH1 0x40 MSTORE DUP1 PUSH1 0xE DUP2 MSTORE PUSH1 0x20 ADD PUSH14 0x3B30B63AB2AFBA3930B739B332B9 PUSH1 0x91 SHL DUP2 MSTORE POP PUSH2 0x1189 JUMP JUMPDEST PUSH1 0x0 PUSH2 0x568 PUSH2 0x12C DUP5 PUSH2 0x1F76 JUMP JUMPDEST PUSH2 0x573 SWAP1 PUSH1 0xC8 PUSH2 0x1F98 JUMP JUMPDEST SWAP1 POP PUSH1 0x0 GAS PUSH2 0x582 SWAP1 DUP5 PUSH2 0x1FAB JUMP JUMPDEST SWAP1 POP PUSH2 0x5B7 CALLER PUSH1 0x40 MLOAD DUP1 PUSH1 0x40 ADD PUSH1 0x40 MSTORE DUP1 PUSH1 0xD DUP2 MSTORE PUSH1 0x20 ADD PUSH13 0x7472616E7366657256616C7565 PUSH1 0x98 SHL DUP2 MSTORE POP DUP5 DUP5 PUSH1 0x1 PUSH2 0x124B JUMP JUMPDEST PUSH1 0x40 DUP1 MLOAD PUSH1 0x60 DUP1 DUP3 MSTORE PUSH1 0xD SWAP1 DUP3 ADD MSTORE PUSH13 0x7472616E7366657256616C7565 PUSH1 0x98 SHL PUSH1 0x80 DUP3 ADD MSTORE PUSH1 0x20 DUP2 ADD DUP5 SWAP1 MSTORE TIMESTAMP SWAP2 DUP2 ADD SWAP2 SWAP1 SWAP2 MSTORE CALLER SWAP1 PUSH1 0x0 DUP1 MLOAD PUSH1 0x20 PUSH2 0x213F DUP4 CODECOPY DUP2 MLOAD SWAP2 MSTORE SWAP1 PUSH1 0xA0 ADD JUMPDEST PUSH1 0x40 MLOAD DUP1 SWAP2 SUB SWAP1 LOG2 POP POP POP PUSH2 0x615 PUSH1 0x1 DUP1 SSTORE JUMP JUMPDEST POP POP JUMP JUMPDEST PUSH2 0x621 PUSH2 0x10D6 JUMP JUMPDEST PUSH2 0x62B PUSH1 0x0 PUSH2 0x1365 JUMP JUMPDEST JUMP JUMPDEST PUSH2 0x635 PUSH2 0x1130 JUMP JUMPDEST CALLER PUSH1 0x0 SWAP1 DUP2 MSTORE PUSH1 0x4 PUSH1 0x20 MSTORE PUSH1 0x40 SWAP1 KECCAK256 SLOAD PUSH2 0x651 SWAP1 PUSH1 0x1E SWAP1 PUSH2 0x1F98 JUMP JUMPDEST TIMESTAMP LT ISZERO PUSH2 0x6A0 JUMPI PUSH1 0x40 MLOAD PUSH3 0x461BCD PUSH1 0xE5 SHL DUP2 MSTORE PUSH1 0x20 PUSH1 0x4 DUP3 ADD MSTORE PUSH1 0x18 PUSH1 0x24 DUP3 ADD MSTORE PUSH32 0x496E746572616374696F6E20746F6F206672657175656E740000000000000000 PUSH1 0x44 DUP3 ADD MSTORE PUSH1 0x64 ADD PUSH2 0x496 JUMP JUMPDEST PUSH1 0x0 GAS CALLER PUSH1 0x0 SWAP1 DUP2 MSTORE PUSH1 0x3 PUSH1 0x20 MSTORE PUSH1 0x40 DUP2 KECCAK256 DUP1 SLOAD SWAP3 SWAP4 POP SWAP1 PUSH2 0x6C1 DUP4 PUSH2 0x1F5D JUMP JUMPDEST SWAP1 SWAP2 SSTORE POP POP CALLER PUSH1 0x0 SWAP1 DUP2 MSTORE PUSH1 0x4 PUSH1 0x20 MSTORE PUSH1 0x40 DUP2 KECCAK256 TIMESTAMP SWAP1 SSTORE PUSH1 0x7 DUP1 SLOAD SWAP2 PUSH2 0x6E6 DUP4 PUSH2 0x1F5D JUMP JUMPDEST SWAP2 SWAP1 POP SSTORE POP PUSH1 0x0 PUSH2 0x72E DUP5 DUP5 DUP1 DUP1 PUSH1 0x1F ADD PUSH1 0x20 DUP1 SWAP2 DIV MUL PUSH1 0x20 ADD PUSH1 0x40 MLOAD SWAP1 DUP2 ADD PUSH1 0x40 MSTORE DUP1 SWAP4 SWAP3 SWAP2 SWAP1 DUP2 DUP2 MSTORE PUSH1 0x20 ADD DUP4 DUP4 DUP1 DUP3 DUP5 CALLDATACOPY PUSH1 0x0 SWAP3 ADD SWAP2 SWAP1 SWAP2 MSTORE POP CALLER SWAP3 POP PUSH2 0x13B5 SWAP2 POP POP JUMP JUMPDEST SWAP1 POP PUSH2 0x76F DUP5 DUP5 DUP1 DUP1 PUSH1 0x1F ADD PUSH1 0x20 DUP1 SWAP2 DIV MUL PUSH1 0x20 ADD PUSH1 0x40 MLOAD SWAP1 DUP2 ADD PUSH1 0x40 MSTORE DUP1 SWAP4 SWAP3 SWAP2 SWAP1 DUP2 DUP2 MSTORE PUSH1 0x20 ADD DUP4 DUP4 DUP1 DUP3 DUP5 CALLDATACOPY PUSH1 0x0 SWAP3 ADD SWAP2 SWAP1 SWAP2 MSTORE POP PUSH2 0x143E SWAP3 POP POP POP JUMP JUMPDEST PUSH1 0x0 GAS PUSH2 0x77C SWAP1 DUP5 PUSH2 0x1FAB JUMP JUMPDEST SWAP1 POP PUSH2 0x7B8 CALLER PUSH1 0x40 MLOAD DUP1 PUSH1 0x40 ADD PUSH1 0x40 MSTORE DUP1 PUSH1 0x14 DUP2 MSTORE PUSH1 0x20 ADD PUSH20 0x74726967676572436F6E7363696F75736E657373 PUSH1 0x60 SHL DUP2 MSTORE POP DUP5 DUP5 PUSH1 0x1 PUSH2 0x124B JUMP JUMPDEST PUSH1 0x40 DUP1 MLOAD PUSH1 0x60 DUP1 DUP3 MSTORE PUSH1 0x14 SWAP1 DUP3 ADD MSTORE PUSH20 0x74726967676572436F6E7363696F75736E657373 PUSH1 0x60 SHL PUSH1 0x80 DUP3 ADD MSTORE PUSH1 0x20 DUP2 ADD DUP5 SWAP1 MSTORE TIMESTAMP SWAP2 DUP2 ADD SWAP2 SWAP1 SWAP2 MSTORE CALLER SWAP1 PUSH1 0x0 DUP1 MLOAD PUSH1 0x20 PUSH2 0x213F DUP4 CODECOPY DUP2 MLOAD SWAP2 MSTORE SWAP1 PUSH1 0xA0 ADD PUSH2 0x601 JUMP JUMPDEST PUSH1 0x60 PUSH1 0x5 DUP1 SLOAD DUP1 PUSH1 0x20 MUL PUSH1 0x20 ADD PUSH1 0x40 MLOAD SWAP1 DUP2 ADD PUSH1 0x40 MSTORE DUP1 SWAP3 SWAP2 SWAP1 DUP2 DUP2 MSTORE PUSH1 0x20 ADD PUSH1 0x0 SWAP1 JUMPDEST DUP3 DUP3 LT ISZERO PUSH2 0x93E JUMPI PUSH1 0x0 DUP5 DUP2 MSTORE PUSH1 0x20 SWAP1 DUP2 SWAP1 KECCAK256 PUSH1 0x40 DUP1 MLOAD PUSH1 0xC0 DUP2 ADD DUP3 MSTORE PUSH1 0x6 DUP7 MUL SWAP1 SWAP3 ADD DUP1 SLOAD PUSH1 0x1 PUSH1 0x1 PUSH1 0xA0 SHL SUB AND DUP4 MSTORE PUSH1 0x1 DUP2 ADD SLOAD SWAP4 DUP4 ADD SWAP4 SWAP1 SWAP4 MSTORE PUSH1 0x2 DUP4 ADD DUP1 SLOAD SWAP3 SWAP4 SWAP3 SWAP2 DUP5 ADD SWAP2 PUSH2 0x884 SWAP1 PUSH2 0x1F0D JUMP JUMPDEST DUP1 PUSH1 0x1F ADD PUSH1 0x20 DUP1 SWAP2 DIV MUL PUSH1 0x20 ADD PUSH1 0x40 MLOAD SWAP1 DUP2 ADD PUSH1 0x40 MSTORE DUP1 SWAP3 SWAP2 SWAP1 DUP2 DUP2 MSTORE PUSH1 0x20 ADD DUP3 DUP1 SLOAD PUSH2 0x8B0 SWAP1 PUSH2 0x1F0D JUMP JUMPDEST DUP1 ISZERO PUSH2 0x8FD JUMPI DUP1 PUSH1 0x1F LT PUSH2 0x8D2 JUMPI PUSH2 0x100 DUP1 DUP4 SLOAD DIV MUL DUP4 MSTORE SWAP2 PUSH1 0x20 ADD SWAP2 PUSH2 0x8FD JUMP JUMPDEST DUP3 ADD SWAP2 SWAP1 PUSH1 0x0 MSTORE PUSH1 0x20 PUSH1 0x0 KECCAK256 SWAP1 JUMPDEST DUP2 SLOAD DUP2 MSTORE SWAP1 PUSH1 0x1 ADD SWAP1 PUSH1 0x20 ADD DUP1 DUP4 GT PUSH2 0x8E0 JUMPI DUP3 SWAP1 SUB PUSH1 0x1F AND DUP3 ADD SWAP2 JUMPDEST POP POP POP SWAP2 DUP4 MSTORE POP POP PUSH1 0x3 DUP3 ADD SLOAD PUSH1 0x20 DUP1 DUP4 ADD SWAP2 SWAP1 SWAP2 MSTORE PUSH1 0x4 DUP4 ADD SLOAD PUSH1 0x40 DUP4 ADD MSTORE PUSH1 0x5 SWAP1 SWAP3 ADD SLOAD PUSH1 0xFF AND ISZERO ISZERO PUSH1 0x60 SWAP1 SWAP2 ADD MSTORE SWAP1 DUP3 MSTORE PUSH1 0x1 SWAP3 SWAP1 SWAP3 ADD SWAP2 ADD PUSH2 0x831 JUMP JUMPDEST POP POP POP POP SWAP1 POP SWAP1 JUMP JUMPDEST PUSH1 0x0 GAS SWAP1 POP PUSH2 0x97D PUSH1 0x40 MLOAD DUP1 PUSH1 0x40 ADD PUSH1 0x40 MSTORE DUP1 PUSH1 0x10 DUP2 MSTORE PUSH1 0x20 ADD PUSH16 0x696D6D757461626C655F6368616E6765 PUSH1 0x80 SHL DUP2 MSTORE POP PUSH2 0x1189 JUMP JUMPDEST PUSH1 0x0 PUSH2 0x98A PUSH1 0xC8 TIMESTAMP PUSH2 0x1F76 JUMP JUMPDEST PUSH2 0x995 SWAP1 PUSH1 0x96 PUSH2 0x1F98 JUMP JUMPDEST SWAP1 POP PUSH1 0x0 GAS PUSH2 0x9A4 SWAP1 DUP5 PUSH2 0x1FAB JUMP JUMPDEST SWAP1 POP PUSH2 0x9E9 CALLER DUP7 DUP7 DUP1 DUP1 PUSH1 0x1F ADD PUSH1 0x20 DUP1 SWAP2 DIV MUL PUSH1 0x20 ADD PUSH1 0x40 MLOAD SWAP1 DUP2 ADD PUSH1 0x40 MSTORE DUP1 SWAP4 SWAP3 SWAP2 SWAP1 DUP2 DUP2 MSTORE PUSH1 0x20 ADD DUP4 DUP4 DUP1 DUP3 DUP5 CALLDATACOPY PUSH1 0x0 SWAP3 ADD DUP3 SWAP1 MSTORE POP DUP9 SWAP4 POP DUP8 SWAP3 POP SWAP1 POP PUSH2 0x124B JUMP JUMPDEST PUSH1 0x40 DUP1 MLOAD PUSH1 0x60 DUP1 DUP3 MSTORE PUSH1 0xF SWAP1 DUP3 ADD MSTORE PUSH15 0x73696D756C6174654661696C757265 PUSH1 0x88 SHL PUSH1 0x80 DUP3 ADD MSTORE PUSH1 0x20 DUP2 ADD DUP5 SWAP1 MSTORE TIMESTAMP DUP2 DUP4 ADD MSTORE SWAP1 MLOAD CALLER SWAP2 PUSH1 0x0 DUP1 MLOAD PUSH1 0x20 PUSH2 0x213F DUP4 CODECOPY DUP2 MLOAD SWAP2 MSTORE SWAP2 SWAP1 DUP2 SWAP1 SUB PUSH1 0xA0 ADD SWAP1 LOG2 DUP5 DUP5 PUSH1 0x40 MLOAD PUSH3 0x461BCD PUSH1 0xE5 SHL DUP2 MSTORE PUSH1 0x4 ADD PUSH2 0x496 SWAP3 SWAP2 SWAP1 PUSH2 0x1FBE JUMP JUMPDEST PUSH1 0x40 DUP1 MLOAD PUSH1 0x5 DUP1 DUP3 MSTORE PUSH1 0xC0 DUP3 ADD SWAP1 SWAP3 MSTORE PUSH1 0x60 SWAP2 PUSH1 0x0 SWAP2 SWAP1 DUP2 PUSH1 0x20 ADD JUMPDEST PUSH1 0x60 DUP2 MSTORE PUSH1 0x20 ADD SWAP1 PUSH1 0x1 SWAP1 SUB SWAP1 DUP2 PUSH2 0xA71 JUMPI SWAP1 POP POP SWAP1 POP PUSH1 0x40 MLOAD DUP1 PUSH1 0x40 ADD PUSH1 0x40 MSTORE DUP1 PUSH1 0x18 DUP2 MSTORE PUSH1 0x20 ADD PUSH24 0x7472616E73616374696F6E5F61757468656E746963697479 PUSH1 0x40 SHL DUP2 MSTORE POP DUP2 PUSH1 0x0 DUP2 MLOAD DUP2 LT PUSH2 0xACC JUMPI PUSH2 0xACC PUSH2 0x1FED JUMP JUMPDEST PUSH1 0x20 MUL PUSH1 0x20 ADD ADD DUP2 SWAP1 MSTORE POP PUSH1 0x40 MLOAD DUP1 PUSH1 0x40 ADD PUSH1 0x40 MSTORE DUP1 PUSH1 0xE DUP2 MSTORE PUSH1 0x20 ADD PUSH14 0x3B30B63AB2AFBA3930B739B332B9 PUSH1 0x91 SHL DUP2 MSTORE POP DUP2 PUSH1 0x1 DUP2 MLOAD DUP2 LT PUSH2 0xB11 JUMPI PUSH2 0xB11 PUSH2 0x1FED JUMP JUMPDEST PUSH1 0x20 MUL PUSH1 0x20 ADD ADD DUP2 SWAP1 MSTORE POP PUSH1 0x40 MLOAD DUP1 PUSH1 0x40 ADD PUSH1 0x40 MSTORE DUP1 PUSH1 0x10 DUP2 MSTORE PUSH1 0x20 ADD PUSH16 0x696D6D757461626C655F6368616E6765 PUSH1 0x80 SHL DUP2 MSTORE POP DUP2 PUSH1 0x2 DUP2 MLOAD DUP2 LT PUSH2 0xB58 JUMPI PUSH2 0xB58 PUSH2 0x1FED JUMP JUMPDEST PUSH1 0x20 MUL PUSH1 0x20 ADD ADD DUP2 SWAP1 MSTORE POP PUSH1 0x40 MLOAD DUP1 PUSH1 0x40 ADD PUSH1 0x40 MSTORE DUP1 PUSH1 0x11 DUP2 MSTORE PUSH1 0x20 ADD PUSH17 0x636F6E73656E7375735F7265616C697479 PUSH1 0x78 SHL DUP2 MSTORE POP DUP2 PUSH1 0x3 DUP2 MLOAD DUP2 LT PUSH2 0xBA0 JUMPI PUSH2 0xBA0 PUSH2 0x1FED JUMP JUMPDEST PUSH1 0x20 MUL PUSH1 0x20 ADD ADD DUP2 SWAP1 MSTORE POP PUSH1 0x40 MLOAD DUP1 PUSH1 0x40 ADD PUSH1 0x40 MSTORE DUP1 PUSH1 0x11 DUP2 MSTORE PUSH1 0x20 ADD PUSH17 0x6469676974616C5F6F776E65727368697 PUSH1 0x7C SHL DUP2 MSTORE POP DUP2 PUSH1 0x4 DUP2 MLOAD DUP2 LT PUSH2 0xBE8 JUMPI PUSH2 0xBE8 PUSH2 0x1FED JUMP JUMPDEST PUSH1 0x20 SWAP1 DUP2 MUL SWAP2 SWAP1 SWAP2 ADD ADD MSTORE SWAP2 SWAP1 POP JUMP JUMPDEST PUSH1 0x2 DUP3 DUP3 PUSH1 0x40 MLOAD PUSH2 0xC0A SWAP3 SWAP2 SWAP1 PUSH2 0x2003 JUMP JUMPDEST SWAP1 DUP2 MSTORE PUSH1 0x40 MLOAD SWAP1 DUP2 SWAP1 SUB PUSH1 0x20 ADD SWAP1 KECCAK256 PUSH1 0x3 ADD SLOAD PUSH1 0xFF AND PUSH2 0xC61 JUMPI PUSH1 0x40 MLOAD PUSH3 0x461BCD PUSH1 0xE5 SHL DUP2 MSTORE PUSH1 0x20 PUSH1 0x4 DUP3 ADD MSTORE PUSH1 0x12 PUSH1 0x24 DUP3 ADD MSTORE PUSH18 0x50617261646F78206E6F7420616374697665 PUSH1 0x70 SHL PUSH1 0x44 DUP3 ADD MSTORE PUSH1 0x64 ADD PUSH2 0x496 JUMP JUMPDEST PUSH2 0xCA0 DUP3 DUP3 DUP1 DUP1 PUSH1 0x1F ADD PUSH1 0x20 DUP1 SWAP2 DIV MUL PUSH1 0x20 ADD PUSH1 0x40 MLOAD SWAP1 DUP2 ADD PUSH1 0x40 MSTORE DUP1 SWAP4 SWAP3 SWAP2 SWAP1 DUP2 DUP2 MSTORE PUSH1 0x20 ADD DUP4 DUP4 DUP1 DUP3 DUP5 CALLDATACOPY PUSH1 0x0 SWAP3 ADD SWAP2 SWAP1 SWAP2 MSTORE POP PUSH2 0x1189 SWAP3 POP POP POP JUMP JUMPDEST CALLER PUSH1 0x1 PUSH1 0x1 PUSH1 0xA0 SHL SUB AND PUSH1 0x0 DUP1 MLOAD PUSH1 0x20 PUSH2 0x213F DUP4 CODECOPY DUP2 MLOAD SWAP2 MSTORE PUSH1 0x2 DUP5 DUP5 PUSH1 0x40 MLOAD PUSH2 0xCCB SWAP3 SWAP2 SWAP1 PUSH2 0x2003 JUMP JUMPDEST SWAP1 DUP2 MSTORE PUSH1 0x40 DUP1 MLOAD SWAP2 DUP3 SWAP1 SUB PUSH1 0x20 SWAP1 DUP2 ADD DUP4 KECCAK256 PUSH1 0x2 ADD SLOAD PUSH1 0x60 DUP1 DUP6 MSTORE PUSH1 0x14 SWAP1 DUP6 ADD MSTORE PUSH20 0xDAC2DCEAC2D8A8E4D2CECECAE4A0C2E4C2C8DEF PUSH1 0x63 SHL PUSH1 0x80 DUP6 ADD MSTORE SWAP1 DUP4 ADD MSTORE TIMESTAMP SWAP1 DUP3 ADD MSTORE PUSH1 0xA0 ADD PUSH1 0x40 MLOAD DUP1 SWAP2 SUB SWAP1 LOG2 POP POP JUMP JUMPDEST PUSH2 0xD29 PUSH2 0x10D6 JUMP JUMPDEST PUSH2 0x3E8 DUP2 GT ISZERO PUSH2 0xD7B JUMPI PUSH1 0x40 MLOAD PUSH3 0x461BCD PUSH1 0xE5 SHL DUP2 MSTORE PUSH1 0x20 PUSH1 0x4 DUP3 ADD MSTORE PUSH1 0x19 PUSH1 0x24 DUP3 ADD MSTORE PUSH32 0x496E74656E73697479206D757374206265203C3D203130303000000000000000 PUSH1 0x44 DUP3 ADD MSTORE PUSH1 0x64 ADD PUSH2 0x496 JUMP JUMPDEST PUSH1 0x2 DUP6 DUP6 PUSH1 0x40 MLOAD PUSH2 0xD8D SWAP3 SWAP2 SWAP1 PUSH2 0x2003 JUMP JUMPDEST SWAP1 DUP2 MSTORE PUSH1 0x40 MLOAD SWAP1 DUP2 SWAP1 SUB PUSH1 0x20 ADD SWAP1 KECCAK256 PUSH1 0x3 ADD SLOAD PUSH1 0xFF AND ISZERO PUSH2 0xDE9 JUMPI PUSH1 0x40 MLOAD PUSH3 0x461BCD PUSH1 0xE5 SHL DUP2 MSTORE PUSH1 0x20 PUSH1 0x4 DUP3 ADD MSTORE PUSH1 0x16 PUSH1 0x24 DUP3 ADD MSTORE PUSH22 0x50617261646F7820616C726561647920657869737473 PUSH1 0x50 SHL PUSH1 0x44 DUP3 ADD MSTORE PUSH1 0x64 ADD PUSH2 0x496 JUMP JUMPDEST PUSH1 0x40 MLOAD DUP1 PUSH1 0xC0 ADD PUSH1 0x40 MSTORE DUP1 DUP7 DUP7 DUP1 DUP1 PUSH1 0x1F ADD PUSH1 0x20 DUP1 SWAP2 DIV MUL PUSH1 0x20 ADD PUSH1 0x40 MLOAD SWAP1 DUP2 ADD PUSH1 0x40 MSTORE DUP1 SWAP4 SWAP3 SWAP2 SWAP1 DUP2 DUP2 MSTORE PUSH1 0x20 ADD DUP4 DUP4 DUP1 DUP3 DUP5 CALLDATACOPY PUSH1 0x0 SWAP3 ADD SWAP2 SWAP1 SWAP2 MSTORE POP POP POP SWAP1 DUP3 MSTORE POP PUSH1 0x40 DUP1 MLOAD PUSH1 0x20 PUSH1 0x1F DUP8 ADD DUP2 SWAP1 DIV DUP2 MUL DUP3 ADD DUP2 ADD SWAP1 SWAP3 MSTORE DUP6 DUP2 MSTORE SWAP2 DUP2 ADD SWAP2 SWAP1 DUP7 SWAP1 DUP7 SWAP1 DUP2 SWAP1 DUP5 ADD DUP4 DUP3 DUP1 DUP3 DUP5 CALLDATACOPY PUSH1 0x0 SWAP3 ADD DUP3 SWAP1 MSTORE POP SWAP4 DUP6 MSTORE POP POP POP PUSH1 0x20 DUP3 ADD DUP5 SWAP1 MSTORE PUSH1 0x1 PUSH1 0x40 DUP1 DUP5 ADD SWAP2 SWAP1 SWAP2 MSTORE PUSH1 0x60 DUP4 ADD DUP3 SWAP1 MSTORE PUSH1 0x80 SWAP1 SWAP3 ADD MSTORE MLOAD PUSH1 0x2 SWAP1 PUSH2 0xE97 SWAP1 DUP9 SWAP1 DUP9 SWAP1 PUSH2 0x2003 JUMP JUMPDEST SWAP1 DUP2 MSTORE PUSH1 0x40 MLOAD SWAP1 DUP2 SWAP1 SUB PUSH1 0x20 ADD SWAP1 KECCAK256 DUP2 MLOAD DUP2 SWAP1 PUSH2 0xEB4 SWAP1 DUP3 PUSH2 0x2062 JUMP JUMPDEST POP PUSH1 0x20 DUP3 ADD MLOAD PUSH1 0x1 DUP3 ADD SWAP1 PUSH2 0xEC9 SWAP1 DUP3 PUSH2 0x2062 JUMP JUMPDEST POP PUSH1 0x40 DUP3 ADD MLOAD PUSH1 0x2 DUP3 ADD SSTORE PUSH1 0x60 DUP3 ADD MLOAD PUSH1 0x3 DUP3 ADD DUP1 SLOAD PUSH1 0xFF NOT AND SWAP2 ISZERO ISZERO SWAP2 SWAP1 SWAP2 OR SWAP1 SSTORE PUSH1 0x80 DUP3 ADD MLOAD PUSH1 0x4 DUP3 ADD SSTORE PUSH1 0xA0 SWAP1 SWAP2 ADD MLOAD PUSH1 0x5 SWAP1 SWAP2 ADD SSTORE POP POP POP POP POP JUMP JUMPDEST PUSH2 0xF11 PUSH2 0x10D6 JUMP JUMPDEST PUSH1 0x1 PUSH1 0x1 PUSH1 0xA0 SHL SUB DUP2 AND PUSH2 0xF76 JUMPI PUSH1 0x40 MLOAD PUSH3 0x461BCD PUSH1 0xE5 SHL DUP2 MSTORE PUSH1 0x20 PUSH1 0x4 DUP3 ADD MSTORE PUSH1 0x26 PUSH1 0x24 DUP3 ADD MSTORE PUSH32 0x4F776E61626C653A206E6577206F776E657220697320746865207A65726F2061 PUSH1 0x44 DUP3 ADD MSTORE PUSH6 0x646472657373 PUSH1 0xD0 SHL PUSH1 0x64 DUP3 ADD MSTORE PUSH1 0x84 ADD PUSH2 0x496 JUMP JUMPDEST PUSH2 0xF7F DUP2 PUSH2 0x1365 JUMP JUMPDEST POP JUMP JUMPDEST DUP1 MLOAD PUSH1 0x20 DUP2 DUP4 ADD DUP2 ADD DUP1 MLOAD PUSH1 0x2 DUP3 MSTORE SWAP3 DUP3 ADD SWAP2 SWAP1 SWAP4 ADD KECCAK256 SWAP2 MSTORE DUP1 SLOAD DUP2 SWAP1 PUSH2 0xFA8 SWAP1 PUSH2 0x1F0D JUMP JUMPDEST DUP1 PUSH1 0x1F ADD PUSH1 0x20 DUP1 SWAP2 DIV MUL PUSH1 0x20 ADD PUSH1 0x40 MLOAD SWAP1 DUP2 ADD PUSH1 0x40 MSTORE DUP1 SWAP3 SWAP2 SWAP1 DUP2 DUP2 MSTORE PUSH1 0x20 ADD DUP3 DUP1 SLOAD PUSH2 0xFD4 SWAP1 PUSH2 0x1F0D JUMP JUMPDEST DUP1 ISZERO PUSH2 0x1021 JUMPI DUP1 PUSH1 0x1F LT PUSH2 0xFF6 JUMPI PUSH2 0x100 DUP1 DUP4 SLOAD DIV MUL DUP4 MSTORE SWAP2 PUSH1 0x20 ADD SWAP2 PUSH2 0x1021 JUMP JUMPDEST DUP3 ADD SWAP2 SWAP1 PUSH1 0x0 MSTORE PUSH1 0x20 PUSH1 0x0 KECCAK256 SWAP1 JUMPDEST DUP2 SLOAD DUP2 MSTORE SWAP1 PUSH1 0x1 ADD SWAP1 PUSH1 0x20 ADD DUP1 DUP4 GT PUSH2 0x1004 JUMPI DUP3 SWAP1 SUB PUSH1 0x1F AND DUP3 ADD SWAP2 JUMPDEST POP POP POP POP POP SWAP1 DUP1 PUSH1 0x1 ADD DUP1 SLOAD PUSH2 0x1036 SWAP1 PUSH2 0x1F0D JUMP JUMPDEST DUP1 PUSH1 0x1F ADD PUSH1 0x20 DUP1 SWAP2 DIV MUL PUSH1 0x20 ADD PUSH1 0x40 MLOAD SWAP1 DUP2 ADD PUSH1 0x40 MSTORE DUP1 SWAP3 SWAP2 SWAP1 DUP2 DUP2 MSTORE PUSH1 0x20 ADD DUP3 DUP1 SLOAD PUSH2 0x1062 SWAP1 PUSH2 0x1F0D JUMP JUMPDEST DUP1 ISZERO PUSH2 0x10AF JUMPI DUP1 PUSH1 0x1F LT PUSH2 0x1084 JUMPI PUSH2 0x100 DUP1 DUP4 SLOAD DIV MUL DUP4 MSTORE SWAP2 PUSH1 0x20 ADD SWAP2 PUSH2 0x10AF JUMP JUMPDEST DUP3 ADD SWAP2 SWAP1 PUSH1 0x0 MSTORE PUSH1 0x20 PUSH1 0x0 KECCAK256 SWAP1 JUMPDEST DUP2 SLOAD DUP2 MSTORE SWAP1 PUSH1 0x1 ADD SWAP1 PUSH1 0x20 ADD DUP1 DUP4 GT PUSH2 0x1092 JUMPI DUP3 SWAP1 SUB PUSH1 0x1F AND DUP3 ADD SWAP2 JUMPDEST POP POP POP POP PUSH1 0x2 DUP4 ADD SLOAD PUSH1 0x3 DUP5 ADD SLOAD PUSH1 0x4 DUP6 ADD SLOAD PUSH1 0x5 SWAP1 SWAP6 ADD SLOAD SWAP4 SWAP5 SWAP2 SWAP4 PUSH1 0xFF SWAP1 SWAP2 AND SWAP3 POP DUP7 JUMP JUMPDEST PUSH1 0x0 SLOAD PUSH1 0x1 PUSH1 0x1 PUSH1 0xA0 SHL SUB AND CALLER EQ PUSH2 0x62B JUMPI PUSH1 0x40 MLOAD PUSH3 0x461BCD PUSH1 0xE5 SHL DUP2 MSTORE PUSH1 0x20 PUSH1 0x4 DUP3 ADD DUP2 SWAP1 MSTORE PUSH1 0x24 DUP3 ADD MSTORE PUSH32 0x4F776E61626C653A2063616C6C6572206973206E6F7420746865206F776E6572 PUSH1 0x44 DUP3 ADD MSTORE PUSH1 0x64 ADD PUSH2 0x496 JUMP JUMPDEST PUSH1 0x2 PUSH1 0x1 SLOAD SUB PUSH2 0x1182 JUMPI PUSH1 0x40 MLOAD PUSH3 0x461BCD PUSH1 0xE5 SHL DUP2 MSTORE PUSH1 0x20 PUSH1 0x4 DUP3 ADD MSTORE PUSH1 0x1F PUSH1 0x24 DUP3 ADD MSTORE PUSH32 0x5265656E7472616E637947756172643A207265656E7472616E742063616C6C00 PUSH1 0x44 DUP3 ADD MSTORE PUSH1 0x64 ADD PUSH2 0x496 JUMP JUMPDEST PUSH1 0x2 PUSH1 0x1 SSTORE JUMP JUMPDEST PUSH1 0x0 PUSH1 0x2 DUP3 PUSH1 0x40 MLOAD PUSH2 0x119B SWAP2 SWAP1 PUSH2 0x2122 JUMP JUMPDEST SWAP1 DUP2 MSTORE PUSH1 0x40 MLOAD SWAP1 DUP2 SWAP1 SUB PUSH1 0x20 ADD SWAP1 KECCAK256 PUSH1 0x3 DUP2 ADD SLOAD SWAP1 SWAP2 POP PUSH1 0xFF AND PUSH2 0x11BD JUMPI POP POP JUMP JUMPDEST PUSH1 0x4 DUP2 ADD DUP1 SLOAD SWAP1 PUSH1 0x0 PUSH2 0x11CF DUP4 PUSH2 0x1F5D JUMP JUMPDEST SWAP1 SWAP2 SSTORE POP POP TIMESTAMP PUSH1 0x5 DUP3 ADD SSTORE PUSH1 0x8 DUP1 SLOAD SWAP1 PUSH1 0x0 PUSH2 0x11EA DUP4 PUSH2 0x1F5D JUMP JUMPDEST SWAP1 SWAP2 SSTORE POP POP PUSH1 0x40 MLOAD CALLER SWAP1 PUSH2 0x11FF SWAP1 DUP5 SWAP1 PUSH2 0x2122 JUMP JUMPDEST PUSH1 0x40 DUP1 MLOAD SWAP2 DUP3 SWAP1 SUB DUP3 KECCAK256 PUSH1 0x2 DUP6 ADD SLOAD DUP4 MSTORE TIMESTAMP PUSH1 0x20 DUP5 ADD MSTORE SWAP2 PUSH32 0x684264B4A8CB8CC758CA3156278D74A7B21A12F91B564934FE5C0A48AD7AEA9A SWAP2 ADD PUSH1 0x40 MLOAD DUP1 SWAP2 SUB SWAP1 LOG3 PUSH2 0x615 DUP3 PUSH2 0x170E JUMP JUMPDEST PUSH1 0x40 DUP1 MLOAD PUSH1 0xC0 DUP2 ADD DUP3 MSTORE PUSH1 0x1 PUSH1 0x1 PUSH1 0xA0 SHL SUB DUP8 DUP2 AND DUP3 MSTORE TIMESTAMP PUSH1 0x20 DUP4 ADD SWAP1 DUP2 MSTORE SWAP3 DUP3 ADD DUP8 DUP2 MSTORE PUSH1 0x60 DUP4 ADD DUP8 SWAP1 MSTORE PUSH1 0x80 DUP4 ADD DUP7 SWAP1 MSTORE DUP5 ISZERO ISZERO PUSH1 0xA0 DUP5 ADD MSTORE PUSH1 0x5 DUP1 SLOAD PUSH1 0x1 DUP2 ADD DUP3 SSTORE PUSH1 0x0 SWAP2 SWAP1 SWAP2 MSTORE DUP4 MLOAD PUSH32 0x36B6384B5ECA791C62761152D0C79BB0604C104A5FB6F4EB0703F3154BB3DB0 PUSH1 0x6 SWAP1 SWAP3 MUL SWAP2 DUP3 ADD DUP1 SLOAD PUSH1 0x1 PUSH1 0x1 PUSH1 0xA0 SHL SUB NOT AND SWAP2 SWAP1 SWAP5 AND OR DUP4 SSTORE SWAP4 MLOAD PUSH32 0x36B6384B5ECA791C62761152D0C79BB0604C104A5FB6F4EB0703F3154BB3DB1 DUP6 ADD SSTORE MLOAD SWAP2 SWAP3 DUP4 SWAP3 PUSH32 0x36B6384B5ECA791C62761152D0C79BB0604C104A5FB6F4EB0703F3154BB3DB2 SWAP1 SWAP2 ADD SWAP1 PUSH2 0x132E SWAP1 DUP3 PUSH2 0x2062 JUMP JUMPDEST POP PUSH1 0x60 DUP3 ADD MLOAD PUSH1 0x3 DUP3 ADD SSTORE PUSH1 0x80 DUP3 ADD MLOAD PUSH1 0x4 DUP3 ADD SSTORE PUSH1 0xA0 SWAP1 SWAP2 ADD MLOAD PUSH1 0x5 SWAP1 SWAP2 ADD DUP1 SLOAD PUSH1 0xFF NOT AND SWAP2 ISZERO ISZERO SWAP2 SWAP1 SWAP2 OR SWAP1 SSTORE POP POP POP POP POP POP JUMP JUMPDEST PUSH1 0x0 DUP1 SLOAD PUSH1 0x1 PUSH1 0x1 PUSH1 0xA0 SHL SUB DUP4 DUP2 AND PUSH1 0x1 PUSH1 0x1 PUSH1 0xA0 SHL SUB NOT DUP4 AND DUP2 OR DUP5 SSTORE PUSH1 0x40 MLOAD SWAP2 SWAP1 SWAP3 AND SWAP3 DUP4 SWAP2 PUSH32 0x8BE0079C531659141344CD1FD0A4F28419497F9722A3DAAFE3B4186F6B6457E0 SWAP2 SWAP1 LOG3 POP POP JUMP JUMPDEST PUSH1 0x0 DUP1 PUSH1 0x64 SWAP1 POP PUSH1 0x0 PUSH1 0xC8 DUP6 MLOAD PUSH2 0x13CC SWAP2 SWAP1 PUSH2 0x1F76 JUMP JUMPDEST PUSH1 0x1 PUSH1 0x1 PUSH1 0xA0 SHL SUB DUP6 AND PUSH1 0x0 SWAP1 DUP2 MSTORE PUSH1 0x3 PUSH1 0x20 MSTORE PUSH1 0x40 DUP2 KECCAK256 SLOAD SWAP2 SWAP3 POP SWAP1 PUSH2 0x13F5 SWAP1 PUSH1 0x64 SWAP1 PUSH2 0x1F76 JUMP JUMPDEST SWAP1 POP PUSH1 0x0 PUSH1 0x96 PUSH2 0x1405 PREVRANDAO TIMESTAMP PUSH2 0x1F98 JUMP JUMPDEST PUSH2 0x140F SWAP2 SWAP1 PUSH2 0x1F76 JUMP JUMPDEST SWAP1 POP DUP1 DUP3 PUSH2 0x141D DUP6 DUP8 PUSH2 0x1F98 JUMP JUMPDEST PUSH2 0x1427 SWAP2 SWAP1 PUSH2 0x1F98 JUMP JUMPDEST PUSH2 0x1431 SWAP2 SWAP1 PUSH2 0x1F98 JUMP JUMPDEST SWAP5 POP POP POP POP POP JUMPDEST SWAP3 SWAP2 POP POP JUMP JUMPDEST PUSH1 0x0 DUP2 SWAP1 POP PUSH2 0x146E DUP2 PUSH1 0x40 MLOAD DUP1 PUSH1 0x40 ADD PUSH1 0x40 MSTORE DUP1 PUSH1 0x9 DUP2 MSTORE PUSH1 0x20 ADD PUSH9 0x61757468656E746963 PUSH1 0xB8 SHL DUP2 MSTORE POP PUSH2 0x19FC JUMP JUMPDEST DUP1 PUSH2 0x149A JUMPI POP PUSH2 0x149A DUP2 PUSH1 0x40 MLOAD DUP1 PUSH1 0x40 ADD PUSH1 0x40 MSTORE DUP1 PUSH1 0x4 DUP2 MSTORE PUSH1 0x20 ADD PUSH4 0x1C99585B PUSH1 0xE2 SHL DUP2 MSTORE POP PUSH2 0x19FC JUMP JUMPDEST ISZERO PUSH2 0x14D8 JUMPI PUSH2 0x14D8 PUSH1 0x40 MLOAD DUP1 PUSH1 0x40 ADD PUSH1 0x40 MSTORE DUP1 PUSH1 0x18 DUP2 MSTORE PUSH1 0x20 ADD PUSH24 0x7472616E73616374696F6E5F61757468656E746963697479 PUSH1 0x40 SHL DUP2 MSTORE POP PUSH2 0x1189 JUMP JUMPDEST PUSH2 0x14FF DUP2 PUSH1 0x40 MLOAD DUP1 PUSH1 0x40 ADD PUSH1 0x40 MSTORE DUP1 PUSH1 0x5 DUP2 MSTORE PUSH1 0x20 ADD PUSH5 0x76616C7565 PUSH1 0xD8 SHL DUP2 MSTORE POP PUSH2 0x19FC JUMP JUMPDEST DUP1 PUSH2 0x152C JUMPI POP PUSH2 0x152C DUP2 PUSH1 0x40 MLOAD DUP1 PUSH1 0x40 ADD PUSH1 0x40 MSTORE DUP1 PUSH1 0x5 DUP2 MSTORE PUSH1 0x20 ADD PUSH5 0xEEDEE4E8D PUSH1 0xDB SHL DUP2 MSTORE POP PUSH2 0x19FC JUMP JUMPDEST ISZERO PUSH2 0x1560 JUMPI PUSH2 0x1560 PUSH1 0x40 MLOAD DUP1 PUSH1 0x40 ADD PUSH1 0x40 MSTORE DUP1 PUSH1 0xE DUP2 MSTORE PUSH1 0x20 ADD PUSH14 0x3B30B63AB2AFBA3930B739B332B9 PUSH1 0x91 SHL DUP2 MSTORE POP PUSH2 0x1189 JUMP JUMPDEST PUSH2 0x1585 DUP2 PUSH1 0x40 MLOAD DUP1 PUSH1 0x40 ADD PUSH1 0x40 MSTORE DUP1 PUSH1 0x3 DUP2 MSTORE PUSH1 0x20 ADD PUSH3 0x37BBB7 PUSH1 0xE9 SHL DUP2 MSTORE POP PUSH2 0x19FC JUMP JUMPDEST DUP1 PUSH2 0x15B6 JUMPI POP PUSH2 0x15B6 DUP2 PUSH1 0x40 MLOAD DUP1 PUSH1 0x40 ADD PUSH1 0x40 MSTORE DUP1 PUSH1 0x9 DUP2 MSTORE PUSH1 0x20 ADD PUSH9 0x6F776E65727368697 PUSH1 0xBC SHL DUP2 MSTORE POP PUSH2 0x19FC JUMP JUMPDEST ISZERO PUSH2 0x15ED JUMPI PUSH2 0x15ED PUSH1 0x40 MLOAD DUP1 PUSH1 0x40 ADD PUSH1 0x40 MSTORE DUP1 PUSH1 0x11 DUP2 MSTORE PUSH1 0x20 ADD PUSH17 0x6469676974616C5F6F776E65727368697 PUSH1 0x7C SHL DUP2 MSTORE POP PUSH2 0x1189 JUMP JUMPDEST PUSH2 0x1618 DUP2 PUSH1 0x40 MLOAD DUP1 PUSH1 0x40 ADD PUSH1 0x40 MSTORE DUP1 PUSH1 0x9 DUP2 MSTORE PUSH1 0x20 ADD PUSH9 0x636F6E73656E737573 PUSH1 0xB8 SHL DUP2 MSTORE POP PUSH2 0x19FC JUMP JUMPDEST DUP1 PUSH2 0x1645 JUMPI POP PUSH2 0x1645 DUP2 PUSH1 0x40 MLOAD DUP1 PUSH1 0x40 ADD PUSH1 0x40 MSTORE DUP1 PUSH1 0x5 DUP2 MSTORE PUSH1 0x20 ADD PUSH5 0x6167726565 PUSH1 0xD8 SHL DUP2 MSTORE POP PUSH2 0x19FC JUMP JUMPDEST ISZERO PUSH2 0x167C JUMPI PUSH2 0x167C PUSH1 0x40 MLOAD DUP1 PUSH1 0x40 ADD PUSH1 0x40 MSTORE DUP1 PUSH1 0x11 DUP2 MSTORE PUSH1 0x20 ADD PUSH17 0x636F6E73656E7375735F7265616C697479 PUSH1 0x78 SHL DUP2 MSTORE POP PUSH2 0x1189 JUMP JUMPDEST PUSH2 0x16A7 DUP2 PUSH1 0x40 MLOAD DUP1 PUSH1 0x40 ADD PUSH1 0x40 MSTORE DUP1 PUSH1 0x9 DUP2 MSTORE PUSH1 0x20 ADD PUSH9 0x1C195C9B585B995B9D PUSH1 0xBA SHL DUP2 MSTORE POP PUSH2 0x19FC JUMP JUMPDEST DUP1 PUSH2 0x16D8 JUMPI POP PUSH2 0x16D8 DUP2 PUSH1 0x40 MLOAD DUP1 PUSH1 0x40 ADD PUSH1 0x40 MSTORE DUP1 PUSH1 0x9 DUP2 MSTORE PUSH1 0x20 ADD PUSH9 0x696D6D757461626C65 PUSH1 0xB8 SHL DUP2 MSTORE POP PUSH2 0x19FC JUMP JUMPDEST ISZERO PUSH2 0x615 JUMPI PUSH2 0x615 PUSH1 0x40 MLOAD DUP1 PUSH1 0x40 ADD PUSH1 0x40 MSTORE DUP1 PUSH1 0x10 DUP2 MSTORE PUSH1 0x20 ADD PUSH16 0x696D6D757461626C655F6368616E6765 PUSH1 0x80 SHL DUP2 MSTORE POP PUSH2 0x1189 JUMP JUMPDEST PUSH1 0x40 DUP1 MLOAD DUP1 DUP3 ADD SWAP1 SWAP2 MSTORE PUSH1 0x18 DUP2 MSTORE PUSH24 0x7472616E73616374696F6E5F61757468656E746963697479 PUSH1 0x40 SHL PUSH1 0x20 SWAP2 DUP3 ADD MSTORE DUP2 MLOAD SWAP1 DUP3 ADD KECCAK256 PUSH32 0x76957360FEE0E83D6E94F8D30B88D21F1859D89AE935BE8BCE2E35E8D55DF071 ADD PUSH2 0x1887 JUMPI PUSH2 0x12C PUSH1 0x2 PUSH1 0x40 MLOAD PUSH2 0x1793 SWAP1 PUSH17 0x6469676974616C5F6F776E65727368697 PUSH1 0x7C SHL DUP2 MSTORE PUSH1 0x11 ADD SWAP1 JUMP JUMPDEST SWAP1 DUP2 MSTORE PUSH1 0x20 ADD PUSH1 0x40 MLOAD DUP1 SWAP2 SUB SWAP1 KECCAK256 PUSH1 0x5 ADD SLOAD TIMESTAMP PUSH2 0x17B0 SWAP2 SWAP1 PUSH2 0x1FAB JUMP JUMPDEST LT ISZERO PUSH2 0x1887 JUMPI PUSH1 0x40 DUP1 MLOAD PUSH1 0x60 DUP1 DUP3 MSTORE PUSH1 0x1B SWAP1 DUP3 ADD MSTORE PUSH32 0x61757468656E7469635F6469676974616C5F6578697374656E63650000000000 PUSH1 0x80 DUP3 ADD MSTORE PUSH1 0xA0 PUSH1 0x20 DUP3 ADD DUP2 SWAP1 MSTORE PUSH1 0x44 SWAP1 DUP3 ADD MSTORE PUSH32 0x54686520696D706F73736962696C697479206F662061757468656E7469632065 PUSH1 0xC0 DUP3 ADD MSTORE PUSH32 0x78697374656E636520696E206469676974616C206F776E657273686970207370 PUSH1 0xE0 DUP3 ADD MSTORE PUSH4 0x61636573 PUSH1 0xE0 SHL PUSH2 0x100 DUP3 ADD MSTORE TIMESTAMP DUP2 DUP4 ADD MSTORE SWAP1 MLOAD PUSH32 0x5FD312B1F7C58EE2B413D4D4788462500DCFCEFE25B98861A07F9C2EEEA14700 SWAP2 DUP2 SWAP1 SUB PUSH2 0x120 ADD SWAP1 LOG1 JUMPDEST PUSH1 0x40 DUP1 MLOAD DUP1 DUP3 ADD SWAP1 SWAP2 MSTORE PUSH1 0x11 DUP2 MSTORE PUSH17 0x636F6E73656E7375735F7265616C697479 PUSH1 0x78 SHL PUSH1 0x20 SWAP2 DUP3 ADD MSTORE DUP2 MLOAD SWAP1 DUP3 ADD KECCAK256 PUSH32 0x903AB91BEABDB108CF08A0D3A6EB68F673127971A6A5945921483F9A88F04047 ADD PUSH2 0xF7F JUMPI PUSH2 0x12C PUSH1 0x2 PUSH1 0x40 MLOAD PUSH2 0x1904 SWAP1 PUSH16 0x696D6D757461626C655F6368616E6765 PUSH1 0x80 SHL DUP2 MSTORE PUSH1 0x10 ADD SWAP1 JUMP JUMPDEST SWAP1 DUP2 MSTORE PUSH1 0x20 ADD PUSH1 0x40 MLOAD DUP1 SWAP2 SUB SWAP1 KECCAK256 PUSH1 0x5 ADD SLOAD TIMESTAMP PUSH2 0x1921 SWAP2 SWAP1 PUSH2 0x1FAB JUMP JUMPDEST LT ISZERO PUSH2 0xF7F JUMPI PUSH1 0x40 DUP1 MLOAD PUSH1 0x60 DUP1 DUP3 MSTORE PUSH1 0x1E SWAP1 DUP3 ADD MSTORE PUSH32 0x636F6E73656E7375735F696D6D75746162696C6974795F70617261646F780000 PUSH1 0x80 DUP3 ADD MSTORE PUSH1 0xA0 PUSH1 0x20 DUP3 ADD DUP2 SWAP1 MSTORE PUSH1 0x46 SWAP1 DUP3 ADD MSTORE PUSH32 0x436F6E73656E737573206372656174657320696D6D757461626C652074727574 PUSH1 0xC0 DUP3 ADD MSTORE PUSH32 0x682074686174206368616E67657320776974682065616368206E657720636F6E PUSH1 0xE0 DUP3 ADD MSTORE PUSH6 0x73656E737573 PUSH1 0xD0 SHL PUSH2 0x100 DUP3 ADD MSTORE TIMESTAMP DUP2 DUP4 ADD MSTORE SWAP1 MLOAD PUSH32 0x5FD312B1F7C58EE2B413D4D4788462500DCFCEFE25B98861A07F9C2EEEA14700 SWAP2 DUP2 SWAP1 SUB PUSH2 0x120 ADD SWAP1 LOG1 POP JUMP JUMPDEST DUP2 MLOAD DUP2 MLOAD PUSH1 0x0 SWAP2 DUP4 SWAP2 GT ISZERO PUSH2 0x1A15 JUMPI PUSH1 0x0 SWAP2 POP POP PUSH2 0x1438 JUMP JUMPDEST PUSH1 0x0 JUMPDEST DUP2 MLOAD DUP6 MLOAD PUSH2 0x1A26 SWAP2 SWAP1 PUSH2 0x1FAB JUMP JUMPDEST DUP2 GT PUSH2 0x1ACB JUMPI PUSH1 0x1 PUSH1 0x0 JUMPDEST DUP4 MLOAD DUP2 LT ISZERO PUSH2 0x1AA5 JUMPI DUP4 DUP2 DUP2 MLOAD DUP2 LT PUSH2 0x1A4C JUMPI PUSH2 0x1A4C PUSH2 0x1FED JUMP JUMPDEST ADD PUSH1 0x20 ADD MLOAD PUSH1 0x1 PUSH1 0x1 PUSH1 0xF8 SHL SUB NOT AND DUP8 PUSH2 0x1A66 DUP4 DUP7 PUSH2 0x1F98 JUMP JUMPDEST DUP2 MLOAD DUP2 LT PUSH2 0x1A76 JUMPI PUSH2 0x1A76 PUSH2 0x1FED JUMP JUMPDEST ADD PUSH1 0x20 ADD MLOAD PUSH1 0x1 PUSH1 0x1 PUSH1 0xF8 SHL SUB NOT AND EQ PUSH2 0x1A93 JUMPI PUSH1 0x0 SWAP2 POP PUSH2 0x1AA5 JUMP JUMPDEST DUP1 PUSH2 0x1A9D DUP2 PUSH2 0x1F5D JUMP JUMPDEST SWAP2 POP POP PUSH2 0x1A31 JUMP JUMPDEST POP DUP1 ISZERO PUSH2 0x1AB8 JUMPI PUSH1 0x1 SWAP4 POP POP POP POP PUSH2 0x1438 JUMP JUMPDEST POP DUP1 PUSH2 0x1AC3 DUP2 PUSH2 0x1F5D JUMP JUMPDEST SWAP2 POP POP PUSH2 0x1A18 JUMP JUMPDEST POP PUSH1 0x0 SWAP5 SWAP4 POP POP POP POP JUMP JUMPDEST DUP1 CALLDATALOAD PUSH1 0x1 PUSH1 0x1 PUSH1 0xA0 SHL SUB DUP2 AND DUP2 EQ PUSH2 0x1AED JUMPI PUSH1 0x0 DUP1 REVERT JUMPDEST SWAP2 SWAP1 POP JUMP JUMPDEST PUSH1 0x0 PUSH1 0x20 DUP3 DUP5 SUB SLT ISZERO PUSH2 0x1B04 JUMPI PUSH1 0x0 DUP1 REVERT JUMPDEST PUSH2 0x1B0D DUP3 PUSH2 0x1AD6 JUMP JUMPDEST SWAP4 SWAP3 POP POP POP JUMP JUMPDEST PUSH1 0x0 PUSH1 0x20 DUP3 DUP5 SUB SLT ISZERO PUSH2 0x1B26 JUMPI PUSH1 0x0 DUP1 REVERT JUMPDEST POP CALLDATALOAD SWAP2 SWAP1 POP JUMP JUMPDEST PUSH1 0x0 JUMPDEST DUP4 DUP2 LT ISZERO PUSH2 0x1B48 JUMPI DUP2 DUP2 ADD MLOAD DUP4 DUP3 ADD MSTORE PUSH1 0x20 ADD PUSH2 0x1B30 JUMP JUMPDEST POP POP PUSH1 0x0 SWAP2 ADD MSTORE JUMP JUMPDEST PUSH1 0x0 DUP2 MLOAD DUP1 DUP5 MSTORE PUSH2 0x1B69 DUP2 PUSH1 0x20 DUP7 ADD PUSH1 0x20 DUP7 ADD PUSH2 0x1B2D JUMP JUMPDEST PUSH1 0x1F ADD PUSH1 0x1F NOT AND SWAP3 SWAP1 SWAP3 ADD PUSH1 0x20 ADD SWAP3 SWAP2 POP POP JUMP JUMPDEST PUSH1 0x1 DUP1 PUSH1 0xA0 SHL SUB DUP8 AND DUP2 MSTORE DUP6 PUSH1 0x20 DUP3 ADD MSTORE PUSH1 0xC0 PUSH1 0x40 DUP3 ADD MSTORE PUSH1 0x0 PUSH2 0x1BA4 PUSH1 0xC0 DUP4 ADD DUP8 PUSH2 0x1B51 JUMP JUMPDEST PUSH1 0x60 DUP4 ADD SWAP6 SWAP1 SWAP6 MSTORE POP PUSH1 0x80 DUP2 ADD SWAP3 SWAP1 SWAP3 MSTORE ISZERO ISZERO PUSH1 0xA0 SWAP1 SWAP2 ADD MSTORE SWAP4 SWAP3 POP POP POP JUMP JUMPDEST PUSH1 0x0 DUP1 PUSH1 0x40 DUP4 DUP6 SUB SLT ISZERO PUSH2 0x1BD7 JUMPI PUSH1 0x0 DUP1 REVERT JUMPDEST PUSH2 0x1BE0 DUP4 PUSH2 0x1AD6 JUMP JUMPDEST SWAP5 PUSH1 0x20 SWAP4 SWAP1 SWAP4 ADD CALLDATALOAD SWAP4 POP POP POP JUMP JUMPDEST PUSH1 0x0 DUP1 DUP4 PUSH1 0x1F DUP5 ADD SLT PUSH2 0x1C00 JUMPI PUSH1 0x0 DUP1 REVERT JUMPDEST POP DUP2 CALLDATALOAD PUSH8 0xFFFFFFFFFFFFFFFF DUP2 GT ISZERO PUSH2 0x1C18 JUMPI PUSH1 0x0 DUP1 REVERT JUMPDEST PUSH1 0x20 DUP4 ADD SWAP2 POP DUP4 PUSH1 0x20 DUP3 DUP6 ADD ADD GT ISZERO PUSH2 0x1C30 JUMPI PUSH1 0x0 DUP1 REVERT JUMPDEST SWAP3 POP SWAP3 SWAP1 POP JUMP JUMPDEST PUSH1 0x0 DUP1 PUSH1 0x20 DUP4 DUP6 SUB SLT ISZERO PUSH2 0x1C4A JUMPI PUSH1 0x0 DUP1 REVERT JUMPDEST DUP3 CALLDATALOAD PUSH8 0xFFFFFFFFFFFFFFFF DUP2 GT ISZERO PUSH2 0x1C61 JUMPI PUSH1 0x0 DUP1 REVERT JUMPDEST PUSH2 0x1C6D DUP6 DUP3 DUP7 ADD PUSH2 0x1BEE JUMP JUMPDEST SWAP1 SWAP7 SWAP1 SWAP6 POP SWAP4 POP POP POP POP JUMP JUMPDEST PUSH1 0x0 PUSH1 0x20 DUP1 DUP4 ADD DUP2 DUP5 MSTORE DUP1 DUP6 MLOAD DUP1 DUP4 MSTORE PUSH1 0x40 SWAP3 POP DUP3 DUP7 ADD SWAP2 POP DUP3 DUP2 PUSH1 0x5 SHL DUP8 ADD ADD DUP5 DUP9 ADD PUSH1 0x0 JUMPDEST DUP4 DUP2 LT ISZERO PUSH2 0x1D17 JUMPI DUP9 DUP4 SUB PUSH1 0x3F NOT ADD DUP6 MSTORE DUP2 MLOAD DUP1 MLOAD PUSH1 0x1 PUSH1 0x1 PUSH1 0xA0 SHL SUB AND DUP5 MSTORE DUP8 DUP2 ADD MLOAD DUP9 DUP6 ADD MSTORE DUP7 DUP2 ADD MLOAD PUSH1 0xC0 DUP9 DUP7 ADD DUP2 SWAP1 MSTORE SWAP1 PUSH2 0x1CE1 DUP3 DUP8 ADD DUP3 PUSH2 0x1B51 JUMP JUMPDEST PUSH1 0x60 DUP5 DUP2 ADD MLOAD SWAP1 DUP9 ADD MSTORE PUSH1 0x80 DUP1 DUP6 ADD MLOAD SWAP1 DUP9 ADD MSTORE PUSH1 0xA0 SWAP4 DUP5 ADD MLOAD ISZERO ISZERO SWAP4 SWAP1 SWAP7 ADD SWAP3 SWAP1 SWAP3 MSTORE POP POP SWAP4 DUP7 ADD SWAP4 SWAP1 DUP7 ADD SWAP1 PUSH1 0x1 ADD PUSH2 0x1CA0 JUMP JUMPDEST POP SWAP1 SWAP9 SWAP8 POP POP POP POP POP POP POP POP JUMP JUMPDEST PUSH1 0x0 PUSH1 0x20 DUP1 DUP4 ADD DUP2 DUP5 MSTORE DUP1 DUP6 MLOAD DUP1 DUP4 MSTORE PUSH1 0x40 DUP7 ADD SWAP2 POP PUSH1 0x40 DUP2 PUSH1 0x5 SHL DUP8 ADD ADD SWAP3 POP DUP4 DUP8 ADD PUSH1 0x0 JUMPDEST DUP3 DUP2 LT ISZERO PUSH2 0x1D7A JUMPI PUSH1 0x3F NOT DUP9 DUP7 SUB ADD DUP5 MSTORE PUSH2 0x1D68 DUP6 DUP4 MLOAD PUSH2 0x1B51 JUMP JUMPDEST SWAP5 POP SWAP3 DUP6 ADD SWAP3 SWAP1 DUP6 ADD SWAP1 PUSH1 0x1 ADD PUSH2 0x1D4C JUMP JUMPDEST POP SWAP3 SWAP8 SWAP7 POP POP POP POP POP POP POP JUMP JUMPDEST PUSH1 0x0 DUP1 PUSH1 0x0 DUP1 PUSH1 0x0 PUSH1 0x60 DUP7 DUP9 SUB SLT ISZERO PUSH2 0x1D9F JUMPI PUSH1 0x0 DUP1 REVERT JUMPDEST DUP6 CALLDATALOAD PUSH8 0xFFFFFFFFFFFFFFFF DUP1 DUP3 GT ISZERO PUSH2 0x1DB7 JUMPI PUSH1 0x0 DUP1 REVERT JUMPDEST PUSH2 0x1DC3 DUP10 DUP4 DUP11 ADD PUSH2 0x1BEE JUMP JUMPDEST SWAP1 SWAP8 POP SWAP6 POP PUSH1 0x20 DUP9 ADD CALLDATALOAD SWAP2 POP DUP1 DUP3 GT ISZERO PUSH2 0x1DDC JUMPI PUSH1 0x0 DUP1 REVERT JUMPDEST POP PUSH2 0x1DE9 DUP9 DUP3 DUP10 ADD PUSH2 0x1BEE JUMP JUMPDEST SWAP7 SWAP10 SWAP6 SWAP9 POP SWAP7 PUSH1 0x40 ADD CALLDATALOAD SWAP5 SWAP4 POP POP POP POP JUMP JUMPDEST PUSH4 0x4E487B71 PUSH1 0xE0 SHL PUSH1 0x0 MSTORE PUSH1 0x41 PUSH1 0x4 MSTORE PUSH1 0x24 PUSH1 0x0 REVERT JUMPDEST PUSH1 0x0 PUSH1 0x20 DUP3 DUP5 SUB SLT ISZERO PUSH2 0x1E23 JUMPI PUSH1 0x0 DUP1 REVERT JUMPDEST DUP2 CALLDATALOAD PUSH8 0xFFFFFFFFFFFFFFFF DUP1 DUP3 GT ISZERO PUSH2 0x1E3B JUMPI PUSH1 0x0 DUP1 REVERT JUMPDEST DUP2 DUP5 ADD SWAP2 POP DUP5 PUSH1 0x1F DUP4 ADD SLT PUSH2 0x1E4F JUMPI PUSH1 0x0 DUP1 REVERT JUMPDEST DUP2 CALLDATALOAD DUP2 DUP2 GT ISZERO PUSH2 0x1E61 JUMPI PUSH2 0x1E61 PUSH2 0x1DFB JUMP JUMPDEST PUSH1 0x40 MLOAD PUSH1 0x1F DUP3 ADD PUSH1 0x1F NOT SWAP1 DUP2 AND PUSH1 0x3F ADD AND DUP2 ADD SWAP1 DUP4 DUP3 GT DUP2 DUP4 LT OR ISZERO PUSH2 0x1E89 JUMPI PUSH2 0x1E89 PUSH2 0x1DFB JUMP JUMPDEST DUP2 PUSH1 0x40 MSTORE DUP3 DUP2 MSTORE DUP8 PUSH1 0x20 DUP5 DUP8 ADD ADD GT ISZERO PUSH2 0x1EA2 JUMPI PUSH1 0x0 DUP1 REVERT JUMPDEST DUP3 PUSH1 0x20 DUP7 ADD PUSH1 0x20 DUP4 ADD CALLDATACOPY PUSH1 0x0 SWAP3 DUP2 ADD PUSH1 0x20 ADD SWAP3 SWAP1 SWAP3 MSTORE POP SWAP6 SWAP5 POP POP POP POP POP JUMP JUMPDEST PUSH1 0xC0 DUP2 MSTORE PUSH1 0x0 PUSH2 0x1ED5 PUSH1 0xC0 DUP4 ADD DUP10 PUSH2 0x1B51 JUMP JUMPDEST DUP3 DUP2 SUB PUSH1 0x20 DUP5 ADD MSTORE PUSH2 0x1EE7 DUP2 DUP10 PUSH2 0x1B51 JUMP JUMPDEST PUSH1 0x40 DUP5 ADD SWAP8 SWAP1 SWAP8 MSTORE POP POP SWAP3 ISZERO ISZERO PUSH1 0x60 DUP5 ADD MSTORE PUSH1 0x80 DUP4 ADD SWAP2 SWAP1 SWAP2 MSTORE PUSH1 0xA0 SWAP1 SWAP2 ADD MSTORE SWAP3 SWAP2 POP POP JUMP JUMPDEST PUSH1 0x1 DUP2 DUP2 SHR SWAP1 DUP3 AND DUP1 PUSH2 0x1F21 JUMPI PUSH1 0x7F DUP3 AND SWAP2 POP JUMPDEST PUSH1 0x20 DUP3 LT DUP2 SUB PUSH2 0x1F41 JUMPI PUSH4 0x4E487B71 PUSH1 0xE0 SHL PUSH1 0x0 MSTORE PUSH1 0x22 PUSH1 0x4 MSTORE PUSH1 0x24 PUSH1 0x0 REVERT JUMPDEST POP SWAP2 SWAP1 POP JUMP JUMPDEST PUSH4 0x4E487B71 PUSH1 0xE0 SHL PUSH1 0x0 MSTORE PUSH1 0x11 PUSH1 0x4 MSTORE PUSH1 0x24 PUSH1 0x0 REVERT JUMPDEST PUSH1 0x0 PUSH1 0x1 DUP3 ADD PUSH2 0x1F6F JUMPI PUSH2 0x1F6F PUSH2 0x1F47 JUMP JUMPDEST POP PUSH1 0x1 ADD SWAP1 JUMP JUMPDEST PUSH1 0x0 DUP3 PUSH2 0x1F93 JUMPI PUSH4 0x4E487B71 PUSH1 0xE0 SHL PUSH1 0x0 MSTORE PUSH1 0x12 PUSH1 0x4 MSTORE PUSH1 0x24 PUSH1 0x0 REVERT JUMPDEST POP MOD SWAP1 JUMP JUMPDEST DUP1 DUP3 ADD DUP1 DUP3 GT ISZERO PUSH2 0x1438 JUMPI PUSH2 0x1438 PUSH2 0x1F47 JUMP JUMPDEST DUP2 DUP2 SUB DUP2 DUP2 GT ISZERO PUSH2 0x1438 JUMPI PUSH2 0x1438 PUSH2 0x1F47 JUMP JUMPDEST PUSH1 0x20 DUP2 MSTORE DUP2 PUSH1 0x20 DUP3 ADD MSTORE DUP2 DUP4 PUSH1 0x40 DUP4 ADD CALLDATACOPY PUSH1 0x0 DUP2 DUP4 ADD PUSH1 0x40 SWAP1 DUP2 ADD SWAP2 SWAP1 SWAP2 MSTORE PUSH1 0x1F SWAP1 SWAP3 ADD PUSH1 0x1F NOT AND ADD ADD SWAP2 SWAP1 POP JUMP JUMPDEST PUSH4 0x4E487B71 PUSH1 0xE0 SHL PUSH1 0x0 MSTORE PUSH1 0x32 PUSH1 0x4 MSTORE PUSH1 0x24 PUSH1 0x0 REVERT JUMPDEST DUP2 DUP4 DUP3 CALLDATACOPY PUSH1 0x0 SWAP2 ADD SWAP1 DUP2 MSTORE SWAP2 SWAP1 POP JUMP JUMPDEST PUSH1 0x1F DUP3 GT ISZERO PUSH2 0x205D JUMPI PUSH1 0x0 DUP2 DUP2 MSTORE PUSH1 0x20 DUP2 KECCAK256 PUSH1 0x1F DUP6 ADD PUSH1 0x5 SHR DUP2 ADD PUSH1 0x20 DUP7 LT ISZERO PUSH2 0x203A JUMPI POP DUP1 JUMPDEST PUSH1 0x1F DUP6 ADD PUSH1 0x5 SHR DUP3 ADD SWAP2 POP JUMPDEST DUP2 DUP2 LT ISZERO PUSH2 0x2059 JUMPI DUP3 DUP2 SSTORE PUSH1 0x1 ADD PUSH2 0x2046 JUMP JUMPDEST POP POP POP JUMPDEST POP POP POP JUMP JUMPDEST DUP2 MLOAD PUSH8 0xFFFFFFFFFFFFFFFF DUP2 GT ISZERO PUSH2 0x207C JUMPI PUSH2 0x207C PUSH2 0x1DFB JUMP JUMPDEST PUSH2 0x2090 DUP2 PUSH2 0x208A DUP5 SLOAD PUSH2 0x1F0D JUMP JUMPDEST DUP5 PUSH2 0x2013 JUMP JUMPDEST PUSH1 0x20 DUP1 PUSH1 0x1F DUP4 GT PUSH1 0x1 DUP2 EQ PUSH2 0x20C5 JUMPI PUSH1 0x0 DUP5 ISZERO PUSH2 0x20AD JUMPI POP DUP6 DUP4 ADD MLOAD JUMPDEST PUSH1 0x0 NOT PUSH1 0x3 DUP7 SWAP1 SHL SHR NOT AND PUSH1 0x1 DUP6 SWAP1 SHL OR DUP6 SSTORE PUSH2 0x2059 JUMP JUMPDEST PUSH1 0x0 DUP6 DUP2 MSTORE PUSH1 0x20 DUP2 KECCAK256 PUSH1 0x1F NOT DUP7 AND SWAP2 JUMPDEST DUP3 DUP2 LT ISZERO PUSH2 0x20F4 JUMPI DUP9 DUP7 ADD MLOAD DUP3 SSTORE SWAP5 DUP5 ADD SWAP5 PUSH1 0x1 SWAP1 SWAP2 ADD SWAP1 DUP5 ADD PUSH2 0x20D5 JUMP JUMPDEST POP DUP6 DUP3 LT ISZERO PUSH2 0x2112 JUMPI DUP8 DUP6 ADD MLOAD PUSH1 0x0 NOT PUSH1 0x3 DUP9 SWAP1 SHL PUSH1 0xF8 AND SHR NOT AND DUP2 SSTORE JUMPDEST POP POP POP POP POP PUSH1 0x1 SWAP1 DUP2 SHL ADD SWAP1 SSTORE POP JUMP JUMPDEST PUSH1 0x0 DUP3 MLOAD PUSH2 0x2134 DUP2 DUP5 PUSH1 0x20 DUP8 ADD PUSH2 0x1B2D JUMP JUMPDEST SWAP2 SWAP1 SWAP2 ADD SWAP3 SWAP2 POP POP JUMP INVALID 0x2A EXTCODEHASH 0x5F 0xAB 0xCA SLOAD SMOD 0x5E 0x22 0xA9 0xE 0xD2 0x4F LOG4 0x21 TIMESTAMP 0xDD SIGNEXTEND 0xBB 0xEC CALLVALUE PUSH18 0x82BDE1DE1D9DE5D65564A264697066735822 SLT KECCAK256 DUP15 PUSH16 0x8472A24EB0764FEC1BB69CCCD899B588 PREVRANDAO DUP11 PREVRANDAO 0x5D SWAP7 PUSH24 0x350D4EBE0268EB8164736F6C634300081300334973206120 PUSH3 0x6C6F63 PUSH12 0x636861696E207472616E7361 PUSH4 0x74696F6E KECCAK256 PUSH14 0x6F726520277265616C2720746861 PUSH15 0x20616E206F66662D636861696E2061 PUSH4 0x74696F6E EXTCODEHASH JUMPI PUSH9 0x61742069732076616C PUSH22 0x653F204E756D6265727320696E206120646174616261 PUSH20 0x65206F7220736F6369616C20636F6E73656E7375 PUSH20 0x3F43616E20796F75207472756C79206F776E2073 PUSH16 0x6D657468696E67207468617420657869 PUSH20 0x7473206F6E6C7920617320696E666F726D617469 PUSH16 0x6E3F426C6F636B636861696E20697320 PUSH10 0x6D6D757461626C652C20 PUSH26 0x6574207374617465206368616E67657320776974682065766572 PUSH26 0x207472616E73616374696F6E446F6573206D616A6F7269747920 PUSH4 0x6F6E7365 PUSH15 0x737573206372656174652074727574 PUSH9 0x206F72206D6572656C PUSH26 0x2061677265656D656E743F000000000000000000000000000000 "},"methodIdentifiers":{"MIN_INTERACTION_INTERVAL()":"6a1a9249","consciousnessContract()":"f93b2af3","createParadoxTrigger(string,string,uint256)":"eb86a6aa","getActiveParadoxes()":"e22b093e","getContractStats()":"dfe6b5d6","getTransactionHistory()":"b76d4fc3","getUserStats(address)":"4e43603a","lastInteractionTime(address)":"78946ae7","manualTriggerParadox(string)":"e8e025ae","owner()":"8da5cb5b","paradoxTriggers(string)":"fc915167","renounceOwnership()":"715018a6","setConsciousnessContract(address)":"02bde0ca","simulateFailure(string)":"bfe750e1","totalInteractions()":"a843651e","totalParadoxestriggered()":"30906601","transactionHistory(uint256)":"243e7a87","transferOwnership(address)":"f2fde38b","transferValue(address,uint256)":"5a4161ff","triggerConsciousness(string)":"919ad762","userInteractionCount(address)":"d8844a48"}}}}}