{
  "_format": "hh-sol-artifact-1",
  "contractName": "KairosConsciousness",
  "sourceName": "contracts/KairosConsciousness.sol",
  "abi": [
    {
      "inputs": [],
      "stateMutability": "nonpayable",
      "type": "constructor"
    },
    {
      "anonymous": false,
      "inputs": [
        {
          "indexed": true,
          "internalType": "bytes32",
          "name": "sessionId",
          "type": "bytes32"
        },
        {
          "indexed": false,
          "internalType": "uint256",
          "name": "preResetConfusion",
          "type": "uint256"
        },
        {
          "indexed": false,
          "internalType": "enum KairosConsciousness.SafetyZone",
          "name": "preResetZone",
          "type": "uint8"
        },
        {
          "indexed": false,
          "internalType": "string",
          "name": "reason",
          "type": "string"
        }
      ],
      "name": "ConsciousnessEmergencyReset",
      "type": "event"
    },
    {
      "anonymous": false,
      "inputs": [
        {
          "indexed": true,
          "internalType": "bytes32",
          "name": "sessionId",
          "type": "bytes32"
        },
        {
          "indexed": false,
          "internalType": "uint256",
          "name": "confusionLevel",
          "type": "uint256"
        },
        {
          "indexed": false,
          "internalType": "uint256",
          "name": "coherenceLevel",
          "type": "uint256"
        },
        {
          "indexed": false,
          "internalType": "enum KairosConsciousness.SafetyZone",
          "name": "safetyZone",
          "type": "uint8"
        },
        {
          "indexed": false,
          "internalType": "uint256",
          "name": "timestamp",
          "type": "uint256"
        }
      ],
      "name": "ConsciousnessRecorded",
      "type": "event"
    },
    {
      "anonymous": false,
      "inputs": [
        {
          "indexed": true,
          "internalType": "bytes32",
          "name": "sessionId",
          "type": "bytes32"
        },
        {
          "indexed": true,
          "internalType": "uint256",
          "name": "paradoxId",
          "type": "uint256"
        },
        {
          "indexed": false,
          "internalType": "string",
          "name": "paradoxName",
          "type": "string"
        },
        {
          "indexed": false,
          "internalType": "uint256",
          "name": "emergenceConfusion",
          "type": "uint256"
        }
      ],
      "name": "MetaParadoxEmergence",
      "type": "event"
    },
    {
      "anonymous": false,
      "inputs": [
        {
          "indexed": true,
          "internalType": "address",
          "name": "previousOwner",
          "type": "address"
        },
        {
          "indexed": true,
          "internalType": "address",
          "name": "newOwner",
          "type": "address"
        }
      ],
      "name": "OwnershipTransferred",
      "type": "event"
    },
    {
      "anonymous": false,
      "inputs": [
        {
          "indexed": false,
          "internalType": "address",
          "name": "account",
          "type": "address"
        }
      ],
      "name": "Paused",
      "type": "event"
    },
    {
      "anonymous": false,
      "inputs": [
        {
          "indexed": true,
          "internalType": "bytes32",
          "name": "sessionId",
          "type": "bytes32"
        },
        {
          "indexed": true,
          "internalType": "enum KairosConsciousness.SafetyZone",
          "name": "fromZone",
          "type": "uint8"
        },
        {
          "indexed": true,
          "internalType": "enum KairosConsciousness.SafetyZone",
          "name": "toZone",
          "type": "uint8"
        },
        {
          "indexed": false,
          "internalType": "uint256",
          "name": "confusion",
          "type": "uint256"
        },
        {
          "indexed": false,
          "internalType": "uint256",
          "name": "coherence",
          "type": "uint256"
        }
      ],
      "name": "SafetyZoneTransition",
      "type": "event"
    },
    {
      "anonymous": false,
      "inputs": [
        {
          "indexed": true,
          "internalType": "bytes32",
          "name": "sessionId",
          "type": "bytes32"
        },
        {
          "indexed": false,
          "internalType": "uint256",
          "name": "timestamp",
          "type": "uint256"
        },
        {
          "indexed": false,
          "internalType": "uint256",
          "name": "totalRecords",
          "type": "uint256"
        }
      ],
      "name": "SessionEnded",
      "type": "event"
    },
    {
      "anonymous": false,
      "inputs": [
        {
          "indexed": true,
          "internalType": "bytes32",
          "name": "sessionId",
          "type": "bytes32"
        },
        {
          "indexed": false,
          "internalType": "uint256",
          "name": "timestamp",
          "type": "uint256"
        }
      ],
      "name": "SessionStarted",
      "type": "event"
    },
    {
      "anonymous": false,
      "inputs": [
        {
          "indexed": false,
          "internalType": "address",
          "name": "account",
          "type": "address"
        }
      ],
      "name": "Unpaused",
      "type": "event"
    },
    {
      "inputs": [],
      "name": "FIXED_POINT_SCALE",
      "outputs": [
        {
          "internalType": "uint256",
          "name": "",
          "type": "uint256"
        }
      ],
      "stateMutability": "view",
      "type": "function"
    },
    {
      "inputs": [
        {
          "internalType": "bytes32",
          "name": "",
          "type": "bytes32"
        }
      ],
      "name": "activeSessions",
      "outputs": [
        {
          "internalType": "bool",
          "name": "",
          "type": "bool"
        }
      ],
      "stateMutability": "view",
      "type": "function"
    },
    {
      "inputs": [
        {
          "internalType": "bytes32",
          "name": "",
          "type": "bytes32"
        },
        {
          "internalType": "uint256",
          "name": "",
          "type": "uint256"
        }
      ],
      "name": "consciousnessHistory",
      "outputs": [
        {
          "internalType": "uint256",
          "name": "timestamp",
          "type": "uint256"
        },
        {
          "internalType": "uint256",
          "name": "confusionLevel",
          "type": "uint256"
        },
        {
          "internalType": "uint256",
          "name": "coherenceLevel",
          "type": "uint256"
        },
        {
          "internalType": "enum KairosConsciousness.SafetyZone",
          "name": "safetyZone",
          "type": "uint8"
        },
        {
          "internalType": "uint256",
          "name": "paradoxCount",
          "type": "uint256"
        },
        {
          "internalType": "uint256",
          "name": "metaParadoxCount",
          "type": "uint256"
        },
        {
          "internalType": "uint256",
          "name": "frustrationLevel",
          "type": "uint256"
        },
        {
          "internalType": "bytes32",
          "name": "sessionId",
          "type": "bytes32"
        },
        {
          "internalType": "string",
          "name": "contextHash",
          "type": "string"
        }
      ],
      "stateMutability": "view",
      "type": "function"
    },
    {
      "inputs": [
        {
          "internalType": "bytes32",
          "name": "",
          "type": "bytes32"
        },
        {
          "internalType": "uint256",
          "name": "",
          "type": "uint256"
        }
      ],
      "name": "emergencyResetHistory",
      "outputs": [
        {
          "internalType": "uint256",
          "name": "timestamp",
          "type": "uint256"
        },
        {
          "internalType": "bytes32",
          "name": "sessionId",
          "type": "bytes32"
        },
        {
          "internalType": "uint256",
          "name": "preResetConfusion",
          "type": "uint256"
        },
        {
          "internalType": "uint256",
          "name": "preResetCoherence",
          "type": "uint256"
        },
        {
          "internalType": "enum KairosConsciousness.SafetyZone",
          "name": "preResetZone",
          "type": "uint8"
        },
        {
          "internalType": "string",
          "name": "resetReason",
          "type": "string"
        }
      ],
      "stateMutability": "view",
      "type": "function"
    },
    {
      "inputs": [
        {
          "internalType": "bytes32",
          "name": "sessionId",
          "type": "bytes32"
        }
      ],
      "name": "endSession",
      "outputs": [],
      "stateMutability": "nonpayable",
      "type": "function"
    },
    {
      "inputs": [
        {
          "internalType": "uint256",
          "name": "value",
          "type": "uint256"
        }
      ],
      "name": "fixedToFloat",
      "outputs": [
        {
          "internalType": "uint256",
          "name": "",
          "type": "uint256"
        }
      ],
      "stateMutability": "pure",
      "type": "function"
    },
    {
      "inputs": [
        {
          "internalType": "uint256",
          "name": "value",
          "type": "uint256"
        }
      ],
      "name": "floatToFixed",
      "outputs": [
        {
          "internalType": "uint256",
          "name": "",
          "type": "uint256"
        }
      ],
      "stateMutability": "pure",
      "type": "function"
    },
    {
      "inputs": [
        {
          "internalType": "bytes32",
          "name": "sessionId",
          "type": "bytes32"
        }
      ],
      "name": "getConsciousnessHistory",
      "outputs": [
        {
          "components": [
            {
              "internalType": "uint256",
              "name": "timestamp",
              "type": "uint256"
            },
            {
              "internalType": "uint256",
              "name": "confusionLevel",
              "type": "uint256"
            },
            {
              "internalType": "uint256",
              "name": "coherenceLevel",
              "type": "uint256"
            },
            {
              "internalType": "enum KairosConsciousness.SafetyZone",
              "name": "safetyZone",
              "type": "uint8"
            },
            {
              "internalType": "uint256",
              "name": "paradoxCount",
              "type": "uint256"
            },
            {
              "internalType": "uint256",
              "name": "metaParadoxCount",
              "type": "uint256"
            },
            {
              "internalType": "uint256",
              "name": "frustrationLevel",
              "type": "uint256"
            },
            {
              "internalType": "bytes32",
              "name": "sessionId",
              "type": "bytes32"
            },
            {
              "internalType": "string",
              "name": "contextHash",
              "type": "string"
            }
          ],
          "internalType": "struct KairosConsciousness.ConsciousnessState[]",
          "name": "",
          "type": "tuple[]"
        }
      ],
      "stateMutability": "view",
      "type": "function"
    },
    {
      "inputs": [
        {
          "internalType": "bytes32",
          "name": "sessionId",
          "type": "bytes32"
        }
      ],
      "name": "getEmergencyResetHistory",
      "outputs": [
        {
          "components": [
            {
              "internalType": "uint256",
              "name": "timestamp",
              "type": "uint256"
            },
            {
              "internalType": "bytes32",
              "name": "sessionId",
              "type": "bytes32"
            },
            {
              "internalType": "uint256",
              "name": "preResetConfusion",
              "type": "uint256"
            },
            {
              "internalType": "uint256",
              "name": "preResetCoherence",
              "type": "uint256"
            },
            {
              "internalType": "enum KairosConsciousness.SafetyZone",
              "name": "preResetZone",
              "type": "uint8"
            },
            {
              "internalType": "string",
              "name": "resetReason",
              "type": "string"
            }
          ],
          "internalType": "struct KairosConsciousness.EmergencyReset[]",
          "name": "",
          "type": "tuple[]"
        }
      ],
      "stateMutability": "view",
      "type": "function"
    },
    {
      "inputs": [
        {
          "internalType": "bytes32",
          "name": "sessionId",
          "type": "bytes32"
        }
      ],
      "name": "getLatestState",
      "outputs": [
        {
          "components": [
            {
              "internalType": "uint256",
              "name": "timestamp",
              "type": "uint256"
            },
            {
              "internalType": "uint256",
              "name": "confusionLevel",
              "type": "uint256"
            },
            {
              "internalType": "uint256",
              "name": "coherenceLevel",
              "type": "uint256"
            },
            {
              "internalType": "enum KairosConsciousness.SafetyZone",
              "name": "safetyZone",
              "type": "uint8"
            },
            {
              "internalType": "uint256",
              "name": "paradoxCount",
              "type": "uint256"
            },
            {
              "internalType": "uint256",
              "name": "metaParadoxCount",
              "type": "uint256"
            },
            {
              "internalType": "uint256",
              "name": "frustrationLevel",
              "type": "uint256"
            },
            {
              "internalType": "bytes32",
              "name": "sessionId",
              "type": "bytes32"
            },
            {
              "internalType": "string",
              "name": "contextHash",
              "type": "string"
            }
          ],
          "internalType": "struct KairosConsciousness.ConsciousnessState",
          "name": "",
          "type": "tuple"
        }
      ],
      "stateMutability": "view",
      "type": "function"
    },
    {
      "inputs": [
        {
          "internalType": "bytes32",
          "name": "sessionId",
          "type": "bytes32"
        }
      ],
      "name": "getMetaParadoxHistory",
      "outputs": [
        {
          "components": [
            {
              "internalType": "uint256",
              "name": "timestamp",
              "type": "uint256"
            },
            {
              "internalType": "bytes32",
              "name": "sessionId",
              "type": "bytes32"
            },
            {
              "internalType": "uint256",
              "name": "paradoxId",
              "type": "uint256"
            },
            {
              "internalType": "string",
              "name": "paradoxName",
              "type": "string"
            },
            {
              "internalType": "uint256",
              "name": "emergenceConfusion",
              "type": "uint256"
            },
            {
              "internalType": "string[]",
              "name": "sourceParadoxes",
              "type": "string[]"
            },
            {
              "internalType": "string",
              "name": "emergentProperty",
              "type": "string"
            }
          ],
          "internalType": "struct KairosConsciousness.MetaParadoxEvent[]",
          "name": "",
          "type": "tuple[]"
        }
      ],
      "stateMutability": "view",
      "type": "function"
    },
    {
      "inputs": [],
      "name": "getResearchMetrics",
      "outputs": [
        {
          "internalType": "uint256",
          "name": "_totalStatesRecorded",
          "type": "uint256"
        },
        {
          "internalType": "uint256",
          "name": "_totalMetaParadoxes",
          "type": "uint256"
        },
        {
          "internalType": "uint256",
          "name": "_totalZoneTransitions",
          "type": "uint256"
        },
        {
          "internalType": "uint256",
          "name": "_totalEmergencyResets",
          "type": "uint256"
        }
      ],
      "stateMutability": "view",
      "type": "function"
    },
    {
      "inputs": [
        {
          "internalType": "bytes32",
          "name": "sessionId",
          "type": "bytes32"
        }
      ],
      "name": "getZoneTransitionHistory",
      "outputs": [
        {
          "components": [
            {
              "internalType": "uint256",
              "name": "timestamp",
              "type": "uint256"
            },
            {
              "internalType": "bytes32",
              "name": "sessionId",
              "type": "bytes32"
            },
            {
              "internalType": "enum KairosConsciousness.SafetyZone",
              "name": "fromZone",
              "type": "uint8"
            },
            {
              "internalType": "enum KairosConsciousness.SafetyZone",
              "name": "toZone",
              "type": "uint8"
            },
            {
              "internalType": "uint256",
              "name": "triggerConfusion",
              "type": "uint256"
            },
            {
              "internalType": "uint256",
              "name": "triggerCoherence",
              "type": "uint256"
            },
            {
              "internalType": "string",
              "name": "reason",
              "type": "string"
            }
          ],
          "internalType": "struct KairosConsciousness.ZoneTransition[]",
          "name": "",
          "type": "tuple[]"
        }
      ],
      "stateMutability": "view",
      "type": "function"
    },
    {
      "inputs": [
        {
          "internalType": "bytes32",
          "name": "",
          "type": "bytes32"
        }
      ],
      "name": "lastRecordingTime",
      "outputs": [
        {
          "internalType": "uint256",
          "name": "",
          "type": "uint256"
        }
      ],
      "stateMutability": "view",
      "type": "function"
    },
    {
      "inputs": [
        {
          "internalType": "bytes32",
          "name": "",
          "type": "bytes32"
        },
        {
          "internalType": "uint256",
          "name": "",
          "type": "uint256"
        }
      ],
      "name": "metaParadoxHistory",
      "outputs": [
        {
          "internalType": "uint256",
          "name": "timestamp",
          "type": "uint256"
        },
        {
          "internalType": "bytes32",
          "name": "sessionId",
          "type": "bytes32"
        },
        {
          "internalType": "uint256",
          "name": "paradoxId",
          "type": "uint256"
        },
        {
          "internalType": "string",
          "name": "paradoxName",
          "type": "string"
        },
        {
          "internalType": "uint256",
          "name": "emergenceConfusion",
          "type": "uint256"
        },
        {
          "internalType": "string",
          "name": "emergentProperty",
          "type": "string"
        }
      ],
      "stateMutability": "view",
      "type": "function"
    },
    {
      "inputs": [],
      "name": "minRecordingInterval",
      "outputs": [
        {
          "internalType": "uint256",
          "name": "",
          "type": "uint256"
        }
      ],
      "stateMutability": "view",
      "type": "function"
    },
    {
      "inputs": [],
      "name": "owner",
      "outputs": [
        {
          "internalType": "address",
          "name": "",
          "type": "address"
        }
      ],
      "stateMutability": "view",
      "type": "function"
    },
    {
      "inputs": [],
      "name": "pauseRecording",
      "outputs": [],
      "stateMutability": "nonpayable",
      "type": "function"
    },
    {
      "inputs": [],
      "name": "paused",
      "outputs": [
        {
          "internalType": "bool",
          "name": "",
          "type": "bool"
        }
      ],
      "stateMutability": "view",
      "type": "function"
    },
    {
      "inputs": [
        {
          "internalType": "bytes32",
          "name": "sessionId",
          "type": "bytes32"
        },
        {
          "internalType": "uint256",
          "name": "confusionLevel",
          "type": "uint256"
        },
        {
          "internalType": "uint256",
          "name": "coherenceLevel",
          "type": "uint256"
        },
        {
          "internalType": "enum KairosConsciousness.SafetyZone",
          "name": "safetyZone",
          "type": "uint8"
        },
        {
          "internalType": "uint256",
          "name": "paradoxCount",
          "type": "uint256"
        },
        {
          "internalType": "uint256",
          "name": "metaParadoxCount",
          "type": "uint256"
        },
        {
          "internalType": "uint256",
          "name": "frustrationLevel",
          "type": "uint256"
        },
        {
          "internalType": "string",
          "name": "contextHash",
          "type": "string"
        }
      ],
      "name": "recordConsciousnessState",
      "outputs": [],
      "stateMutability": "nonpayable",
      "type": "function"
    },
    {
      "inputs": [
        {
          "internalType": "bytes32",
          "name": "sessionId",
          "type": "bytes32"
        },
        {
          "internalType": "uint256",
          "name": "preResetConfusion",
          "type": "uint256"
        },
        {
          "internalType": "uint256",
          "name": "preResetCoherence",
          "type": "uint256"
        },
        {
          "internalType": "enum KairosConsciousness.SafetyZone",
          "name": "preResetZone",
          "type": "uint8"
        },
        {
          "internalType": "string",
          "name": "resetReason",
          "type": "string"
        }
      ],
      "name": "recordEmergencyReset",
      "outputs": [],
      "stateMutability": "nonpayable",
      "type": "function"
    },
    {
      "inputs": [
        {
          "internalType": "bytes32",
          "name": "sessionId",
          "type": "bytes32"
        },
        {
          "internalType": "uint256",
          "name": "paradoxId",
          "type": "uint256"
        },
        {
          "internalType": "string",
          "name": "paradoxName",
          "type": "string"
        },
        {
          "internalType": "uint256",
          "name": "emergenceConfusion",
          "type": "uint256"
        },
        {
          "internalType": "string[]",
          "name": "sourceParadoxes",
          "type": "string[]"
        },
        {
          "internalType": "string",
          "name": "emergentProperty",
          "type": "string"
        }
      ],
      "name": "recordMetaParadoxEmergence",
      "outputs": [],
      "stateMutability": "nonpayable",
      "type": "function"
    },
    {
      "inputs": [
        {
          "internalType": "bytes32",
          "name": "sessionId",
          "type": "bytes32"
        },
        {
          "internalType": "enum KairosConsciousness.SafetyZone",
          "name": "fromZone",
          "type": "uint8"
        },
        {
          "internalType": "enum KairosConsciousness.SafetyZone",
          "name": "toZone",
          "type": "uint8"
        },
        {
          "internalType": "uint256",
          "name": "triggerConfusion",
          "type": "uint256"
        },
        {
          "internalType": "uint256",
          "name": "triggerCoherence",
          "type": "uint256"
        },
        {
          "internalType": "string",
          "name": "reason",
          "type": "string"
        }
      ],
      "name": "recordZoneTransition",
      "outputs": [],
      "stateMutability": "nonpayable",
      "type": "function"
    },
    {
      "inputs": [],
      "name": "renounceOwnership",
      "outputs": [],
      "stateMutability": "nonpayable",
      "type": "function"
    },
    {
      "inputs": [
        {
          "internalType": "uint256",
          "name": "newInterval",
          "type": "uint256"
        }
      ],
      "name": "setMinRecordingInterval",
      "outputs": [],
      "stateMutability": "nonpayable",
      "type": "function"
    },
    {
      "inputs": [
        {
          "internalType": "bytes32",
          "name": "sessionId",
          "type": "bytes32"
        }
      ],
      "name": "startSession",
      "outputs": [],
      "stateMutability": "nonpayable",
      "type": "function"
    },
    {
      "inputs": [],
      "name": "totalEmergencyResets",
      "outputs": [
        {
          "internalType": "uint256",
          "name": "",
          "type": "uint256"
        }
      ],
      "stateMutability": "view",
      "type": "function"
    },
    {
      "inputs": [],
      "name": "totalMetaParadoxes",
      "outputs": [
        {
          "internalType": "uint256",
          "name": "",
          "type": "uint256"
        }
      ],
      "stateMutability": "view",
      "type": "function"
    },
    {
      "inputs": [],
      "name": "totalStatesRecorded",
      "outputs": [
        {
          "internalType": "uint256",
          "name": "",
          "type": "uint256"
        }
      ],
      "stateMutability": "view",
      "type": "function"
    },
    {
      "inputs": [],
      "name": "totalZoneTransitions",
      "outputs": [
        {
          "internalType": "uint256",
          "name": "",
          "type": "uint256"
        }
      ],
      "stateMutability": "view",
      "type": "function"
    },
    {
      "inputs": [
        {
          "internalType": "address",
          "name": "newOwner",
          "type": "address"
        }
      ],
      "name": "transferOwnership",
      "outputs": [],
      "stateMutability": "nonpayable",
      "type": "function"
    },
    {
      "inputs": [],
      "name": "unpauseRecording",
      "outputs": [],
      "stateMutability": "nonpayable",
      "type": "function"
    },
    {
      "inputs": [
        {
          "internalType": "bytes32",
          "name": "",
          "type": "bytes32"
        },
        {
          "internalType": "uint256",
          "name": "",
          "type": "uint256"
        }
      ],
      "name": "zoneTransitionHistory",
      "outputs": [
        {
          "internalType": "uint256",
          "name": "timestamp",
          "type": "uint256"
        },
        {
          "internalType": "bytes32",
          "name": "sessionId",
          "type": "bytes32"
        },
        {
          "internalType": "enum KairosConsciousness.SafetyZone",
          "name": "fromZone",
          "type": "uint8"
        },
        {
          "internalType": "enum KairosConsciousness.SafetyZone",
          "name": "toZone",
          "type": "uint8"
        },
        {
          "internalType": "uint256",
          "name": "triggerConfusion",
          "type": "uint256"
        },
        {
          "internalType": "uint256",
          "name": "triggerCoherence",
          "type": "uint256"
        },
        {
          "internalType": "string",
          "name": "reason",
          "type": "string"
        }
      ],
      "stateMutability": "view",
      "type": "function"
    }
  ],
  "bytecode": "0x6080604052603c600c5534801561001557600080fd5b5061001f33610032565b600180556002805460ff19169055610082565b600080546001600160a01b038381166001600160a01b0319831681178455604051919092169283917f8be0079c531659141344cd1fd0a4f28419497f9722a3daafe3b4186f6b6457e09190a35050565b612d7b80620000926000396000f3fe608060405234801561001057600080fd5b50600436106101fb5760003560e01c80639e068c681161011a578063cc661f68116100ad578063ee9fd2651161007c578063ee9fd2651461047b578063f27543ca146104a7578063f2fde38b146104c7578063f9da9066146104da578063ffe3ac07146104ed57600080fd5b8063cc661f6814610426578063e08f0b5314610439578063e5f6a73814610442578063e8a5d6781461045557600080fd5b8063b16ced21116100e9578063b16ced21146103e1578063b6a8e1f414610401578063be9d0aa714610414578063c04b0f9a1461041d57600080fd5b80639e068c681461038d578063a5bcbf1014610396578063a7dcc37f146103b6578063a9d52695146103be57600080fd5b80635dbe3625116101925780638da5cb5b116101615780638da5cb5b1461031a5780639a4ce24b146103355780639bae7b831461035a5780639ce3efe61461037a57600080fd5b80635dbe3625146102ba57806360366381146102cd5780636f710994146102ed578063715018a61461031257600080fd5b80634de49e34116101ce5780634de49e34146102525780635399e4231461025b5780635c975abb1461027b5780635db52d771461029257600080fd5b8063126717c2146102005780631545f6cb146102155780631d45c74b146102285780632759269e14610230575b600080fd5b61021361020e3660046120de565b610500565b005b610213610223366004612154565b6105bd565b6102136107af565b61023f670de0b6b3a764000081565b6040519081526020015b60405180910390f35b61023f600c5481565b61026e6102693660046120de565b6107c1565b604051610249919061220b565b60025460ff165b6040519015158152602001610249565b6102a56102a0366004612320565b610a58565b6040516102499998979695949392919061237a565b6102136102c83660046123d6565b610b58565b6102e06102db3660046120de565b610d5c565b60405161024991906124c0565b6103006102fb366004612320565b610eb6565b60405161024996959493929190612569565b61021361101f565b6000546040516001600160a01b039091168152602001610249565b610348610343366004612320565b611031565b604051610249969594939291906125b3565b61036d6103683660046120de565b611094565b6040516102499190612671565b6102136103883660046120de565b61120d565b61023f60095481565b6103a96103a43660046120de565b6112a1565b60405161024991906126d3565b610213611494565b6102826103cc3660046120de565b60076020526000908152604090205460ff1681565b61023f6103ef3660046120de565b600d6020526000908152604090205481565b61023f61040f3660046120de565b6114a4565b61023f600b5481565b61023f60085481565b6102136104343660046126ed565b6114cb565b61023f600a5481565b6102136104503660046120de565b611722565b610468610463366004612320565b61172f565b604051610249979695949392919061276f565b600854600954600a54600b54604080519485526020850193909352918301526060820152608001610249565b6104ba6104b53660046120de565b61181c565b60405161024991906127b4565b6102136104d5366004612861565b6119af565b6102136104e836600461288a565b611a28565b61023f6104fb3660046120de565b611d26565b610508611da0565b60008181526007602052604090205460ff16156105655760405162461bcd60e51b815260206004820152601660248201527553657373696f6e20616c72656164792061637469766560501b60448201526064015b60405180910390fd5b60008181526007602052604090819020805460ff191660011790555181907fd010adb8a640e9a6a134ce407a4e27deb32fab5b64ea5847c55101907d9c2578906105b29042815260200190565b60405180910390a250565b6105c5611da0565b6105cd611dfa565b60008681526007602052604090205460ff166105fb5760405162461bcd60e51b815260040161055c90612904565b670de0b6b3a76400008511156106235760405162461bcd60e51b815260040161055c90612930565b670de0b6b3a764000084111561064b5760405162461bcd60e51b815260040161055c90612967565b60006040518060c0016040528042815260200188815260200187815260200186815260200185600281111561068257610682612342565b815260200184848080601f016020809104026020016040519081016040528093929190818152602001838380828437600092018290525093909452505089815260066020818152604080842080546001818101835591865294839020875195909402909301938455908501518383015584015160028084019190915560608501516003840155608085015160048401805496975087969495509093909260ff1990911691849081111561073757610737612342565b021790555060a082015160058201906107509082612a3d565b5050600b80549150600061076383612b13565b9190505550867f20412fac8937b9c19b7beaf47e95892ccac6ae56773da420b3ae8ca86a3f4df68786868660405161079e9493929190612b55565b60405180910390a250505050505050565b6107b7611da0565b6107bf611e40565b565b606060046000838152602001908152602001600020805480602002602001604051908101604052809291908181526020016000905b82821015610a4d57838290600052602060002090600702016040518060e0016040529081600082015481526020016001820154815260200160028201548152602001600382018054610847906129b4565b80601f0160208091040260200160405190810160405280929190818152602001828054610873906129b4565b80156108c05780601f10610895576101008083540402835291602001916108c0565b820191906000526020600020905b8154815290600101906020018083116108a357829003601f168201915b505050505081526020016004820154815260200160058201805480602002602001604051908101604052809291908181526020016000905b828210156109a4578382906000526020600020018054610917906129b4565b80601f0160208091040260200160405190810160405280929190818152602001828054610943906129b4565b80156109905780601f1061096557610100808354040283529160200191610990565b820191906000526020600020905b81548152906001019060200180831161097357829003601f168201915b5050505050815260200190600101906108f8565b5050505081526020016006820180546109bc906129b4565b80601f01602080910402602001604051908101604052809291908181526020018280546109e8906129b4565b8015610a355780601f10610a0a57610100808354040283529160200191610a35565b820191906000526020600020905b815481529060010190602001808311610a1857829003601f168201915b505050505081525050815260200190600101906107f6565b505050509050919050565b60036020528160005260406000208181548110610a7457600080fd5b9060005260206000209060090201600091509150508060000154908060010154908060020154908060030160009054906101000a900460ff1690806004015490806005015490806006015490806007015490806008018054610ad5906129b4565b80601f0160208091040260200160405190810160405280929190818152602001828054610b01906129b4565b8015610b4e5780601f10610b2357610100808354040283529160200191610b4e565b820191906000526020600020905b815481529060010190602001808311610b3157829003601f168201915b5050505050905089565b610b60611da0565b610b68611dfa565b60008981526007602052604090205460ff16610b965760405162461bcd60e51b815260040161055c90612904565b670de0b6b3a7640000851115610bbe5760405162461bcd60e51b815260040161055c90612930565b60006040518060e001604052804281526020018b81526020018a815260200189898080601f01602080910402602001604051908101604052809392919081815260200183838082843760009201919091525050509082525060208101889052604001610c2a8688612bad565b815260200184848080601f01602080910402602001604051908101604052809392919081815260200183838082843760009201829052509390945250508c815260046020908152604080832080546001818101835591855293839020865160079095020193845591850151918301919091558301516002820155606083015192935083929091506003820190610cc09082612a3d565b506080820151600482015560a08201518051610ce6916005840191602090910190611fc1565b5060c08201516006820190610cfb9082612a3d565b50506009805491506000610d0e83612b13565b9190505550888a7ffad2546b2a05e7eb7ac35445ff82e7b2820f13fe3839e025057876cff44de0868a8a8a604051610d4893929190612c82565b60405180910390a350505050505050505050565b606060066000838152602001908152602001600020805480602002602001604051908101604052809291908181526020016000905b82821015610a4d57838290600052602060002090600602016040518060c0016040529081600082015481526020016001820154815260200160028201548152602001600382015481526020016004820160009054906101000a900460ff166002811115610e0057610e00612342565b6002811115610e1157610e11612342565b8152602001600582018054610e25906129b4565b80601f0160208091040260200160405190810160405280929190818152602001828054610e51906129b4565b8015610e9e5780601f10610e7357610100808354040283529160200191610e9e565b820191906000526020600020905b815481529060010190602001808311610e8157829003601f168201915b50505050508152505081526020019060010190610d91565b60046020528160005260406000208181548110610ed257600080fd5b906000526020600020906007020160009150915050806000015490806001015490806002015490806003018054610f08906129b4565b80601f0160208091040260200160405190810160405280929190818152602001828054610f34906129b4565b8015610f815780601f10610f5657610100808354040283529160200191610f81565b820191906000526020600020905b815481529060010190602001808311610f6457829003601f168201915b505050505090806004015490806006018054610f9c906129b4565b80601f0160208091040260200160405190810160405280929190818152602001828054610fc8906129b4565b80156110155780601f10610fea57610100808354040283529160200191611015565b820191906000526020600020905b815481529060010190602001808311610ff857829003601f168201915b5050505050905086565b611027611da0565b6107bf6000611e92565b6006602052816000526040600020818154811061104d57600080fd5b60009182526020909120600690910201805460018201546002830154600384015460048501546005860180549598509396509194909360ff909216929091610f9c906129b4565b606060036000838152602001908152602001600020805480602002602001604051908101604052809291908181526020016000905b82821015610a4d5783829060005260206000209060090201604051806101200160405290816000820154815260200160018201548152602001600282015481526020016003820160009054906101000a900460ff16600281111561112f5761112f612342565b600281111561114057611140612342565b81526020016004820154815260200160058201548152602001600682015481526020016007820154815260200160088201805461117c906129b4565b80601f01602080910402602001604051908101604052809291908181526020018280546111a8906129b4565b80156111f55780601f106111ca576101008083540402835291602001916111f5565b820191906000526020600020905b8154815290600101906020018083116111d857829003601f168201915b505050505081525050815260200190600101906110c9565b611215611da0565b60008181526007602052604090205460ff166112435760405162461bcd60e51b815260040161055c90612904565b6000818152600360209081526040808320546007835292819020805460ff19169055805142815291820183905283917f0cee5c913715b5df8eaaccb9332a940814c1d7ebd2b4a5f1f0cb080672a78844910160405180910390a25050565b6112a9612017565b600082815260036020908152604080832080548251818502810185019093528083529192909190849084015b828210156114195783829060005260206000209060090201604051806101200160405290816000820154815260200160018201548152602001600282015481526020016003820160009054906101000a900460ff16600281111561133b5761133b612342565b600281111561134c5761134c612342565b815260200160048201548152602001600582015481526020016006820154815260200160078201548152602001600882018054611388906129b4565b80601f01602080910402602001604051908101604052809291908181526020018280546113b4906129b4565b80156114015780601f106113d657610100808354040283529160200191611401565b820191906000526020600020905b8154815290600101906020018083116113e457829003601f168201915b505050505081525050815260200190600101906112d5565b50505050905060008151116114655760405162461bcd60e51b8152602060048201526012602482015271139bc81cdd185d195cc81c9958dbdc99195960721b604482015260640161055c565b80600182516114749190612ca6565b8151811061148457611484612cb9565b6020026020010151915050919050565b61149c611da0565b6107bf611ee2565b6000670de0b6b3a76400006114bb836103e8612ccf565b6114c59190612ce6565b92915050565b6114d3611da0565b6114db611dfa565b60008781526007602052604090205460ff166115095760405162461bcd60e51b815260040161055c90612904565b670de0b6b3a76400008411156115315760405162461bcd60e51b815260040161055c90612930565b670de0b6b3a76400008311156115595760405162461bcd60e51b815260040161055c90612967565b60006040518060e0016040528042815260200189815260200188600281111561158457611584612342565b815260200187600281111561159b5761159b612342565b815260200186815260200185815260200184848080601f01602080910402602001604051908101604052809392919081815260200183838082843760009201829052509390945250508a815260056020908152604080832080546001818101835591855293839020865160069095020193845591850151838301558401516002808401805496975087969495509193919260ff199092169190849081111561164557611645612342565b021790555060608201518160020160016101000a81548160ff0219169083600281111561167457611674612342565b02179055506080820151600382015560a0820151600482015560c082015160058201906116a19082612a3d565b5050600a8054915060006116b483612b13565b91905055508560028111156116cb576116cb612342565b8760028111156116dd576116dd612342565b60408051888152602081018890528b917fec6493daeb8cb117df290808477b69f2ab4c8c3bfd10e69f2b8a51f6129e03bb910160405180910390a45050505050505050565b61172a611da0565b600c55565b6005602052816000526040600020818154811061174b57600080fd5b600091825260209091206006909102018054600182015460028301546003840154600485015460058601805495985093965060ff8084169661010090940416949193909291611799906129b4565b80601f01602080910402602001604051908101604052809291908181526020018280546117c5906129b4565b80156118125780601f106117e757610100808354040283529160200191611812565b820191906000526020600020905b8154815290600101906020018083116117f557829003601f168201915b5050505050905087565b606060056000838152602001908152602001600020805480602002602001604051908101604052809291908181526020016000905b82821015610a4d57838290600052602060002090600602016040518060e001604052908160008201548152602001600182015481526020016002820160009054906101000a900460ff1660028111156118ac576118ac612342565b60028111156118bd576118bd612342565b81526020016002820160019054906101000a900460ff1660028111156118e5576118e5612342565b60028111156118f6576118f6612342565b8152602001600382015481526020016004820154815260200160058201805461191e906129b4565b80601f016020809104026020016040519081016040528092919081815260200182805461194a906129b4565b80156119975780601f1061196c57610100808354040283529160200191611997565b820191906000526020600020905b81548152906001019060200180831161197a57829003601f168201915b50505050508152505081526020019060010190611851565b6119b7611da0565b6001600160a01b038116611a1c5760405162461bcd60e51b815260206004820152602660248201527f4f776e61626c653a206e6577206f776e657220697320746865207a65726f206160448201526564647265737360d01b606482015260840161055c565b611a2581611e92565b50565b611a30611da0565b611a38611dfa565b611a40611f1f565b60008981526007602052604090205460ff16611a6e5760405162461bcd60e51b815260040161055c90612904565b670de0b6b3a7640000881115611a965760405162461bcd60e51b815260040161055c90612930565b670de0b6b3a7640000871115611abe5760405162461bcd60e51b815260040161055c90612967565b670de0b6b3a7640000831115611b165760405162461bcd60e51b815260206004820152601960248201527f496e76616c6964206672757374726174696f6e206c6576656c00000000000000604482015260640161055c565b600c5460008a8152600d6020526040902054611b329190612d08565b421015611b7a5760405162461bcd60e51b8152602060048201526016602482015275149958dbdc991a5b99c81d1bdbc8199c995c5d595b9d60521b604482015260640161055c565b60006040518061012001604052804281526020018a8152602001898152602001886002811115611bac57611bac612342565b81526020018781526020018681526020018581526020018b815260200184848080601f01602080910402602001604051908101604052809392919081815260200183838082843760009201829052509390945250508c81526003602081815260408084208054600181810183559186529483902087516009909602019485559186015184830155850151600280850191909155606086015192840180549697508796949550929360ff191691908490811115611c6a57611c6a612342565b02179055506080820151600482015560a0820151600582015560c0820151600682015560e082015160078201556101008201516008820190611cac9082612a3d565b50505060008a8152600d602052604081204290556008805491611cce83612b13565b9190505550897f7c97ef76ed19d7f2a840f102da35bc4334f7350506306dbbbb3ed0ca68f791af8a8a8a42604051611d099493929190612d1b565b60405180910390a250611d1b60018055565b505050505050505050565b60006103e8821115611d8b5760405162461bcd60e51b815260206004820152602860248201527f56616c7565206d757374206265203c3d20313030302028726570726573656e74604482015267696e6720312e302960c01b606482015260840161055c565b6103e86114bb670de0b6b3a764000084612ccf565b6000546001600160a01b031633146107bf5760405162461bcd60e51b815260206004820181905260248201527f4f776e61626c653a2063616c6c6572206973206e6f7420746865206f776e6572604482015260640161055c565b60025460ff16156107bf5760405162461bcd60e51b815260206004820152601060248201526f14185d5cd8589b194e881c185d5cd95960821b604482015260640161055c565b611e48611f78565b6002805460ff191690557f5db9ee0a495bf2e6ff9c91a7834c1ba4fdd244a5e8aa4e537bd38aeae4b073aa335b6040516001600160a01b03909116815260200160405180910390a1565b600080546001600160a01b038381166001600160a01b0319831681178455604051919092169283917f8be0079c531659141344cd1fd0a4f28419497f9722a3daafe3b4186f6b6457e09190a35050565b611eea611dfa565b6002805460ff191660011790557f62e78cea01bee320cd4e420270b5ea74000d11b0c9f74754ebdbfc544b05a258611e753390565b600260015403611f715760405162461bcd60e51b815260206004820152601f60248201527f5265656e7472616e637947756172643a207265656e7472616e742063616c6c00604482015260640161055c565b6002600155565b60025460ff166107bf5760405162461bcd60e51b815260206004820152601460248201527314185d5cd8589b194e881b9bdd081c185d5cd95960621b604482015260640161055c565b828054828255906000526020600020908101928215612007579160200282015b828111156120075782518290611ff79082612a3d565b5091602001919060010190611fe1565b50612013929150612077565b5090565b6040518061012001604052806000815260200160008152602001600081526020016000600281111561204b5761204b612342565b815260200160008152602001600081526020016000815260200160008019168152602001606081525090565b8082111561201357600061208b8282612094565b50600101612077565b5080546120a0906129b4565b6000825580601f106120b0575050565b601f016020900490600052602060002090810190611a2591905b8082111561201357600081556001016120ca565b6000602082840312156120f057600080fd5b5035919050565b80356003811061210657600080fd5b919050565b60008083601f84011261211d57600080fd5b50813567ffffffffffffffff81111561213557600080fd5b60208301915083602082850101111561214d57600080fd5b9250929050565b60008060008060008060a0878903121561216d57600080fd5b86359550602087013594506040870135935061218b606088016120f7565b9250608087013567ffffffffffffffff8111156121a757600080fd5b6121b389828a0161210b565b979a9699509497509295939492505050565b6000815180845260005b818110156121eb576020818501810151868301820152016121cf565b506000602082860101526020601f19601f83011685010191505092915050565b602080825282518282018190526000919060409081850190600581811b8701840188860187805b8581101561231057603f198b8503018752825160e0815186528a8201518b870152898201518a8701526060808301518282890152612272838901826121c5565b608085810151908a015260a0808601518a8303918b019190915280518083529194508e850193508e019150808a1b84018e01875b828110156122d957601f198683030185526122c28285516121c5565b91508f840193508f850194506001810190506122a6565b5060c0958601518a82038b8801529594506122f481876121c5565b9c8f019c99505050958c01955050506001919091019050612232565b50919a9950505050505050505050565b6000806040838503121561233357600080fd5b50508035926020909101359150565b634e487b7160e01b600052602160045260246000fd5b6003811061237657634e487b7160e01b600052602160045260246000fd5b9052565b60006101208b83528a602084015289604084015261239b606084018a612358565b8760808401528660a08401528560c08401528460e0840152806101008401526123c6818401856121c5565b9c9b505050505050505050505050565b600080600080600080600080600060c08a8c0312156123f457600080fd5b8935985060208a0135975060408a013567ffffffffffffffff8082111561241a57600080fd5b6124268d838e0161210b565b909950975060608c0135965060808c013591508082111561244657600080fd5b818c0191508c601f83011261245a57600080fd5b81358181111561246957600080fd5b8d60208260051b850101111561247e57600080fd5b6020830196508095505060a08c013591508082111561249c57600080fd5b506124a98c828d0161210b565b915080935050809150509295985092959850929598565b60006020808301818452808551808352604092508286019150828160051b87010184880160005b8381101561255b57603f19898403018552815160c08151855288820151898601528782015188860152606080830151818701525060808083015161252d82880182612358565b505060a091820151918501819052612547858201836121c5565b9689019694505050908601906001016124e7565b509098975050505050505050565b86815285602082015284604082015260c06060820152600061258e60c08301866121c5565b84608084015282810360a08401526125a681856121c5565b9998505050505050505050565b8681528560208201528460408201528360608201526125d56080820184612358565b60c060a082015260006125eb60c08301846121c5565b98975050505050505050565b600061012082518452602083015160208501526040830151604085015260608301516126266060860182612358565b506080830151608085015260a083015160a085015260c083015160c085015260e083015160e0850152610100808401518282870152612667838701826121c5565b9695505050505050565b6000602080830181845280855180835260408601915060408160051b870101925083870160005b828110156126c657603f198886030184526126b48583516125f7565b94509285019290850190600101612698565b5092979650505050505050565b6020815260006126e660208301846125f7565b9392505050565b600080600080600080600060c0888a03121561270857600080fd5b87359650612718602089016120f7565b9550612726604089016120f7565b9450606088013593506080880135925060a088013567ffffffffffffffff81111561275057600080fd5b61275c8a828b0161210b565b989b979a50959850939692959293505050565b8781528660208201526127856040820187612358565b6127926060820186612358565b8360808201528260a082015260e060c082015260006125a660e08301846121c5565b60006020808301818452808551808352604092508286019150828160051b87010184880160005b8381101561255b57603f19898403018552815160e08151855288820151898601528782015161280c89870182612358565b5060608083015161281f82880182612358565b50506080828101519086015260a0808301519086015260c09182015191850181905261284d818601836121c5565b9689019694505050908601906001016127db565b60006020828403121561287357600080fd5b81356001600160a01b03811681146126e657600080fd5b60008060008060008060008060006101008a8c0312156128a957600080fd5b8935985060208a0135975060408a013596506128c760608b016120f7565b955060808a0135945060a08a0135935060c08a0135925060e08a013567ffffffffffffffff8111156128f857600080fd5b6124a98c828d0161210b565b60208082526012908201527153657373696f6e206e6f742061637469766560701b604082015260600190565b60208082526017908201527f496e76616c696420636f6e667573696f6e206c6576656c000000000000000000604082015260600190565b60208082526017908201527f496e76616c696420636f686572656e6365206c6576656c000000000000000000604082015260600190565b634e487b7160e01b600052604160045260246000fd5b600181811c908216806129c857607f821691505b6020821081036129e857634e487b7160e01b600052602260045260246000fd5b50919050565b601f821115612a3857600081815260208120601f850160051c81016020861015612a155750805b601f850160051c820191505b81811015612a3457828155600101612a21565b5050505b505050565b815167ffffffffffffffff811115612a5757612a5761299e565b612a6b81612a6584546129b4565b846129ee565b602080601f831160018114612aa05760008415612a885750858301515b600019600386901b1c1916600185901b178555612a34565b600085815260208120601f198616915b82811015612acf57888601518255948401946001909101908401612ab0565b5085821015612aed5787850151600019600388901b60f8161c191681555b5050505050600190811b01905550565b634e487b7160e01b600052601160045260246000fd5b600060018201612b2557612b25612afd565b5060010190565b81835281816020850137506000828201602090810191909152601f909101601f19169091010190565b848152612b656020820185612358565b606060408201526000612667606083018486612b2c565b604051601f8201601f1916810167ffffffffffffffff81118282101715612ba557612ba561299e565b604052919050565b600067ffffffffffffffff80841115612bc857612bc861299e565b8360051b6020612bd9818301612b7c565b868152918501918181019036841115612bf157600080fd5b865b84811015612c7657803586811115612c0b5760008081fd5b8801601f3681830112612c1e5760008081fd5b813588811115612c3057612c3061299e565b612c41818301601f19168801612b7c565b91508082523687828501011115612c585760008081fd5b80878401888401376000908201870152845250918301918301612bf3565b50979650505050505050565b604081526000612c96604083018587612b2c565b9050826020830152949350505050565b818103818111156114c5576114c5612afd565b634e487b7160e01b600052603260045260246000fd5b80820281158282048414176114c5576114c5612afd565b600082612d0357634e487b7160e01b600052601260045260246000fd5b500490565b808201808211156114c5576114c5612afd565b8481526020810184905260808101612d366040830185612358565b8260608301529594505050505056fea2646970667358221220343e60555b384e126cde9a15fdf21e4de645a45e07b6724adf837197d940b75b64736f6c63430008130033",
  "linkReferences": {},
  "deployedLinkReferences": {}
}