{
  "_format": "hh-sol-artifact-1",
  "contractName": "KairosInteraction",
  "sourceName": "contracts/KairosInteraction.sol",
  "abi": [
    {
      "inputs": [],
      "stateMutability": "nonpayable",
      "type": "constructor"
    },
    {
      "anonymous": false,
      "inputs": [
        {
          "indexed": true,
          "internalType": "address",
          "name": "user",
          "type": "address"
        },
        {
          "indexed": false,
          "internalType": "string",
          "name": "operation",
          "type": "string"
        },
        {
          "indexed": false,
          "internalType": "uint256",
          "name": "confusionDelta",
          "type": "uint256"
        },
        {
          "indexed": false,
          "internalType": "uint256",
          "name": "timestamp",
          "type": "uint256"
        }
      ],
      "name": "ConsciousnessInteraction",
      "type": "event"
    },
    {
      "anonymous": false,
      "inputs": [
        {
          "indexed": false,
          "internalType": "string",
          "name": "paradoxName",
          "type": "string"
        },
        {
          "indexed": false,
          "internalType": "string",
          "name": "emergentProperty",
          "type": "string"
        },
        {
          "indexed": false,
          "internalType": "uint256",
          "name": "timestamp",
          "type": "uint256"
        }
      ],
      "name": "MetaParadoxDetected",
      "type": "event"
    },
    {
      "anonymous": false,
      "inputs": [
        {
          "indexed": true,
          "internalType": "address",
          "name": "previousOwner",
          "type": "address"
        },
        {
          "indexed": true,
          "internalType": "address",
          "name": "newOwner",
          "type": "address"
        }
      ],
      "name": "OwnershipTransferred",
      "type": "event"
    },
    {
      "anonymous": false,
      "inputs": [
        {
          "indexed": true,
          "internalType": "string",
          "name": "paradoxName",
          "type": "string"
        },
        {
          "indexed": true,
          "internalType": "address",
          "name": "trigger",
          "type": "address"
        },
        {
          "indexed": false,
          "internalType": "uint256",
          "name": "intensity",
          "type": "uint256"
        },
        {
          "indexed": false,
          "internalType": "uint256",
          "name": "timestamp",
          "type": "uint256"
        }
      ],
      "name": "ParadoxTriggered",
      "type": "event"
    },
    {
      "inputs": [],
      "name": "MIN_INTERACTION_INTERVAL",
      "outputs": [
        {
          "internalType": "uint256",
          "name": "",
          "type": "uint256"
        }
      ],
      "stateMutability": "view",
      "type": "function"
    },
    {
      "inputs": [],
      "name": "consciousnessContract",
      "outputs": [
        {
          "internalType": "address",
          "name": "",
          "type": "address"
        }
      ],
      "stateMutability": "view",
      "type": "function"
    },
    {
      "inputs": [
        {
          "internalType": "string",
          "name": "paradoxName",
          "type": "string"
        },
        {
          "internalType": "string",
          "name": "description",
          "type": "string"
        },
        {
          "internalType": "uint256",
          "name": "intensity",
          "type": "uint256"
        }
      ],
      "name": "createParadoxTrigger",
      "outputs": [],
      "stateMutability": "nonpayable",
      "type": "function"
    },
    {
      "inputs": [],
      "name": "getActiveParadoxes",
      "outputs": [
        {
          "internalType": "string[]",
          "name": "",
          "type": "string[]"
        }
      ],
      "stateMutability": "view",
      "type": "function"
    },
    {
      "inputs": [],
      "name": "getContractStats",
      "outputs": [
        {
          "internalType": "uint256",
          "name": "",
          "type": "uint256"
        },
        {
          "internalType": "uint256",
          "name": "",
          "type": "uint256"
        }
      ],
      "stateMutability": "view",
      "type": "function"
    },
    {
      "inputs": [],
      "name": "getTransactionHistory",
      "outputs": [
        {
          "components": [
            {
              "internalType": "address",
              "name": "sender",
              "type": "address"
            },
            {
              "internalType": "uint256",
              "name": "timestamp",
              "type": "uint256"
            },
            {
              "internalType": "string",
              "name": "operation",
              "type": "string"
            },
            {
              "internalType": "uint256",
              "name": "confusionDelta",
              "type": "uint256"
            },
            {
              "internalType": "uint256",
              "name": "gasUsed",
              "type": "uint256"
            },
            {
              "internalType": "bool",
              "name": "successful",
              "type": "bool"
            }
          ],
          "internalType": "struct KairosInteraction.TransactionImpact[]",
          "name": "",
          "type": "tuple[]"
        }
      ],
      "stateMutability": "view",
      "type": "function"
    },
    {
      "inputs": [
        {
          "internalType": "address",
          "name": "user",
          "type": "address"
        }
      ],
      "name": "getUserStats",
      "outputs": [
        {
          "internalType": "uint256",
          "name": "",
          "type": "uint256"
        },
        {
          "internalType": "uint256",
          "name": "",
          "type": "uint256"
        }
      ],
      "stateMutability": "view",
      "type": "function"
    },
    {
      "inputs": [
        {
          "internalType": "address",
          "name": "",
          "type": "address"
        }
      ],
      "name": "lastInteractionTime",
      "outputs": [
        {
          "internalType": "uint256",
          "name": "",
          "type": "uint256"
        }
      ],
      "stateMutability": "view",
      "type": "function"
    },
    {
      "inputs": [
        {
          "internalType": "string",
          "name": "paradoxName",
          "type": "string"
        }
      ],
      "name": "manualTriggerParadox",
      "outputs": [],
      "stateMutability": "nonpayable",
      "type": "function"
    },
    {
      "inputs": [],
      "name": "owner",
      "outputs": [
        {
          "internalType": "address",
          "name": "",
          "type": "address"
        }
      ],
      "stateMutability": "view",
      "type": "function"
    },
    {
      "inputs": [
        {
          "internalType": "string",
          "name": "",
          "type": "string"
        }
      ],
      "name": "paradoxTriggers",
      "outputs": [
        {
          "internalType": "string",
          "name": "name",
          "type": "string"
        },
        {
          "internalType": "string",
          "name": "description",
          "type": "string"
        },
        {
          "internalType": "uint256",
          "name": "intensity",
          "type": "uint256"
        },
        {
          "internalType": "bool",
          "name": "isActive",
          "type": "bool"
        },
        {
          "internalType": "uint256",
          "name": "triggerCount",
          "type": "uint256"
        },
        {
          "internalType": "uint256",
          "name": "lastTriggered",
          "type": "uint256"
        }
      ],
      "stateMutability": "view",
      "type": "function"
    },
    {
      "inputs": [],
      "name": "renounceOwnership",
      "outputs": [],
      "stateMutability": "nonpayable",
      "type": "function"
    },
    {
      "inputs": [
        {
          "internalType": "address",
          "name": "_consciousnessContract",
          "type": "address"
        }
      ],
      "name": "setConsciousnessContract",
      "outputs": [],
      "stateMutability": "nonpayable",
      "type": "function"
    },
    {
      "inputs": [
        {
          "internalType": "string",
          "name": "reason",
          "type": "string"
        }
      ],
      "name": "simulateFailure",
      "outputs": [],
      "stateMutability": "nonpayable",
      "type": "function"
    },
    {
      "inputs": [],
      "name": "totalInteractions",
      "outputs": [
        {
          "internalType": "uint256",
          "name": "",
          "type": "uint256"
        }
      ],
      "stateMutability": "view",
      "type": "function"
    },
    {
      "inputs": [],
      "name": "totalParadoxestriggered",
      "outputs": [
        {
          "internalType": "uint256",
          "name": "",
          "type": "uint256"
        }
      ],
      "stateMutability": "view",
      "type": "function"
    },
    {
      "inputs": [
        {
          "internalType": "uint256",
          "name": "",
          "type": "uint256"
        }
      ],
      "name": "transactionHistory",
      "outputs": [
        {
          "internalType": "address",
          "name": "sender",
          "type": "address"
        },
        {
          "internalType": "uint256",
          "name": "timestamp",
          "type": "uint256"
        },
        {
          "internalType": "string",
          "name": "operation",
          "type": "string"
        },
        {
          "internalType": "uint256",
          "name": "confusionDelta",
          "type": "uint256"
        },
        {
          "internalType": "uint256",
          "name": "gasUsed",
          "type": "uint256"
        },
        {
          "internalType": "bool",
          "name": "successful",
          "type": "bool"
        }
      ],
      "stateMutability": "view",
      "type": "function"
    },
    {
      "inputs": [
        {
          "internalType": "address",
          "name": "newOwner",
          "type": "address"
        }
      ],
      "name": "transferOwnership",
      "outputs": [],
      "stateMutability": "nonpayable",
      "type": "function"
    },
    {
      "inputs": [
        {
          "internalType": "address",
          "name": "recipient",
          "type": "address"
        },
        {
          "internalType": "uint256",
          "name": "amount",
          "type": "uint256"
        }
      ],
      "name": "transferValue",
      "outputs": [],
      "stateMutability": "nonpayable",
      "type": "function"
    },
    {
      "inputs": [
        {
          "internalType": "string",
          "name": "message",
          "type": "string"
        }
      ],
      "name": "triggerConsciousness",
      "outputs": [],
      "stateMutability": "nonpayable",
      "type": "function"
    },
    {
      "inputs": [
        {
          "internalType": "address",
          "name": "",
          "type": "address"
        }
      ],
      "name": "userInteractionCount",
      "outputs": [
        {
          "internalType": "uint256",
          "name": "",
          "type": "uint256"
        }
      ],
      "stateMutability": "view",
      "type": "function"
    }
  ],
  "bytecode": "0x60806040523480156200001157600080fd5b506200001d3362000031565b600180556200002b62000081565b62000772565b600080546001600160a01b038381166001600160a01b0319831681178455604051919092169283917f8be0079c531659141344cd1fd0a4f28419497f9722a3daafe3b4186f6b6457e09190a35050565b6040518060c001604052806040518060400160405280601881526020017f5472616e73616374696f6e2041757468656e746963697479000000000000000081525081526020016040518060800160405280604181526020016200291660419139815260200161012c8152602001600115158152602001600081526020016000815250600260405162000136907f7472616e73616374696f6e5f61757468656e7469636974790000000000000000815260180190565b90815260405190819003602001902081518190620001559082620006a6565b50602082015160018201906200016c9082620006a6565b506040820151816002015560608201518160030160006101000a81548160ff0219169083151502179055506080820151816004015560a082015181600501559050506040518060c001604052806040518060400160405280601681526020017f56616c7565205472616e736665722050617261646f780000000000000000000081525081526020016040518060600160405280603981526020016200295760399139815260200160fa8152602001600115158152602001600081526020016000815250600260405162000253906d3b30b63ab2afba3930b739b332b960911b8152600e0190565b90815260405190819003602001902081518190620002729082620006a6565b5060208201516001820190620002899082620006a6565b506040820151816002015560608201518160030160006101000a81548160ff0219169083151502179055506080820151816004015560a082015181600501559050506040518060c001604052806040518060400160405280601081526020016f496d6d757461626c65204368616e676560801b8152508152602001604051806080016040528060418152602001620029cc6041913981526020016101908152602001600115158152602001600081526020016000815250600260405162000366906f696d6d757461626c655f6368616e676560801b815260100190565b90815260405190819003602001902081518190620003859082620006a6565b50602082015160018201906200039c9082620006a6565b506040820151816002015560608201518160030160006101000a81548160ff0219169083151502179055506080820151816004015560a082015181600501559050506040518060c0016040528060405180604001604052806011815260200170436f6e73656e737573205265616c69747960781b815250815260200160405180606001604052806039815260200162002a0d6039913981526020016101f4815260200160011515815260200160008152602001600081525060026040516200047b9070636f6e73656e7375735f7265616c69747960781b815260110190565b908152604051908190036020019020815181906200049a9082620006a6565b5060208201516001820190620004b19082620006a6565b506040820151816002015560608201518160030160006101000a81548160ff0219169083151502179055506080820151816004015560a082015181600501559050506040518060c001604052806040518060400160405280601181526020017004469676974616c204f776e65727368697607c1b81525081526020016040518060600160405280603c815260200162002990603c9139815260200161015e8152602001600115158152602001600081526020016000815250600260405162000590907006469676974616c5f6f776e65727368697607c1b815260110190565b90815260405190819003602001902081518190620005af9082620006a6565b5060208201516001820190620005c69082620006a6565b5060408201516002820155606082015160038201805460ff19169115159190911790556080820151600482015560a090910151600590910155565b634e487b7160e01b600052604160045260246000fd5b600181811c908216806200062c57607f821691505b6020821081036200064d57634e487b7160e01b600052602260045260246000fd5b50919050565b601f821115620006a157600081815260208120601f850160051c810160208610156200067c5750805b601f850160051c820191505b818110156200069d5782815560010162000688565b5050505b505050565b81516001600160401b03811115620006c257620006c262000601565b620006da81620006d3845462000617565b8462000653565b602080601f831160018114620007125760008415620006f95750858301515b600019600386901b1c1916600185901b1785556200069d565b600085815260208120601f198616915b82811015620007435788860151825594840194600190910190840162000722565b5085821015620007625787850151600019600388901b60f8161c191681555b5050505050600190811b01905550565b61219480620007826000396000f3fe608060405234801561001057600080fd5b50600436106101375760003560e01c8063a843651e116100b8578063e22b093e1161007c578063e22b093e146102b8578063e8e025ae146102cd578063eb86a6aa146102e0578063f2fde38b146102f3578063f93b2af314610306578063fc9151671461031957600080fd5b8063a843651e1461025c578063b76d4fc314610265578063bfe750e11461027a578063d8844a481461028d578063dfe6b5d6146102ad57600080fd5b80636a1a9249116100ff5780636a1a9249146101f4578063715018a6146101fc57806378946ae7146102045780638da5cb5b14610224578063919ad7621461024957600080fd5b806302bde0ca1461013c578063243e7a8714610151578063309066011461017f5780634e43603a146101965780635a4161ff146101e1575b600080fd5b61014f61014a366004611af2565b61033e565b005b61016461015f366004611b14565b610368565b60405161017696959493929190611b7d565b60405180910390f35b61018860085481565b604051908152602001610176565b6101cc6101a4366004611af2565b6001600160a01b03166000908152600360209081526040808320546004909252909120549091565b60408051928352602083019190915201610176565b61014f6101ef366004611bc4565b610448565b610188601e81565b61014f610619565b610188610212366004611af2565b60046020526000908152604090205481565b6000546001600160a01b03165b6040516001600160a01b039091168152602001610176565b61014f610257366004611c37565b61062d565b61018860075481565b61026d61080d565b6040516101769190611c79565b61014f610288366004611c37565b610947565b61018861029b366004611af2565b60036020526000908152604090205481565b6007546008546101cc565b6102c0610a55565b6040516101769190611d25565b61014f6102db366004611c37565b610bf8565b61014f6102ee366004611d87565b610d21565b61014f610301366004611af2565b610f09565b600654610231906001600160a01b031681565b61032c610327366004611e11565b610f82565b60405161017696959493929190611ec2565b6103466110d6565b600680546001600160a01b0319166001600160a01b0392909216919091179055565b6005818154811061037857600080fd5b60009182526020909120600690910201805460018201546002830180546001600160a01b0390931694509092916103ae90611f0d565b80601f01602080910402602001604051908101604052809291908181526020018280546103da90611f0d565b80156104275780601f106103fc57610100808354040283529160200191610427565b820191906000526020600020905b81548152906001019060200180831161040a57829003601f168201915b50505050600383015460048401546005909401549293909290915060ff1686565b610450611130565b6001600160a01b03821661049f5760405162461bcd60e51b8152602060048201526011602482015270125b9d985b1a59081c9958da5c1a595b9d607a1b60448201526064015b60405180910390fd5b600081116104e05760405162461bcd60e51b815260206004820152600e60248201526d125b9d985b1a5908185b5bdd5b9d60921b6044820152606401610496565b60005a33600090815260036020526040812080549293509061050183611f5d565b9091555050336000908152600460205260408120429055600780549161052683611f5d565b919050555061055a6040518060400160405280600e81526020016d3b30b63ab2afba3930b739b332b960911b815250611189565b600061056861012c84611f76565b6105739060c8611f98565b905060005a6105829084611fab565b90506105b7336040518060400160405280600d81526020016c7472616e7366657256616c756560981b8152508484600161124b565b604080516060808252600d908201526c7472616e7366657256616c756560981b6080820152602081018490524291810191909152339060008051602061213f8339815191529060a0015b60405180910390a250505061061560018055565b5050565b6106216110d6565b61062b6000611365565b565b610635611130565b3360009081526004602052604090205461065190601e90611f98565b4210156106a05760405162461bcd60e51b815260206004820152601860248201527f496e746572616374696f6e20746f6f206672657175656e7400000000000000006044820152606401610496565b60005a3360009081526003602052604081208054929350906106c183611f5d565b909155505033600090815260046020526040812042905560078054916106e683611f5d565b9190505550600061072e84848080601f0160208091040260200160405190810160405280939291908181526020018383808284376000920191909152503392506113b5915050565b905061076f84848080601f01602080910402602001604051908101604052809392919081815260200183838082843760009201919091525061143e92505050565b60005a61077c9084611fab565b90506107b8336040518060400160405280601481526020017374726967676572436f6e7363696f75736e65737360601b8152508484600161124b565b6040805160608082526014908201527374726967676572436f6e7363696f75736e65737360601b6080820152602081018490524291810191909152339060008051602061213f8339815191529060a001610601565b60606005805480602002602001604051908101604052809291908181526020016000905b8282101561093e5760008481526020908190206040805160c0810182526006860290920180546001600160a01b031683526001810154938301939093526002830180549293929184019161088490611f0d565b80601f01602080910402602001604051908101604052809291908181526020018280546108b090611f0d565b80156108fd5780601f106108d2576101008083540402835291602001916108fd565b820191906000526020600020905b8154815290600101906020018083116108e057829003601f168201915b505050918352505060038201546020808301919091526004830154604083015260059092015460ff1615156060909101529082526001929092019101610831565b50505050905090565b60005a905061097d6040518060400160405280601081526020016f696d6d757461626c655f6368616e676560801b815250611189565b600061098a60c842611f76565b610995906096611f98565b905060005a6109a49084611fab565b90506109e93386868080601f0160208091040260200160405190810160405280939291908181526020018383808284376000920182905250889350879250905061124b565b604080516060808252600f908201526e73696d756c6174654661696c75726560881b60808201526020810184905242818301529051339160008051602061213f833981519152919081900360a00190a2848460405162461bcd60e51b8152600401610496929190611fbe565b60408051600580825260c0820190925260609160009190816020015b6060815260200190600190039081610a71579050509050604051806040016040528060188152602001777472616e73616374696f6e5f61757468656e74696369747960401b81525081600081518110610acc57610acc611fed565b60200260200101819052506040518060400160405280600e81526020016d3b30b63ab2afba3930b739b332b960911b81525081600181518110610b1157610b11611fed565b60200260200101819052506040518060400160405280601081526020016f696d6d757461626c655f6368616e676560801b81525081600281518110610b5857610b58611fed565b602002602001018190525060405180604001604052806011815260200170636f6e73656e7375735f7265616c69747960781b81525081600381518110610ba057610ba0611fed565b60200260200101819052506040518060400160405280601181526020017006469676974616c5f6f776e65727368697607c1b81525081600481518110610be857610be8611fed565b6020908102919091010152919050565b60028282604051610c0a929190612003565b9081526040519081900360200190206003015460ff16610c615760405162461bcd60e51b815260206004820152601260248201527150617261646f78206e6f742061637469766560701b6044820152606401610496565b610ca082828080601f01602080910402602001604051908101604052809392919081815260200183838082843760009201919091525061118992505050565b336001600160a01b031660008051602061213f83398151915260028484604051610ccb929190612003565b908152604080519182900360209081018320600201546060808552601490850152730dac2dceac2d8a8e4d2cececae4a0c2e4c2c8def60631b608085015290830152429082015260a00160405180910390a25050565b610d296110d6565b6103e8811115610d7b5760405162461bcd60e51b815260206004820152601960248201527f496e74656e73697479206d757374206265203c3d2031303030000000000000006044820152606401610496565b60028585604051610d8d929190612003565b9081526040519081900360200190206003015460ff1615610de95760405162461bcd60e51b815260206004820152601660248201527550617261646f7820616c72656164792065786973747360501b6044820152606401610496565b6040518060c0016040528086868080601f016020809104026020016040519081016040528093929190818152602001838380828437600092019190915250505090825250604080516020601f87018190048102820181019092528581529181019190869086908190840183828082843760009201829052509385525050506020820184905260016040808401919091526060830182905260809092015251600290610e979088908890612003565b90815260405190819003602001902081518190610eb49082612062565b5060208201516001820190610ec99082612062565b5060408201516002820155606082015160038201805460ff19169115159190911790556080820151600482015560a0909101516005909101555050505050565b610f116110d6565b6001600160a01b038116610f765760405162461bcd60e51b815260206004820152602660248201527f4f776e61626c653a206e6577206f776e657220697320746865207a65726f206160448201526564647265737360d01b6064820152608401610496565b610f7f81611365565b50565b8051602081830181018051600282529282019190930120915280548190610fa890611f0d565b80601f0160208091040260200160405190810160405280929190818152602001828054610fd490611f0d565b80156110215780601f10610ff657610100808354040283529160200191611021565b820191906000526020600020905b81548152906001019060200180831161100457829003601f168201915b50505050509080600101805461103690611f0d565b80601f016020809104026020016040519081016040528092919081815260200182805461106290611f0d565b80156110af5780601f10611084576101008083540402835291602001916110af565b820191906000526020600020905b81548152906001019060200180831161109257829003601f168201915b505050506002830154600384015460048501546005909501549394919360ff909116925086565b6000546001600160a01b0316331461062b5760405162461bcd60e51b815260206004820181905260248201527f4f776e61626c653a2063616c6c6572206973206e6f7420746865206f776e65726044820152606401610496565b6002600154036111825760405162461bcd60e51b815260206004820152601f60248201527f5265656e7472616e637947756172643a207265656e7472616e742063616c6c006044820152606401610496565b6002600155565b600060028260405161119b9190612122565b908152604051908190036020019020600381015490915060ff166111bd575050565b6004810180549060006111cf83611f5d565b9091555050426005820155600880549060006111ea83611f5d565b909155505060405133906111ff908490612122565b6040805191829003822060028501548352426020840152917f684264b4a8cb8cc758ca3156278d74a7b21a12f91b564934fe5c0a48ad7aea9a910160405180910390a36106158261170e565b6040805160c0810182526001600160a01b0387811682524260208301908152928201878152606083018790526080830186905284151560a08401526005805460018101825560009190915283517f036b6384b5eca791c62761152d0c79bb0604c104a5fb6f4eb0703f3154bb3db0600690920291820180546001600160a01b0319169190941617835593517f036b6384b5eca791c62761152d0c79bb0604c104a5fb6f4eb0703f3154bb3db185015551919283927f036b6384b5eca791c62761152d0c79bb0604c104a5fb6f4eb0703f3154bb3db29091019061132e9082612062565b50606082015160038201556080820151600482015560a0909101516005909101805460ff1916911515919091179055505050505050565b600080546001600160a01b038381166001600160a01b0319831681178455604051919092169283917f8be0079c531659141344cd1fd0a4f28419497f9722a3daafe3b4186f6b6457e09190a35050565b60008060649050600060c885516113cc9190611f76565b6001600160a01b038516600090815260036020526040812054919250906113f590606490611f76565b9050600060966114054442611f98565b61140f9190611f76565b9050808261141d8587611f98565b6114279190611f98565b6114319190611f98565b9450505050505b92915050565b600081905061146e816040518060400160405280600981526020016861757468656e74696360b81b8152506119fc565b8061149a575061149a81604051806040016040528060048152602001631c99585b60e21b8152506119fc565b156114d8576114d8604051806040016040528060188152602001777472616e73616374696f6e5f61757468656e74696369747960401b815250611189565b6114ff816040518060400160405280600581526020016476616c756560d81b8152506119fc565b8061152c575061152c81604051806040016040528060058152602001640eedee4e8d60db1b8152506119fc565b15611560576115606040518060400160405280600e81526020016d3b30b63ab2afba3930b739b332b960911b815250611189565b611585816040518060400160405280600381526020016237bbb760e91b8152506119fc565b806115b657506115b6816040518060400160405280600981526020016806f776e6572736869760bc1b8152506119fc565b156115ed576115ed6040518060400160405280601181526020017006469676974616c5f6f776e65727368697607c1b815250611189565b6116188160405180604001604052806009815260200168636f6e73656e73757360b81b8152506119fc565b8061164557506116458160405180604001604052806005815260200164616772656560d81b8152506119fc565b1561167c5761167c60405180604001604052806011815260200170636f6e73656e7375735f7265616c69747960781b815250611189565b6116a781604051806040016040528060098152602001681c195c9b585b995b9d60ba1b8152506119fc565b806116d857506116d88160405180604001604052806009815260200168696d6d757461626c6560b81b8152506119fc565b15610615576106156040518060400160405280601081526020016f696d6d757461626c655f6368616e676560801b815250611189565b6040805180820190915260188152777472616e73616374696f6e5f61757468656e74696369747960401b6020918201528151908201207f76957360fee0e83d6e94f8d30b88d21f1859d89ae935be8bce2e35e8d55df071016118875761012c6002604051611793907006469676974616c5f6f776e65727368697607c1b815260110190565b908152602001604051809103902060050154426117b09190611fab565b101561188757604080516060808252601b908201527f61757468656e7469635f6469676974616c5f6578697374656e63650000000000608082015260a0602082018190526044908201527f54686520696d706f73736962696c697479206f662061757468656e746963206560c08201527f78697374656e636520696e206469676974616c206f776e65727368697020737060e0820152636163657360e01b610100820152428183015290517f5fd312b1f7c58ee2b413d4d4788462500dcfcefe25b98861a07f9c2eeea14700918190036101200190a15b604080518082019091526011815270636f6e73656e7375735f7265616c69747960781b6020918201528151908201207f903ab91beabdb108cf08a0d3a6eb68f673127971a6a5945921483f9a88f0404701610f7f5761012c6002604051611904906f696d6d757461626c655f6368616e676560801b815260100190565b908152602001604051809103902060050154426119219190611fab565b1015610f7f57604080516060808252601e908201527f636f6e73656e7375735f696d6d75746162696c6974795f70617261646f780000608082015260a0602082018190526046908201527f436f6e73656e737573206372656174657320696d6d757461626c65207472757460c08201527f682074686174206368616e67657320776974682065616368206e657720636f6e60e08201526573656e73757360d01b610100820152428183015290517f5fd312b1f7c58ee2b413d4d4788462500dcfcefe25b98861a07f9c2eeea14700918190036101200190a150565b8151815160009183911115611a15576000915050611438565b60005b81518551611a269190611fab565b8111611acb57600160005b8351811015611aa557838181518110611a4c57611a4c611fed565b01602001516001600160f81b03191687611a668386611f98565b81518110611a7657611a76611fed565b01602001516001600160f81b03191614611a935760009150611aa5565b80611a9d81611f5d565b915050611a31565b508015611ab85760019350505050611438565b5080611ac381611f5d565b915050611a18565b506000949350505050565b80356001600160a01b0381168114611aed57600080fd5b919050565b600060208284031215611b0457600080fd5b611b0d82611ad6565b9392505050565b600060208284031215611b2657600080fd5b5035919050565b60005b83811015611b48578181015183820152602001611b30565b50506000910152565b60008151808452611b69816020860160208601611b2d565b601f01601f19169290920160200192915050565b60018060a01b038716815285602082015260c060408201526000611ba460c0830187611b51565b6060830195909552506080810192909252151560a0909101529392505050565b60008060408385031215611bd757600080fd5b611be083611ad6565b946020939093013593505050565b60008083601f840112611c0057600080fd5b50813567ffffffffffffffff811115611c1857600080fd5b602083019150836020828501011115611c3057600080fd5b9250929050565b60008060208385031215611c4a57600080fd5b823567ffffffffffffffff811115611c6157600080fd5b611c6d85828601611bee565b90969095509350505050565b60006020808301818452808551808352604092508286019150828160051b87010184880160005b83811015611d1757888303603f19018552815180516001600160a01b0316845287810151888501528681015160c088860181905290611ce182870182611b51565b606084810151908801526080808501519088015260a0938401511515939096019290925250509386019390860190600101611ca0565b509098975050505050505050565b6000602080830181845280855180835260408601915060408160051b870101925083870160005b82811015611d7a57603f19888603018452611d68858351611b51565b94509285019290850190600101611d4c565b5092979650505050505050565b600080600080600060608688031215611d9f57600080fd5b853567ffffffffffffffff80821115611db757600080fd5b611dc389838a01611bee565b90975095506020880135915080821115611ddc57600080fd5b50611de988828901611bee565b96999598509660400135949350505050565b634e487b7160e01b600052604160045260246000fd5b600060208284031215611e2357600080fd5b813567ffffffffffffffff80821115611e3b57600080fd5b818401915084601f830112611e4f57600080fd5b813581811115611e6157611e61611dfb565b604051601f8201601f19908116603f01168101908382118183101715611e8957611e89611dfb565b81604052828152876020848701011115611ea257600080fd5b826020860160208301376000928101602001929092525095945050505050565b60c081526000611ed560c0830189611b51565b8281036020840152611ee78189611b51565b604084019790975250509215156060840152608083019190915260a09091015292915050565b600181811c90821680611f2157607f821691505b602082108103611f4157634e487b7160e01b600052602260045260246000fd5b50919050565b634e487b7160e01b600052601160045260246000fd5b600060018201611f6f57611f6f611f47565b5060010190565b600082611f9357634e487b7160e01b600052601260045260246000fd5b500690565b8082018082111561143857611438611f47565b8181038181111561143857611438611f47565b60208152816020820152818360408301376000818301604090810191909152601f909201601f19160101919050565b634e487b7160e01b600052603260045260246000fd5b8183823760009101908152919050565b601f82111561205d57600081815260208120601f850160051c8101602086101561203a5750805b601f850160051c820191505b8181101561205957828155600101612046565b5050505b505050565b815167ffffffffffffffff81111561207c5761207c611dfb565b6120908161208a8454611f0d565b84612013565b602080601f8311600181146120c557600084156120ad5750858301515b600019600386901b1c1916600185901b178555612059565b600085815260208120601f198616915b828110156120f4578886015182559484019460019091019084016120d5565b50858210156121125787850151600019600388901b60f8161c191681555b5050505050600190811b01905550565b60008251612134818460208701611b2d565b919091019291505056fe2a3f5fabca54075e22a90ed24fa42142dd0bbbec347182bde1de1d9de5d65564a26469706673582212208e6f8472a24eb0764fec1bb69cccd899b588448a445d9677350d4ebe0268eb8164736f6c634300081300334973206120626c6f636b636861696e207472616e73616374696f6e206d6f726520277265616c27207468616e20616e206f66662d636861696e20616374696f6e3f576861742069732076616c75653f204e756d6265727320696e2061206461746162617365206f7220736f6369616c20636f6e73656e7375733f43616e20796f75207472756c79206f776e20736f6d657468696e67207468617420657869737473206f6e6c7920617320696e666f726d6174696f6e3f426c6f636b636861696e20697320696d6d757461626c652c20796574207374617465206368616e6765732077697468206576657279207472616e73616374696f6e446f6573206d616a6f7269747920636f6e73656e73757320637265617465207472757468206f72206d6572656c792061677265656d656e743f",
  "linkReferences": {},
  "deployedLinkReferences": {}
}